{
  "contractName": "Etherpreneur",
  "abi": [
    {
      "anonymous": false,
      "inputs": [
        {
          "indexed": false,
          "internalType": "address",
          "name": "_visionAddress",
          "type": "address"
        },
        {
          "indexed": false,
          "internalType": "address",
          "name": "_owner",
          "type": "address"
        },
        {
          "indexed": false,
          "internalType": "string",
          "name": "_type",
          "type": "string"
        },
        {
          "indexed": false,
          "internalType": "string",
          "name": "_desciption",
          "type": "string"
        },
        {
          "indexed": false,
          "internalType": "uint256",
          "name": "_amountGoal",
          "type": "uint256"
        }
      ],
      "name": "newVisionCreated",
      "type": "event"
    },
    {
      "inputs": [
        {
          "internalType": "string",
          "name": "visionType",
          "type": "string"
        },
        {
          "internalType": "string",
          "name": "visionDescr",
          "type": "string"
        },
        {
          "internalType": "uint256",
          "name": "amountGoal",
          "type": "uint256"
        },
        {
          "internalType": "uint256",
          "name": "deadline",
          "type": "uint256"
        }
      ],
      "name": "createVision",
      "outputs": [],
      "stateMutability": "nonpayable",
      "type": "function"
    },
    {
      "inputs": [],
      "name": "getAllVisions",
      "outputs": [
        {
          "internalType": "contract Vision[]",
          "name": "",
          "type": "address[]"
        }
      ],
      "stateMutability": "view",
      "type": "function"
    }
  ],
  "bytecode": "0x608060405234801561001057600080fd5b50612cbb806100206000396000f3fe60806040523480156200001157600080fd5b50600436106200003a5760003560e01c806327e37eb5146200003f578063fb741ff6146200005f575b600080fd5b6200005d60048036038101906200005791906200027d565b62000081565b005b620000696200017b565b604051620000789190620004eb565b60405180910390f35b60003383888888888760405162000098906200020b565b620000aa97969594939291906200047c565b604051809103906000f080158015620000c7573d6000803e3d6000fd5b5090506000819080600181540180825580915050600190039060005260206000200160009091909190916101000a81548173ffffffffffffffffffffffffffffffffffffffff021916908373ffffffffffffffffffffffffffffffffffffffff1602179055507fa2980c4674d33421640de9dccac8b32e96e083153e5a45da325b3be380f18b4a813389898989896040516200016a97969594939291906200040d565b60405180910390a150505050505050565b606060008054806020026020016040519081016040528092919081815260200182805480156200020157602002820191906000526020600020905b8160009054906101000a900473ffffffffffffffffffffffffffffffffffffffff1673ffffffffffffffffffffffffffffffffffffffff1681526020019060010190808311620001b6575b5050505050905090565b61268c80620005fa83390190565b60008083601f8401126200022c57600080fd5b8235905067ffffffffffffffff8111156200024657600080fd5b6020830191508360018202830111156200025f57600080fd5b9250929050565b6000813590506200027781620005df565b92915050565b600080600080600080608087890312156200029757600080fd5b600087013567ffffffffffffffff811115620002b257600080fd5b620002c089828a0162000219565b9650965050602087013567ffffffffffffffff811115620002e057600080fd5b620002ee89828a0162000219565b945094505060406200030389828a0162000266565b92505060606200031689828a0162000266565b9150509295509295509295565b6000620003318383620003b8565b60208301905092915050565b620003488162000559565b82525050565b60006200035b826200051f565b62000367818562000537565b935062000374836200050f565b8060005b83811015620003ab5781516200038f888262000323565b97506200039c836200052a565b92505060018101905062000378565b5085935050505092915050565b620003c38162000597565b82525050565b6000620003d7838562000548565b9350620003e6838584620005bf565b620003f183620005ce565b840190509392505050565b62000407816200058d565b82525050565b600060a08201905062000424600083018a6200033d565b6200043360208301896200033d565b818103604083015262000448818789620003c9565b905081810360608301526200045f818587620003c9565b9050620004706080830184620003fc565b98975050505050505050565b600060a08201905062000493600083018a6200033d565b620004a26020830189620003fc565b8181036040830152620004b7818789620003c9565b90508181036060830152620004ce818587620003c9565b9050620004df6080830184620003fc565b98975050505050505050565b600060208201905081810360008301526200050781846200034e565b905092915050565b6000819050602082019050919050565b600081519050919050565b6000602082019050919050565b600082825260208201905092915050565b600082825260208201905092915050565b600062000566826200056d565b9050919050565b600073ffffffffffffffffffffffffffffffffffffffff82169050919050565b6000819050919050565b6000620005a482620005ab565b9050919050565b6000620005b8826200056d565b9050919050565b82818337600083830152505050565b6000601f19601f8301169050919050565b620005ea816200058d565b8114620005f657600080fd5b5056fe60806040526000600760006101000a81548160ff0219169083600281111562000051577f4e487b7100000000000000000000000000000000000000000000000000000000600052602160045260246000fd5b02179055503480156200006357600080fd5b506040516200268c3803806200268c8339818101604052810190620000899190620002de565b600160008190555084600360006101000a81548173ffffffffffffffffffffffffffffffffffffffff021916908373ffffffffffffffffffffffffffffffffffffffff160217905550836001819055508260049080519060200190620000f19291906200018e565b5081600590805190602001906200010a9291906200018e565b5062015180816200011c91906200050f565b42620001299190620004b2565b6009819055508473ffffffffffffffffffffffffffffffffffffffff167ff130c464ba030b9762d268699119d0ffa3230371bdeb4c01cb1a4c7662b04a878585856040516200017b93929190620003e4565b60405180910390a25050505050620006ec565b8280546200019c90620005e4565b90600052602060002090601f016020900481019282620001c057600085556200020c565b82601f10620001db57805160ff19168380011785556200020c565b828001600101855582156200020c579182015b828111156200020b578251825591602001919060010190620001ee565b5b5090506200021b91906200021f565b5090565b5b808211156200023a57600081600090555060010162000220565b5090565b6000620002556200024f8462000463565b6200042f565b9050828152602081018484840111156200026e57600080fd5b6200027b848285620005ae565b509392505050565b6000815190506200029481620006b8565b92915050565b600082601f830112620002ac57600080fd5b8151620002be8482602086016200023e565b91505092915050565b600081519050620002d881620006d2565b92915050565b600080600080600060a08688031215620002f757600080fd5b6000620003078882890162000283565b95505060206200031a88828901620002c7565b945050604086015167ffffffffffffffff8111156200033857600080fd5b62000346888289016200029a565b935050606086015167ffffffffffffffff8111156200036457600080fd5b62000372888289016200029a565b92505060806200038588828901620002c7565b9150509295509295909350565b60006200039f8262000496565b620003ab8185620004a1565b9350620003bd818560208601620005ae565b620003c881620006a7565b840191505092915050565b620003de81620005a4565b82525050565b6000606082019050620003fb6000830186620003d3565b81810360208301526200040f818562000392565b9050818103604083015262000425818462000392565b9050949350505050565b6000604051905081810181811067ffffffffffffffff8211171562000459576200045862000678565b5b8060405250919050565b600067ffffffffffffffff82111562000481576200048062000678565b5b601f19601f8301169050602081019050919050565b600081519050919050565b600082825260208201905092915050565b6000620004bf82620005a4565b9150620004cc83620005a4565b9250827fffffffffffffffffffffffffffffffffffffffffffffffffffffffffffffffff038211156200050457620005036200061a565b5b828201905092915050565b60006200051c82620005a4565b91506200052983620005a4565b9250817fffffffffffffffffffffffffffffffffffffffffffffffffffffffffffffffff04831182151516156200056557620005646200061a565b5b828202905092915050565b60006200057d8262000584565b9050919050565b600073ffffffffffffffffffffffffffffffffffffffff82169050919050565b6000819050919050565b60005b83811015620005ce578082015181840152602081019050620005b1565b83811115620005de576000848401525b50505050565b60006002820490506001821680620005fd57607f821691505b6020821081141562000614576200061362000649565b5b50919050565b7f4e487b7100000000000000000000000000000000000000000000000000000000600052601160045260246000fd5b7f4e487b7100000000000000000000000000000000000000000000000000000000600052602260045260246000fd5b7f4e487b7100000000000000000000000000000000000000000000000000000000600052604160045260246000fd5b6000601f19601f8301169050919050565b620006c38162000570565b8114620006cf57600080fd5b50565b620006dd81620005a4565b8114620006e957600080fd5b50565b611f9080620006fc6000396000f3fe6080604052600436106100f75760003560e01c80636f7bc9be1161008a578063c3726c3b11610059578063c3726c3b14610310578063c962315914610340578063e8b5e51f1461036b578063f441b1c81461037557610101565b80636f7bc9be1461023c5780638da5cb5b146102795780639ecebe2a146102a4578063c19d93fb146102e557610101565b80632e1a7d4d116100c65780632e1a7d4d146101b05780633958eb2d146101cc5780634a19b430146101f55780635114cb521461022057610101565b80630121b93f146101065780630785001c1461012f578063298633be1461015a57806329dcb0cf1461018557610101565b3661010157600080fd5b600080fd5b34801561011257600080fd5b5061012d6004803603810190610128919061171e565b6103a0565b005b34801561013b57600080fd5b506101446105ec565b6040516101519190611be4565b60405180910390f35b34801561016657600080fd5b5061016f6105f2565b60405161017c9190611be4565b60405180910390f35b34801561019157600080fd5b5061019a6105f8565b6040516101a79190611be4565b60405180910390f35b6101ca60048036038101906101c5919061171e565b6105fe565b005b3480156101d857600080fd5b506101f360048036038101906101ee9190611747565b610927565b005b34801561020157600080fd5b5061020a610ac2565b6040516102179190611ae2565b60405180910390f35b61023a6004803603810190610235919061171e565b610b50565b005b34801561024857600080fd5b50610263600480360381019061025e91906116b9565b610e8a565b6040516102709190611be4565b60405180910390f35b34801561028557600080fd5b5061028e610ea2565b60405161029b9190611a3d565b60405180910390f35b3480156102b057600080fd5b506102cb60048036038101906102c691906116e2565b610ec8565b6040516102dc959493929190611bff565b60405180910390f35b3480156102f157600080fd5b506102fa610fc0565b6040516103079190611ac7565b60405180910390f35b34801561031c57600080fd5b50610325610fd3565b60405161033796959493929190611a58565b60405180910390f35b34801561034c57600080fd5b50610355611140565b6040516103629190611ae2565b60405180910390f35b6103736111ce565b005b34801561038157600080fd5b5061038a6114de565b6040516103979190611be4565b60405180910390f35b60015460025410156103e7576040517f08c379a00000000000000000000000000000000000000000000000000000000081526004016103de90611bc4565b60405180910390fd5b6000600660003373ffffffffffffffffffffffffffffffffffffffff1673ffffffffffffffffffffffffffffffffffffffff1681526020019081526020016000205411610469576040517f08c379a000000000000000000000000000000000000000000000000000000000815260040161046090611b44565b60405180910390fd5b6000600b6000600360009054906101000a900473ffffffffffffffffffffffffffffffffffffffff1673ffffffffffffffffffffffffffffffffffffffff1673ffffffffffffffffffffffffffffffffffffffff16815260200190815260200160002060008381526020019081526020016000209050600015158160040160003373ffffffffffffffffffffffffffffffffffffffff1673ffffffffffffffffffffffffffffffffffffffff16815260200190815260200160002060009054906101000a900460ff16151514610574576040517f08c379a000000000000000000000000000000000000000000000000000000000815260040161056b90611b04565b60405180910390fd5b60018160040160003373ffffffffffffffffffffffffffffffffffffffff1673ffffffffffffffffffffffffffffffffffffffff16815260200190815260200160002060006101000a81548160ff0219169083151502179055508060030160008154809291906105e390611e02565b91905055505050565b60015481565b60085481565b60095481565b600360009054906101000a900473ffffffffffffffffffffffffffffffffffffffff1673ffffffffffffffffffffffffffffffffffffffff163373ffffffffffffffffffffffffffffffffffffffff161461068e576040517f08c379a000000000000000000000000000000000000000000000000000000000815260040161068590611b84565b60405180910390fd5b600260005414156106d4576040517f08c379a00000000000000000000000000000000000000000000000000000000081526004016106cb90611ba4565b60405180910390fd5b60026000819055506000600b60003373ffffffffffffffffffffffffffffffffffffffff1673ffffffffffffffffffffffffffffffffffffffff16815260200190815260200160002060008381526020019081526020016000209050600015158160050160009054906101000a900460ff1615151461075257600080fd5b60026008546107619190611cff565b8160030154101561077157600080fd5b60008160010160009054906101000a900473ffffffffffffffffffffffffffffffffffffffff1673ffffffffffffffffffffffffffffffffffffffff1682600001546040516107bf90611a28565b60006040518083038185875af1925050503d80600081146107fc576040519150601f19603f3d011682016040523d82523d6000602084013e610801565b606091505b5050905080156108a35760018260050160006101000a81548160ff0219169083151502179055508160010160009054906101000a900473ffffffffffffffffffffffffffffffffffffffff1673ffffffffffffffffffffffffffffffffffffffff167f6c7daa5580c16e17fd420a14dc57cc201335a4c2e8527f13808acb0a9833c7b683600001546040516108969190611be4565b60405180910390a261091a565b8160010160009054906101000a900473ffffffffffffffffffffffffffffffffffffffff1673ffffffffffffffffffffffffffffffffffffffff167f0474edcf285ad54c43cbc1fd4c461ff59575735332d2ea7e3e34f4d08cc476a683600001546040516109119190611be4565b60405180910390a25b5050600160008190555050565b600360009054906101000a900473ffffffffffffffffffffffffffffffffffffffff1673ffffffffffffffffffffffffffffffffffffffff163373ffffffffffffffffffffffffffffffffffffffff16146109b7576040517f08c379a00000000000000000000000000000000000000000000000000000000081526004016109ae90611b84565b60405180910390fd5b8360025410156109c657600080fd5b6000600b60003373ffffffffffffffffffffffffffffffffffffffff1673ffffffffffffffffffffffffffffffffffffffff1681526020019081526020016000206000600a5481526020019081526020016000209050848160000181905550838160010160006101000a81548173ffffffffffffffffffffffffffffffffffffffff021916908373ffffffffffffffffffffffffffffffffffffffff1602179055508282826002019190610a7b9291906115a2565b506000816003018190555060008160050160006101000a81548160ff021916908315150217905550600a6000815480929190610ab690611e02565b91905055505050505050565b60048054610acf90611dd0565b80601f0160208091040260200160405190810160405280929190818152602001828054610afb90611dd0565b8015610b485780601f10610b1d57610100808354040283529160200191610b48565b820191906000526020600020905b815481529060010190602001808311610b2b57829003601f168201915b505050505081565b60016002811115610b8a577f4e487b7100000000000000000000000000000000000000000000000000000000600052602160045260246000fd5b600760009054906101000a900460ff166002811115610bd2577f4e487b7100000000000000000000000000000000000000000000000000000000600052602160045260246000fd5b14610c12576040517f08c379a0000000000000000000000000000000000000000000000000000000008152600401610c0990611b24565b60405180910390fd5b6001546002541015610c59576040517f08c379a0000000000000000000000000000000000000000000000000000000008152600401610c5090611bc4565b60405180910390fd5b60026000541415610c9f576040517f08c379a0000000000000000000000000000000000000000000000000000000008152600401610c9690611ba4565b60405180910390fd5b600260008190555060006002819055506000600360009054906101000a900473ffffffffffffffffffffffffffffffffffffffff1673ffffffffffffffffffffffffffffffffffffffff1682604051610cf790611a28565b60006040518083038185875af1925050503d8060008114610d34576040519150601f19603f3d011682016040523d82523d6000602084013e610d39565b606091505b505090508015610e0b576002600760006101000a81548160ff02191690836002811115610d8f577f4e487b7100000000000000000000000000000000000000000000000000000000600052602160045260246000fd5b0217905550600360009054906101000a900473ffffffffffffffffffffffffffffffffffffffff1673ffffffffffffffffffffffffffffffffffffffff167f6c7daa5580c16e17fd420a14dc57cc201335a4c2e8527f13808acb0a9833c7b6600254604051610dfe9190611be4565b60405180910390a2610e7e565b600360009054906101000a900473ffffffffffffffffffffffffffffffffffffffff1673ffffffffffffffffffffffffffffffffffffffff167f0474edcf285ad54c43cbc1fd4c461ff59575735332d2ea7e3e34f4d08cc476a6600254604051610e759190611be4565b60405180910390a25b50600160008190555050565b60066020528060005260406000206000915090505481565b600360009054906101000a900473ffffffffffffffffffffffffffffffffffffffff1681565b600b602052816000526040600020602052806000526040600020600091509150508060000154908060010160009054906101000a900473ffffffffffffffffffffffffffffffffffffffff1690806002018054610f2490611dd0565b80601f0160208091040260200160405190810160405280929190818152602001828054610f5090611dd0565b8015610f9d5780601f10610f7257610100808354040283529160200191610f9d565b820191906000526020600020905b815481529060010190602001808311610f8057829003601f168201915b5050505050908060030154908060050160009054906101000a900460ff16905085565b600760009054906101000a900460ff1681565b60006060806000806000600360009054906101000a900473ffffffffffffffffffffffffffffffffffffffff1695506004805461100f90611dd0565b80601f016020809104026020016040519081016040528092919081815260200182805461103b90611dd0565b80156110885780601f1061105d57610100808354040283529160200191611088565b820191906000526020600020905b81548152906001019060200180831161106b57829003601f168201915b50505050509450600760009054906101000a900460ff169250600580546110ae90611dd0565b80601f01602080910402602001604051908101604052809291908181526020018280546110da90611dd0565b80156111275780601f106110fc57610100808354040283529160200191611127565b820191906000526020600020905b81548152906001019060200180831161110a57829003601f168201915b5050505050935060015491506002549050909192939495565b6005805461114d90611dd0565b80601f016020809104026020016040519081016040528092919081815260200182805461117990611dd0565b80156111c65780601f1061119b576101008083540402835291602001916111c6565b820191906000526020600020905b8154815290600101906020018083116111a957829003601f168201915b505050505081565b60006002811115611208577f4e487b7100000000000000000000000000000000000000000000000000000000600052602160045260246000fd5b600760009054906101000a900460ff166002811115611250577f4e487b7100000000000000000000000000000000000000000000000000000000600052602160045260246000fd5b14801561125e575060095442105b61129d576040517f08c379a000000000000000000000000000000000000000000000000000000000815260040161129490611b64565b60405180910390fd5b600360009054906101000a900473ffffffffffffffffffffffffffffffffffffffff1673ffffffffffffffffffffffffffffffffffffffff163373ffffffffffffffffffffffffffffffffffffffff1614156112f857600080fd5b6113006114e4565b61135234600660003373ffffffffffffffffffffffffffffffffffffffff1673ffffffffffffffffffffffffffffffffffffffff1681526020019081526020016000205461158c90919063ffffffff16565b600660003373ffffffffffffffffffffffffffffffffffffffff1673ffffffffffffffffffffffffffffffffffffffff168152602001908152602001600020819055506113aa3460025461158c90919063ffffffff16565b6002819055503373ffffffffffffffffffffffffffffffffffffffff167f9e9d7ca46ec5a4720f2586b8e4b95d60c6af31bea7a852b477a075acd7a95091346002546040516113fa929190611c59565b60405180910390a2600154600254106114dc576001600760006101000a81548160ff02191690836002811115611459577f4e487b7100000000000000000000000000000000000000000000000000000000600052602160045260246000fd5b0217905550600360009054906101000a900473ffffffffffffffffffffffffffffffffffffffff1673ffffffffffffffffffffffffffffffffffffffff167f39826bfb6ded65fcf451f48c0fa6e8cd02d0829689a28ee59965eb871e8946586002546040516114c89190611be4565b60405180910390a26114db600254610b50565b5b565b60025481565b6000600660003373ffffffffffffffffffffffffffffffffffffffff1673ffffffffffffffffffffffffffffffffffffffff16815260200190815260200160002054141561158a5760016008600082825461153f9190611ca9565b925050819055503373ffffffffffffffffffffffffffffffffffffffff167f2c385ad016af1d5b8f4eefb8aef02929aa692e7f6d846488519f2513bd7170e060405160405180910390a25b565b6000818361159a9190611ca9565b905092915050565b8280546115ae90611dd0565b90600052602060002090601f0160209004810192826115d05760008555611617565b82601f106115e957803560ff1916838001178555611617565b82800160010185558215611617579182015b828111156116165782358255916020019190600101906115fb565b5b5090506116249190611628565b5090565b5b80821115611641576000816000905550600101611629565b5090565b60008135905061165481611f2c565b92915050565b60008083601f84011261166c57600080fd5b8235905067ffffffffffffffff81111561168557600080fd5b60208301915083600182028301111561169d57600080fd5b9250929050565b6000813590506116b381611f43565b92915050565b6000602082840312156116cb57600080fd5b60006116d984828501611645565b91505092915050565b600080604083850312156116f557600080fd5b600061170385828601611645565b9250506020611714858286016116a4565b9150509250929050565b60006020828403121561173057600080fd5b600061173e848285016116a4565b91505092915050565b6000806000806060858703121561175d57600080fd5b600061176b878288016116a4565b945050602061177c87828801611645565b935050604085013567ffffffffffffffff81111561179957600080fd5b6117a58782880161165a565b925092505092959194509250565b6117bc81611d30565b82525050565b6117cb81611d42565b82525050565b6117da81611d8b565b82525050565b60006117eb82611c82565b6117f58185611c98565b9350611805818560208601611d9d565b61180e81611f07565b840191505092915050565b6000611826601283611c98565b91507f5573657220616c726561647920766f74656400000000000000000000000000006000830152602082019050919050565b6000611866601983611c98565b91507f50726f6a65637420686173206e6f7420656e64656420796574000000000000006000830152602082019050919050565b60006118a6601683611c98565b91507f4e6f20616d6f756e742077617320696e766573746564000000000000000000006000830152602082019050919050565b60006118e6601e83611c98565b91507f50726f6a656374206973206e6f7420696e20496e7665737420537461746500006000830152602082019050919050565b6000611926600083611c8d565b9150600082019050919050565b6000611940602483611c98565b91507f55736572206973206e6f7420746865206f776e6572206f66207468652050726f60008301527f6a656374000000000000000000000000000000000000000000000000000000006020830152604082019050919050565b60006119a6601f83611c98565b91507f5265656e7472616e637947756172643a207265656e7472616e742063616c6c006000830152602082019050919050565b60006119e6601983611c98565b91507f476f616c20686173206e6f74206265656e2072656163686564000000000000006000830152602082019050919050565b611a2281611d81565b82525050565b6000611a3382611919565b9150819050919050565b6000602082019050611a5260008301846117b3565b92915050565b600060c082019050611a6d60008301896117b3565b8181036020830152611a7f81886117e0565b90508181036040830152611a9381876117e0565b9050611aa260608301866117d1565b611aaf6080830185611a19565b611abc60a0830184611a19565b979650505050505050565b6000602082019050611adc60008301846117d1565b92915050565b60006020820190508181036000830152611afc81846117e0565b905092915050565b60006020820190508181036000830152611b1d81611819565b9050919050565b60006020820190508181036000830152611b3d81611859565b9050919050565b60006020820190508181036000830152611b5d81611899565b9050919050565b60006020820190508181036000830152611b7d816118d9565b9050919050565b60006020820190508181036000830152611b9d81611933565b9050919050565b60006020820190508181036000830152611bbd81611999565b9050919050565b60006020820190508181036000830152611bdd816119d9565b9050919050565b6000602082019050611bf96000830184611a19565b92915050565b600060a082019050611c146000830188611a19565b611c2160208301876117b3565b8181036040830152611c3381866117e0565b9050611c426060830185611a19565b611c4f60808301846117c2565b9695505050505050565b6000604082019050611c6e6000830185611a19565b611c7b6020830184611a19565b9392505050565b600081519050919050565b600081905092915050565b600082825260208201905092915050565b6000611cb482611d81565b9150611cbf83611d81565b9250827fffffffffffffffffffffffffffffffffffffffffffffffffffffffffffffffff03821115611cf457611cf3611e4b565b5b828201905092915050565b6000611d0a82611d81565b9150611d1583611d81565b925082611d2557611d24611e7a565b5b828204905092915050565b6000611d3b82611d61565b9050919050565b60008115159050919050565b6000819050611d5c82611f18565b919050565b600073ffffffffffffffffffffffffffffffffffffffff82169050919050565b6000819050919050565b6000611d9682611d4e565b9050919050565b60005b83811015611dbb578082015181840152602081019050611da0565b83811115611dca576000848401525b50505050565b60006002820490506001821680611de857607f821691505b60208210811415611dfc57611dfb611ed8565b5b50919050565b6000611e0d82611d81565b91507fffffffffffffffffffffffffffffffffffffffffffffffffffffffffffffffff821415611e4057611e3f611e4b565b5b600182019050919050565b7f4e487b7100000000000000000000000000000000000000000000000000000000600052601160045260246000fd5b7f4e487b7100000000000000000000000000000000000000000000000000000000600052601260045260246000fd5b7f4e487b7100000000000000000000000000000000000000000000000000000000600052602160045260246000fd5b7f4e487b7100000000000000000000000000000000000000000000000000000000600052602260045260246000fd5b6000601f19601f8301169050919050565b60038110611f2957611f28611ea9565b5b50565b611f3581611d30565b8114611f4057600080fd5b50565b611f4c81611d81565b8114611f5757600080fd5b5056fea264697066735822122075a9260052af367ccbaeb3077bf5052b0c91e8dcec627a8ee3f0314e898a641264736f6c63430008000033a26469706673582212203e501b68676dcf11ff94850eb16f0b56c55ae45bcf43212d4db46386e82d01bd64736f6c63430008000033",
  "immutableReferences": {},
  "source": "// SPDX-License-Identifier: MIT\r\npragma solidity ^0.8.0;\r\n\r\nimport \"@openzeppelin/contracts/utils/math/SafeMath.sol\";\r\nimport \"@openzeppelin/contracts/security/ReentrancyGuard.sol\";\r\n\r\ncontract Etherpreneur {\r\n\r\n    Vision[] private visions;\r\n\r\n    event newVisionCreated(\r\n        address _visionAddress,\r\n        address _owner,\r\n        string _type,\r\n        string _desciption,\r\n        uint _amountGoal\r\n    );\r\n\r\n    function createVision(string calldata visionType, string calldata visionDescr, uint amountGoal, uint deadline) external {\r\n\r\n        Vision vision = new Vision(msg.sender, amountGoal, visionType, visionDescr, deadline);\r\n\r\n        visions.push(vision);\r\n\r\n        emit newVisionCreated(\r\n            address(vision),\r\n            msg.sender,\r\n            visionType,\r\n            visionDescr,\r\n            amountGoal\r\n        );\r\n    }\r\n\r\n    function getAllVisions() external view returns (Vision[] memory) {\r\n        return visions;\r\n    }\r\n}\r\n\r\ncontract Vision is ReentrancyGuard {\r\n    using SafeMath for uint;\r\n\r\n    enum State {\r\n        INVEST,\r\n        ENDED,\r\n        PAID\r\n    }\r\n    uint public amountGoal;\r\n    uint public currentAmount;\r\n    address public owner;\r\n    string public visionType;\r\n    string public visionDescr;\r\n    mapping(address => uint) public investors;\r\n    State public state = State.INVEST;\r\n    uint public sumOfInvestors;\r\n    uint public deadline;\r\n\r\n    struct WithdrawReq {\r\n        uint withdrawAmount;\r\n        address receiver;\r\n        string withdrawalReason;\r\n        uint votes;\r\n        mapping(address => bool) votedInvestors;\r\n        bool isDone;\r\n    }\r\n\r\n    uint idxReq;\r\n    mapping(address => mapping(uint => WithdrawReq)) public requests; //TODO:REmove public, only for debugging reasons\r\n\r\n\r\n    modifier onlyOwner(){\r\n        require(msg.sender == owner, \"User is not the owner of the Project\");\r\n        _;\r\n    }\r\n\r\n    modifier canInvest(){\r\n        require(state == State.INVEST && block.timestamp < deadline, \"Project is not in Invest State\");\r\n        _;\r\n    }\r\n\r\n    modifier hasEnded(){\r\n        require(state == State.ENDED, \"Project has not ended yet\");\r\n        _;\r\n    }\r\n\r\n    modifier goalReached(){\r\n        require(currentAmount >= amountGoal, \"Goal has not been reached\");\r\n        _;\r\n    }\r\n\r\n    modifier isInvestor(){\r\n        require(investors[msg.sender] > 0, \"No amount was invested\");\r\n        _;\r\n    }\r\n\r\n    event visionCreated(address indexed owner, uint amountGoal, string visionType, string visionDescr);\r\n    event investorAdded(address indexed investor);\r\n    event amountReceived(address indexed _from, uint receivedAmount, uint currentAmount);\r\n    event amountSent(address indexed _from, uint _amount);\r\n    event withdrawnSuccess(address indexed _from, uint _amount);\r\n    event withdrawnFailure(address indexed _from, uint _amount);\r\n    event goalAchieved(address indexed owner, uint currentAmount);\r\n\r\n\r\n    constructor(address _owner, uint _amountGoal, string memory _type, string memory _descr, uint256 numOfDays) {\r\n        owner = _owner;\r\n        amountGoal = _amountGoal;\r\n        visionType = _type;\r\n        visionDescr = _descr;\r\n        deadline = block.timestamp + (numOfDays * 1 days);\r\n        //TODO: revisit this assignment\r\n        emit visionCreated(_owner, _amountGoal, _type, _descr);\r\n    }\r\n\r\n\r\n    function invest() external canInvest payable {\r\n        require(msg.sender != owner);\r\n        addInvestor();\r\n        investors[msg.sender] = investors[msg.sender].add(msg.value);\r\n        currentAmount = currentAmount.add(msg.value);\r\n        emit amountReceived(msg.sender, msg.value, currentAmount);\r\n        if (currentAmount >= amountGoal) {\r\n            state = State.ENDED;\r\n            emit goalAchieved(owner, currentAmount);\r\n            makePayment(currentAmount);\r\n            //TODO: Change it using votes\r\n        }\r\n    }\r\n\r\n\r\n    function addInvestor() internal {\r\n        if (investors[msg.sender] == 0) {//TODO:Possible modifier\r\n            sumOfInvestors += 1;\r\n            emit investorAdded(msg.sender);\r\n        }\r\n    }\r\n\r\n\r\n    function makePayment(uint amount) public payable hasEnded goalReached nonReentrant {\r\n        currentAmount = 0;\r\n        (bool success,) = owner.call{value : amount}(\"\");\r\n        if (success) {\r\n            state = State.PAID;\r\n            emit withdrawnSuccess(owner, currentAmount);\r\n        } else {\r\n            emit withdrawnFailure(owner, currentAmount);\r\n        }\r\n    }\r\n\r\n    //TODO: Revisit this section and make it work//\r\n    function createWithdrawRequest(uint _withdrawAmount, address _receiver, string calldata _withdrawalReason) public onlyOwner {\r\n        require(currentAmount >= _withdrawAmount);\r\n        //TODO:Possible modifier\r\n        WithdrawReq storage req = requests[msg.sender][idxReq];\r\n        req.withdrawAmount = _withdrawAmount;\r\n        req.receiver = _receiver;\r\n        req.withdrawalReason = _withdrawalReason;\r\n        req.votes = 0;\r\n        req.isDone = false;\r\n\r\n        idxReq++;\r\n\r\n    }\r\n\r\n    function vote(uint idx) public goalReached isInvestor {\r\n        WithdrawReq storage withdrawReq = requests[owner][idx];\r\n        require(withdrawReq.votedInvestors[msg.sender] == false, \"User already voted\");\r\n        //check if already has voted\r\n        withdrawReq.votedInvestors[msg.sender] = true;\r\n        withdrawReq.votes++;\r\n    }\r\n\r\n    function withdraw(uint idx) public onlyOwner payable nonReentrant {\r\n        WithdrawReq storage req = requests[msg.sender][idx];\r\n        require(req.isDone == false);\r\n        require(req.votes >= sumOfInvestors / 2);\r\n        (bool success,) = req.receiver.call{value : req.withdrawAmount}(\"\");\r\n        if (success) {\r\n            req.isDone = true;\r\n            emit withdrawnSuccess(req.receiver, req.withdrawAmount);\r\n        } else {\r\n            emit withdrawnFailure(req.receiver, req.withdrawAmount);\r\n        }\r\n    }\r\n    //////////////\r\n    function getVision() public view returns\r\n    (\r\n        address _owner,\r\n        string memory _type,\r\n        string memory _description,\r\n        State _currentState,\r\n        uint256 _goal,\r\n        uint256 _currentAmount\r\n    ) {\r\n        _owner = owner;\r\n        _type = visionType;\r\n        _currentState = state;\r\n        _description = visionDescr;\r\n        _goal = amountGoal;\r\n        _currentAmount = currentAmount;\r\n    }\r\n\r\n    //TODO:Revisit\r\n    receive() external payable {\r\n        revert();\r\n    }\r\n\r\n    fallback() external payable {\r\n        revert();\r\n    }\r\n}\r\n",
  "sourcePath": "/mnt/c/Users/kwnst/WebstormProjects/blockchain-developer-bootcamp-final-project_v2/contracts/Etherpreneur.sol",
  "compiler": {
    "name": "solc",
    "version": "0.8.0+commit.c7dfd78e.Emscripten.clang"
  },
  "schemaVersion": "3.4.3",
  "updatedAt": "2021-10-27T09:48:11.236Z",
  "devdoc": {
    "kind": "dev",
    "methods": {},
    "version": 1
  },
  "userdoc": {
    "kind": "user",
    "methods": {},
    "version": 1
  }
}