{
  "contractName": "Vision",
  "abi": [
    {
      "inputs": [
        {
          "internalType": "address",
          "name": "_owner",
          "type": "address"
        },
        {
          "internalType": "uint256",
          "name": "_amountGoal",
          "type": "uint256"
        },
        {
          "internalType": "string",
          "name": "_type",
          "type": "string"
        },
        {
          "internalType": "string",
          "name": "_descr",
          "type": "string"
        },
        {
          "internalType": "uint256",
          "name": "numOfDays",
          "type": "uint256"
        }
      ],
      "stateMutability": "nonpayable",
      "type": "constructor"
    },
    {
      "anonymous": false,
      "inputs": [
        {
          "indexed": true,
          "internalType": "address",
          "name": "_from",
          "type": "address"
        },
        {
          "indexed": false,
          "internalType": "uint256",
          "name": "receivedAmount",
          "type": "uint256"
        },
        {
          "indexed": false,
          "internalType": "uint256",
          "name": "currentAmount",
          "type": "uint256"
        }
      ],
      "name": "AmountReceived",
      "type": "event"
    },
    {
      "anonymous": false,
      "inputs": [
        {
          "indexed": true,
          "internalType": "address",
          "name": "_from",
          "type": "address"
        },
        {
          "indexed": false,
          "internalType": "uint256",
          "name": "_amount",
          "type": "uint256"
        }
      ],
      "name": "AmountSent",
      "type": "event"
    },
    {
      "anonymous": false,
      "inputs": [
        {
          "indexed": true,
          "internalType": "address",
          "name": "owner",
          "type": "address"
        },
        {
          "indexed": false,
          "internalType": "uint256",
          "name": "currentAmount",
          "type": "uint256"
        }
      ],
      "name": "GoalAchieved",
      "type": "event"
    },
    {
      "anonymous": false,
      "inputs": [
        {
          "indexed": true,
          "internalType": "address",
          "name": "investor",
          "type": "address"
        }
      ],
      "name": "InvestorAdded",
      "type": "event"
    },
    {
      "anonymous": false,
      "inputs": [
        {
          "indexed": true,
          "internalType": "bytes32",
          "name": "role",
          "type": "bytes32"
        },
        {
          "indexed": true,
          "internalType": "bytes32",
          "name": "previousAdminRole",
          "type": "bytes32"
        },
        {
          "indexed": true,
          "internalType": "bytes32",
          "name": "newAdminRole",
          "type": "bytes32"
        }
      ],
      "name": "RoleAdminChanged",
      "type": "event"
    },
    {
      "anonymous": false,
      "inputs": [
        {
          "indexed": true,
          "internalType": "bytes32",
          "name": "role",
          "type": "bytes32"
        },
        {
          "indexed": true,
          "internalType": "address",
          "name": "account",
          "type": "address"
        },
        {
          "indexed": true,
          "internalType": "address",
          "name": "sender",
          "type": "address"
        }
      ],
      "name": "RoleGranted",
      "type": "event"
    },
    {
      "anonymous": false,
      "inputs": [
        {
          "indexed": true,
          "internalType": "bytes32",
          "name": "role",
          "type": "bytes32"
        },
        {
          "indexed": true,
          "internalType": "address",
          "name": "account",
          "type": "address"
        },
        {
          "indexed": true,
          "internalType": "address",
          "name": "sender",
          "type": "address"
        }
      ],
      "name": "RoleRevoked",
      "type": "event"
    },
    {
      "anonymous": false,
      "inputs": [
        {
          "indexed": true,
          "internalType": "address",
          "name": "owner",
          "type": "address"
        },
        {
          "indexed": false,
          "internalType": "uint256",
          "name": "amountGoal",
          "type": "uint256"
        },
        {
          "indexed": false,
          "internalType": "string",
          "name": "visionType",
          "type": "string"
        },
        {
          "indexed": false,
          "internalType": "string",
          "name": "visionDescr",
          "type": "string"
        }
      ],
      "name": "VisionCreated",
      "type": "event"
    },
    {
      "anonymous": false,
      "inputs": [
        {
          "indexed": true,
          "internalType": "address",
          "name": "_from",
          "type": "address"
        },
        {
          "indexed": false,
          "internalType": "uint256",
          "name": "_amount",
          "type": "uint256"
        }
      ],
      "name": "WithdrawnSuccess",
      "type": "event"
    },
    {
      "stateMutability": "payable",
      "type": "fallback"
    },
    {
      "inputs": [],
      "name": "DEFAULT_ADMIN_ROLE",
      "outputs": [
        {
          "internalType": "bytes32",
          "name": "",
          "type": "bytes32"
        }
      ],
      "stateMutability": "view",
      "type": "function"
    },
    {
      "inputs": [],
      "name": "INVESTOR_ROLE",
      "outputs": [
        {
          "internalType": "bytes32",
          "name": "",
          "type": "bytes32"
        }
      ],
      "stateMutability": "view",
      "type": "function"
    },
    {
      "inputs": [],
      "name": "amountGoal",
      "outputs": [
        {
          "internalType": "uint256",
          "name": "",
          "type": "uint256"
        }
      ],
      "stateMutability": "view",
      "type": "function"
    },
    {
      "inputs": [],
      "name": "currentAmount",
      "outputs": [
        {
          "internalType": "uint256",
          "name": "",
          "type": "uint256"
        }
      ],
      "stateMutability": "view",
      "type": "function"
    },
    {
      "inputs": [],
      "name": "deadline",
      "outputs": [
        {
          "internalType": "uint256",
          "name": "",
          "type": "uint256"
        }
      ],
      "stateMutability": "view",
      "type": "function"
    },
    {
      "inputs": [
        {
          "internalType": "bytes32",
          "name": "role",
          "type": "bytes32"
        }
      ],
      "name": "getRoleAdmin",
      "outputs": [
        {
          "internalType": "bytes32",
          "name": "",
          "type": "bytes32"
        }
      ],
      "stateMutability": "view",
      "type": "function"
    },
    {
      "inputs": [
        {
          "internalType": "bytes32",
          "name": "role",
          "type": "bytes32"
        },
        {
          "internalType": "address",
          "name": "account",
          "type": "address"
        }
      ],
      "name": "grantRole",
      "outputs": [],
      "stateMutability": "nonpayable",
      "type": "function"
    },
    {
      "inputs": [
        {
          "internalType": "bytes32",
          "name": "role",
          "type": "bytes32"
        },
        {
          "internalType": "address",
          "name": "account",
          "type": "address"
        }
      ],
      "name": "hasRole",
      "outputs": [
        {
          "internalType": "bool",
          "name": "",
          "type": "bool"
        }
      ],
      "stateMutability": "view",
      "type": "function"
    },
    {
      "inputs": [],
      "name": "idxReq",
      "outputs": [
        {
          "internalType": "uint256",
          "name": "",
          "type": "uint256"
        }
      ],
      "stateMutability": "view",
      "type": "function"
    },
    {
      "inputs": [
        {
          "internalType": "address",
          "name": "",
          "type": "address"
        }
      ],
      "name": "investors",
      "outputs": [
        {
          "internalType": "uint256",
          "name": "",
          "type": "uint256"
        }
      ],
      "stateMutability": "view",
      "type": "function"
    },
    {
      "inputs": [],
      "name": "owner",
      "outputs": [
        {
          "internalType": "address",
          "name": "",
          "type": "address"
        }
      ],
      "stateMutability": "view",
      "type": "function"
    },
    {
      "inputs": [
        {
          "internalType": "bytes32",
          "name": "role",
          "type": "bytes32"
        },
        {
          "internalType": "address",
          "name": "account",
          "type": "address"
        }
      ],
      "name": "renounceRole",
      "outputs": [],
      "stateMutability": "nonpayable",
      "type": "function"
    },
    {
      "inputs": [
        {
          "internalType": "uint256",
          "name": "",
          "type": "uint256"
        }
      ],
      "name": "requests",
      "outputs": [
        {
          "internalType": "uint256",
          "name": "withdrawAmount",
          "type": "uint256"
        },
        {
          "internalType": "address",
          "name": "receiver",
          "type": "address"
        },
        {
          "internalType": "string",
          "name": "withdrawalReason",
          "type": "string"
        },
        {
          "internalType": "uint256",
          "name": "votes",
          "type": "uint256"
        },
        {
          "internalType": "bool",
          "name": "isDone",
          "type": "bool"
        }
      ],
      "stateMutability": "view",
      "type": "function"
    },
    {
      "inputs": [
        {
          "internalType": "bytes32",
          "name": "role",
          "type": "bytes32"
        },
        {
          "internalType": "address",
          "name": "account",
          "type": "address"
        }
      ],
      "name": "revokeRole",
      "outputs": [],
      "stateMutability": "nonpayable",
      "type": "function"
    },
    {
      "inputs": [],
      "name": "state",
      "outputs": [
        {
          "internalType": "enum Vision.State",
          "name": "",
          "type": "uint8"
        }
      ],
      "stateMutability": "view",
      "type": "function"
    },
    {
      "inputs": [],
      "name": "sumOfInvestors",
      "outputs": [
        {
          "internalType": "uint256",
          "name": "",
          "type": "uint256"
        }
      ],
      "stateMutability": "view",
      "type": "function"
    },
    {
      "inputs": [
        {
          "internalType": "bytes4",
          "name": "interfaceId",
          "type": "bytes4"
        }
      ],
      "name": "supportsInterface",
      "outputs": [
        {
          "internalType": "bool",
          "name": "",
          "type": "bool"
        }
      ],
      "stateMutability": "view",
      "type": "function"
    },
    {
      "inputs": [],
      "name": "visionDescr",
      "outputs": [
        {
          "internalType": "string",
          "name": "",
          "type": "string"
        }
      ],
      "stateMutability": "view",
      "type": "function"
    },
    {
      "inputs": [],
      "name": "visionType",
      "outputs": [
        {
          "internalType": "string",
          "name": "",
          "type": "string"
        }
      ],
      "stateMutability": "view",
      "type": "function"
    },
    {
      "stateMutability": "payable",
      "type": "receive"
    },
    {
      "inputs": [],
      "name": "invest",
      "outputs": [],
      "stateMutability": "payable",
      "type": "function"
    },
    {
      "inputs": [],
      "name": "withdrawInvestedAmount",
      "outputs": [
        {
          "internalType": "bool",
          "name": "",
          "type": "bool"
        }
      ],
      "stateMutability": "payable",
      "type": "function"
    },
    {
      "inputs": [
        {
          "internalType": "address",
          "name": "investor",
          "type": "address"
        }
      ],
      "name": "getInvestorAmount",
      "outputs": [
        {
          "internalType": "uint256",
          "name": "",
          "type": "uint256"
        }
      ],
      "stateMutability": "view",
      "type": "function"
    },
    {
      "inputs": [
        {
          "internalType": "uint256",
          "name": "_withdrawAmount",
          "type": "uint256"
        },
        {
          "internalType": "string",
          "name": "_withdrawalReason",
          "type": "string"
        }
      ],
      "name": "createWithdrawRequest",
      "outputs": [],
      "stateMutability": "nonpayable",
      "type": "function"
    },
    {
      "inputs": [
        {
          "internalType": "uint256",
          "name": "idx",
          "type": "uint256"
        }
      ],
      "name": "vote",
      "outputs": [],
      "stateMutability": "nonpayable",
      "type": "function"
    },
    {
      "inputs": [
        {
          "internalType": "uint256",
          "name": "idx",
          "type": "uint256"
        }
      ],
      "name": "withdraw",
      "outputs": [],
      "stateMutability": "payable",
      "type": "function"
    },
    {
      "inputs": [],
      "name": "getVision",
      "outputs": [
        {
          "internalType": "address",
          "name": "_owner",
          "type": "address"
        },
        {
          "internalType": "string",
          "name": "_type",
          "type": "string"
        },
        {
          "internalType": "string",
          "name": "_description",
          "type": "string"
        },
        {
          "internalType": "enum Vision.State",
          "name": "_currentState",
          "type": "uint8"
        },
        {
          "internalType": "uint256",
          "name": "_goal",
          "type": "uint256"
        },
        {
          "internalType": "uint256",
          "name": "_currentAmount",
          "type": "uint256"
        },
        {
          "internalType": "uint256",
          "name": "_deadline",
          "type": "uint256"
        },
        {
          "internalType": "uint256",
          "name": "_sumOfInvestors",
          "type": "uint256"
        },
        {
          "internalType": "uint256",
          "name": "_idxReq",
          "type": "uint256"
        }
      ],
      "stateMutability": "view",
      "type": "function"
    }
  ],
  "bytecode": "0x60806040526000600860006101000a81548160ff0219169083600281111562000051577f4e487b7100000000000000000000000000000000000000000000000000000000600052602160045260246000fd5b02179055506000600c553480156200006857600080fd5b5060405162003aa838038062003aa883398181016040528101906200008e9190620002e3565b600160008190555084600460006101000a81548173ffffffffffffffffffffffffffffffffffffffff021916908373ffffffffffffffffffffffffffffffffffffffff160217905550836002819055508260059080519060200190620000f692919062000193565b5081600690805190602001906200010f92919062000193565b50620151808162000121919062000514565b426200012e9190620004b7565b600a819055508473ffffffffffffffffffffffffffffffffffffffff167f802850d1fc951145cd3466e518077f136692705e2164472cd89c3b1c9618cdf38585856040516200018093929190620003e9565b60405180910390a25050505050620006f1565b828054620001a190620005e9565b90600052602060002090601f016020900481019282620001c5576000855562000211565b82601f10620001e057805160ff191683800117855562000211565b8280016001018555821562000211579182015b8281111562000210578251825591602001919060010190620001f3565b5b50905062000220919062000224565b5090565b5b808211156200023f57600081600090555060010162000225565b5090565b60006200025a620002548462000468565b62000434565b9050828152602081018484840111156200027357600080fd5b62000280848285620005b3565b509392505050565b6000815190506200029981620006bd565b92915050565b600082601f830112620002b157600080fd5b8151620002c384826020860162000243565b91505092915050565b600081519050620002dd81620006d7565b92915050565b600080600080600060a08688031215620002fc57600080fd5b60006200030c8882890162000288565b95505060206200031f88828901620002cc565b945050604086015167ffffffffffffffff8111156200033d57600080fd5b6200034b888289016200029f565b935050606086015167ffffffffffffffff8111156200036957600080fd5b62000377888289016200029f565b92505060806200038a88828901620002cc565b9150509295509295909350565b6000620003a4826200049b565b620003b08185620004a6565b9350620003c2818560208601620005b3565b620003cd81620006ac565b840191505092915050565b620003e381620005a9565b82525050565b6000606082019050620004006000830186620003d8565b818103602083015262000414818562000397565b905081810360408301526200042a818462000397565b9050949350505050565b6000604051905081810181811067ffffffffffffffff821117156200045e576200045d6200067d565b5b8060405250919050565b600067ffffffffffffffff8211156200048657620004856200067d565b5b601f19601f8301169050602081019050919050565b600081519050919050565b600082825260208201905092915050565b6000620004c482620005a9565b9150620004d183620005a9565b9250827fffffffffffffffffffffffffffffffffffffffffffffffffffffffffffffffff038211156200050957620005086200061f565b5b828201905092915050565b60006200052182620005a9565b91506200052e83620005a9565b9250817fffffffffffffffffffffffffffffffffffffffffffffffffffffffffffffffff04831182151516156200056a57620005696200061f565b5b828202905092915050565b6000620005828262000589565b9050919050565b600073ffffffffffffffffffffffffffffffffffffffff82169050919050565b6000819050919050565b60005b83811015620005d3578082015181840152602081019050620005b6565b83811115620005e3576000848401525b50505050565b600060028204905060018216806200060257607f821691505b602082108114156200061957620006186200064e565b5b50919050565b7f4e487b7100000000000000000000000000000000000000000000000000000000600052601160045260246000fd5b7f4e487b7100000000000000000000000000000000000000000000000000000000600052602260045260246000fd5b7f4e487b7100000000000000000000000000000000000000000000000000000000600052604160045260246000fd5b6000601f19601f8301169050919050565b620006c88162000575565b8114620006d457600080fd5b50565b620006e281620005a9565b8114620006ee57600080fd5b50565b6133a780620007016000396000f3fe6080604052600436106101855760003560e01c80636f7bc9be116100d1578063b57410dc1161008a578063c962315911610064578063c96231591461059a578063d547741f146105c5578063e8b5e51f146105ee578063f441b1c8146105f85761018f565b8063b57410dc1461051e578063c19d93fb1461053c578063c3726c3b146105675761018f565b80636f7bc9be146103e257806376082a5e1461041f57806381d12c581461044a5780638da5cb5b1461048b57806391d14854146104b6578063a217fddf146104f35761018f565b806329dcb0cf1161013e5780632f2ff15d116101185780632f2ff15d1461032857806336568abe146103515780634a19b4301461037a5780635f75fae9146103a55761018f565b806329dcb0cf146102b65780632a646054146102e15780632e1a7d4d1461030c5761018f565b80630121b93f1461019457806301ffc9a7146101bd5780630785001c146101fa57806312205b2f14610225578063248a9ca31461024e578063298633be1461028b5761018f565b3661018f57600080fd5b600080fd5b3480156101a057600080fd5b506101bb60048036038101906101b69190612554565b610623565b005b3480156101c957600080fd5b506101e460048036038101906101df919061252b565b6108ff565b6040516101f19190612c81565b60405180910390f35b34801561020657600080fd5b5061020f610979565b60405161021c9190612ed4565b60405180910390f35b34801561023157600080fd5b5061024c6004803603810190610247919061257d565b61097f565b005b34801561025a57600080fd5b50610275600480360381019061027091906124c6565b610bdf565b6040516102829190612c9c565b60405180910390f35b34801561029757600080fd5b506102a0610bff565b6040516102ad9190612ed4565b60405180910390f35b3480156102c257600080fd5b506102cb610c05565b6040516102d89190612ed4565b60405180910390f35b3480156102ed57600080fd5b506102f6610c0b565b6040516103039190612ed4565b60405180910390f35b61032660048036038101906103219190612554565b610c11565b005b34801561033457600080fd5b5061034f600480360381019061034a91906124ef565b611100565b005b34801561035d57600080fd5b50610378600480360381019061037391906124ef565b611129565b005b34801561038657600080fd5b5061038f6111ac565b60405161039c9190612cd2565b60405180910390f35b3480156103b157600080fd5b506103cc60048036038101906103c7919061249d565b61123a565b6040516103d99190612ed4565b60405180910390f35b3480156103ee57600080fd5b506104096004803603810190610404919061249d565b611283565b6040516104169190612ed4565b60405180910390f35b34801561042b57600080fd5b5061043461129b565b6040516104419190612c9c565b60405180910390f35b34801561045657600080fd5b50610471600480360381019061046c9190612554565b6112bf565b604051610482959493929190612eef565b60405180910390f35b34801561049757600080fd5b506104a06113ba565b6040516104ad9190612bcb565b60405180910390f35b3480156104c257600080fd5b506104dd60048036038101906104d891906124ef565b6113e0565b6040516104ea9190612c81565b60405180910390f35b3480156104ff57600080fd5b5061050861144b565b6040516105159190612c9c565b60405180910390f35b610526611452565b6040516105339190612c81565b60405180910390f35b34801561054857600080fd5b506105516116ce565b60405161055e9190612cb7565b60405180910390f35b34801561057357600080fd5b5061057c6116e1565b60405161059199989796959493929190612be6565b60405180910390f35b3480156105a657600080fd5b506105af611864565b6040516105bc9190612cd2565b60405180910390f35b3480156105d157600080fd5b506105ec60048036038101906105e791906124ef565b6118f2565b005b6105f661191b565b005b34801561060457600080fd5b5061060d611b15565b60405161061a9190612ed4565b60405180910390f35b6001600281111561065d577f4e487b7100000000000000000000000000000000000000000000000000000000600052602160045260246000fd5b600860009054906101000a900460ff1660028111156106a5577f4e487b7100000000000000000000000000000000000000000000000000000000600052602160045260246000fd5b146106e5576040517f08c379a00000000000000000000000000000000000000000000000000000000081526004016106dc90612df4565b60405180910390fd5b61070f7fb165298935924f540e4181c03493a5d686c54a0aaeb3f6216de85b7ffbba7738336113e0565b61074e576040517f08c379a000000000000000000000000000000000000000000000000000000000815260040161074590612eb4565b60405180910390fd5b6000600b828154811061078a577f4e487b7100000000000000000000000000000000000000000000000000000000600052603260045260246000fd5b90600052602060002090600602019050600015158160050160009054906101000a900460ff161515146107f2576040517f08c379a00000000000000000000000000000000000000000000000000000000081526004016107e990612e54565b60405180910390fd5b600015158160040160003373ffffffffffffffffffffffffffffffffffffffff1673ffffffffffffffffffffffffffffffffffffffff16815260200190815260200160002060009054906101000a900460ff16151514610887576040517f08c379a000000000000000000000000000000000000000000000000000000000815260040161087e90612d14565b60405180910390fd5b60018160040160003373ffffffffffffffffffffffffffffffffffffffff1673ffffffffffffffffffffffffffffffffffffffff16815260200190815260200160002060006101000a81548160ff0219169083151502179055508060030160008154809291906108f6906131eb565b91905055505050565b60007f7965db0b000000000000000000000000000000000000000000000000000000007bffffffffffffffffffffffffffffffffffffffffffffffffffffffff1916827bffffffffffffffffffffffffffffffffffffffffffffffffffffffff19161480610972575061097182611b1b565b5b9050919050565b60025481565b600460009054906101000a900473ffffffffffffffffffffffffffffffffffffffff1673ffffffffffffffffffffffffffffffffffffffff163373ffffffffffffffffffffffffffffffffffffffff1614610a0f576040517f08c379a0000000000000000000000000000000000000000000000000000000008152600401610a0690612dd4565b60405180910390fd5b60016002811115610a49577f4e487b7100000000000000000000000000000000000000000000000000000000600052602160045260246000fd5b600860009054906101000a900460ff166002811115610a91577f4e487b7100000000000000000000000000000000000000000000000000000000600052602160045260246000fd5b14610ad1576040517f08c379a0000000000000000000000000000000000000000000000000000000008152600401610ac890612df4565b60405180910390fd5b826003541015610b16576040517f08c379a0000000000000000000000000000000000000000000000000000000008152600401610b0d90612d94565b60405180910390fd5b6000600b6001816001815401808255809150500390600052602060002090600602019050338160010160006101000a81548173ffffffffffffffffffffffffffffffffffffffff021916908373ffffffffffffffffffffffffffffffffffffffff1602179055508381600001819055508282826002019190610b9992919061235c565b506000816003018190555060008160050160006101000a81548160ff021916908315150217905550600c6000815480929190610bd4906131eb565b919050555050505050565b600060016000838152602001908152602001600020600101549050919050565b60095481565b600a5481565b600c5481565b600460009054906101000a900473ffffffffffffffffffffffffffffffffffffffff1673ffffffffffffffffffffffffffffffffffffffff163373ffffffffffffffffffffffffffffffffffffffff1614610ca1576040517f08c379a0000000000000000000000000000000000000000000000000000000008152600401610c9890612dd4565b60405180910390fd5b60026000541415610ce7576040517f08c379a0000000000000000000000000000000000000000000000000000000008152600401610cde90612e34565b60405180910390fd5b600260008190555060016002811115610d29577f4e487b7100000000000000000000000000000000000000000000000000000000600052602160045260246000fd5b600860009054906101000a900460ff166002811115610d71577f4e487b7100000000000000000000000000000000000000000000000000000000600052602160045260246000fd5b14610db1576040517f08c379a0000000000000000000000000000000000000000000000000000000008152600401610da890612df4565b60405180910390fd5b6000600b8281548110610ded577f4e487b7100000000000000000000000000000000000000000000000000000000600052603260045260246000fd5b90600052602060002090600602019050600015158160050160009054906101000a900460ff16151514610e55576040517f08c379a0000000000000000000000000000000000000000000000000000000008152600401610e4c90612e54565b60405180910390fd5b6002600954610e649190612ffa565b816003015410158015610e8b57506001816003015414158015610e8957506001600954145b155b610eca576040517f08c379a0000000000000000000000000000000000000000000000000000000008152600401610ec190612e94565b60405180910390fd5b610ee38160000154600354611b8590919063ffffffff16565b60038190555060006003541015610f2f576040517f08c379a0000000000000000000000000000000000000000000000000000000008152600401610f2690612e14565b60405180910390fd5b60008160010160009054906101000a900473ffffffffffffffffffffffffffffffffffffffff1673ffffffffffffffffffffffffffffffffffffffff168260000154604051610f7d90612b7c565b60006040518083038185875af1925050503d8060008114610fba576040519150601f19603f3d011682016040523d82523d6000602084013e610fbf565b606091505b5050905080611003576040517f08c379a0000000000000000000000000000000000000000000000000000000008152600401610ffa90612db4565b60405180910390fd5b60018260050160006101000a81548160ff0219169083151502179055506000600354141561107d576002600860006101000a81548160ff02191690836002811115611077577f4e487b7100000000000000000000000000000000000000000000000000000000600052602160045260246000fd5b02179055505b8160010160009054906101000a900473ffffffffffffffffffffffffffffffffffffffff1673ffffffffffffffffffffffffffffffffffffffff167f2089bb15d61bcd4b733abef2aeecdd97c9416dadbe007e9c4d8ce48dbec86c3483600001546040516110eb9190612ed4565b60405180910390a25050600160008190555050565b61110982610bdf565b61111a81611115611b9b565b611ba3565b6111248383611c40565b505050565b611131611b9b565b73ffffffffffffffffffffffffffffffffffffffff168173ffffffffffffffffffffffffffffffffffffffff161461119e576040517f08c379a000000000000000000000000000000000000000000000000000000000815260040161119590612e74565b60405180910390fd5b6111a88282611d20565b5050565b600580546111b9906131b9565b80601f01602080910402602001604051908101604052809291908181526020018280546111e5906131b9565b80156112325780601f1061120757610100808354040283529160200191611232565b820191906000526020600020905b81548152906001019060200180831161121557829003601f168201915b505050505081565b6000600760008373ffffffffffffffffffffffffffffffffffffffff1673ffffffffffffffffffffffffffffffffffffffff168152602001908152602001600020549050919050565b60076020528060005260406000206000915090505481565b7fb165298935924f540e4181c03493a5d686c54a0aaeb3f6216de85b7ffbba773881565b600b81815481106112cf57600080fd5b90600052602060002090600602016000915090508060000154908060010160009054906101000a900473ffffffffffffffffffffffffffffffffffffffff169080600201805461131e906131b9565b80601f016020809104026020016040519081016040528092919081815260200182805461134a906131b9565b80156113975780601f1061136c57610100808354040283529160200191611397565b820191906000526020600020905b81548152906001019060200180831161137a57829003601f168201915b5050505050908060030154908060050160009054906101000a900460ff16905085565b600460009054906101000a900473ffffffffffffffffffffffffffffffffffffffff1681565b60006001600084815260200190815260200160002060000160008373ffffffffffffffffffffffffffffffffffffffff1673ffffffffffffffffffffffffffffffffffffffff16815260200190815260200160002060009054906101000a900460ff16905092915050565b6000801b81565b600061147e7fb165298935924f540e4181c03493a5d686c54a0aaeb3f6216de85b7ffbba7738336113e0565b6114bd576040517f08c379a00000000000000000000000000000000000000000000000000000000081526004016114b490612eb4565b60405180910390fd5b600a54421015611502576040517f08c379a00000000000000000000000000000000000000000000000000000000081526004016114f990612d34565b60405180910390fd5b60026000541415611548576040517f08c379a000000000000000000000000000000000000000000000000000000000815260040161153f90612e34565b60405180910390fd5b60026000819055506000600760003373ffffffffffffffffffffffffffffffffffffffff1673ffffffffffffffffffffffffffffffffffffffff16815260200190815260200160002054905060008114156115a257600080fd5b6000600760003373ffffffffffffffffffffffffffffffffffffffff1673ffffffffffffffffffffffffffffffffffffffff1681526020019081526020016000208190555060003373ffffffffffffffffffffffffffffffffffffffff168260405161160d90612b7c565b60006040518083038185875af1925050503d806000811461164a576040519150601f19603f3d011682016040523d82523d6000602084013e61164f565b606091505b5050905080156116795761166e82600354611b8590919063ffffffff16565b6003819055506116be565b81600760003373ffffffffffffffffffffffffffffffffffffffff1673ffffffffffffffffffffffffffffffffffffffff168152602001908152602001600020819055505b8092505050600160008190555090565b600860009054906101000a900460ff1681565b6000606080600080600080600080600460009054906101000a900473ffffffffffffffffffffffffffffffffffffffff16985060058054611721906131b9565b80601f016020809104026020016040519081016040528092919081815260200182805461174d906131b9565b801561179a5780601f1061176f5761010080835404028352916020019161179a565b820191906000526020600020905b81548152906001019060200180831161177d57829003601f168201915b50505050509750600860009054906101000a900460ff169550600680546117c0906131b9565b80601f01602080910402602001604051908101604052809291908181526020018280546117ec906131b9565b80156118395780601f1061180e57610100808354040283529160200191611839565b820191906000526020600020905b81548152906001019060200180831161181c57829003601f168201915b5050505050965060025494506003549350600a5492506009549150600c549050909192939495969798565b60068054611871906131b9565b80601f016020809104026020016040519081016040528092919081815260200182805461189d906131b9565b80156118ea5780601f106118bf576101008083540402835291602001916118ea565b820191906000526020600020905b8154815290600101906020018083116118cd57829003601f168201915b505050505081565b6118fb82610bdf565b61190c81611907611b9b565b611ba3565b6119168383611d20565b505050565b60006002811115611955577f4e487b7100000000000000000000000000000000000000000000000000000000600052602160045260246000fd5b600860009054906101000a900460ff16600281111561199d577f4e487b7100000000000000000000000000000000000000000000000000000000600052602160045260246000fd5b1480156119ab5750600a5442105b6119ea576040517f08c379a00000000000000000000000000000000000000000000000000000000081526004016119e190612d74565b60405180910390fd5b600460009054906101000a900473ffffffffffffffffffffffffffffffffffffffff1673ffffffffffffffffffffffffffffffffffffffff163373ffffffffffffffffffffffffffffffffffffffff161415611a4557600080fd5b611a4d611e02565b611a573334611ed4565b611a6c34600354611f6d90919063ffffffff16565b6003819055506002546003541115611ab9576040517f08c379a0000000000000000000000000000000000000000000000000000000008152600401611ab090612d54565b60405180910390fd5b3373ffffffffffffffffffffffffffffffffffffffff167fcda619981924cb5cfd654b61cf0f4ef8299cee9f2f1e9cb23774af6f11a7f90534600354604051611b03929190612f49565b60405180910390a2611b13611f83565b565b60035481565b60007f01ffc9a7000000000000000000000000000000000000000000000000000000007bffffffffffffffffffffffffffffffffffffffffffffffffffffffff1916827bffffffffffffffffffffffffffffffffffffffffffffffffffffffff1916149050919050565b60008183611b939190613085565b905092915050565b600033905090565b611bad82826113e0565b611c3c57611bd28173ffffffffffffffffffffffffffffffffffffffff166014612054565b611be08360001c6020612054565b604051602001611bf1929190612b91565b6040516020818303038152906040526040517f08c379a0000000000000000000000000000000000000000000000000000000008152600401611c339190612cd2565b60405180910390fd5b5050565b611c4a82826113e0565b611d1c57600180600084815260200190815260200160002060000160008373ffffffffffffffffffffffffffffffffffffffff1673ffffffffffffffffffffffffffffffffffffffff16815260200190815260200160002060006101000a81548160ff021916908315150217905550611cc1611b9b565b73ffffffffffffffffffffffffffffffffffffffff168173ffffffffffffffffffffffffffffffffffffffff16837f2f8788117e7eff1d82e926ec794901d17c78024a50270940304540a733656f0d60405160405180910390a45b5050565b611d2a82826113e0565b15611dfe5760006001600084815260200190815260200160002060000160008373ffffffffffffffffffffffffffffffffffffffff1673ffffffffffffffffffffffffffffffffffffffff16815260200190815260200160002060006101000a81548160ff021916908315150217905550611da3611b9b565b73ffffffffffffffffffffffffffffffffffffffff168173ffffffffffffffffffffffffffffffffffffffff16837ff6391f5c32d9c69d2a47ea670b442974b53935d1edc7fd64eb21e047a839171b60405160405180910390a45b5050565b6000600760003373ffffffffffffffffffffffffffffffffffffffff1673ffffffffffffffffffffffffffffffffffffffff168152602001908152602001600020541415611ed257600160096000828254611e5d9190612fa4565b92505081905550611e8e7fb165298935924f540e4181c03493a5d686c54a0aaeb3f6216de85b7ffbba77383361234e565b3373ffffffffffffffffffffffffffffffffffffffff167f62e6a5118be03f9bfedb79b0ed7ed75ee4a9e15fc4c69d2c4976acde26fa2d5f60405160405180910390a25b565b611f2681600760008573ffffffffffffffffffffffffffffffffffffffff1673ffffffffffffffffffffffffffffffffffffffff16815260200190815260200160002054611f6d90919063ffffffff16565b600760008473ffffffffffffffffffffffffffffffffffffffff1673ffffffffffffffffffffffffffffffffffffffff168152602001908152602001600020819055505050565b60008183611f7b9190612fa4565b905092915050565b60025460035410612052576001600860006101000a81548160ff02191690836002811115611fda577f4e487b7100000000000000000000000000000000000000000000000000000000600052602160045260246000fd5b0217905550600460009054906101000a900473ffffffffffffffffffffffffffffffffffffffff1673ffffffffffffffffffffffffffffffffffffffff167f5d69eee4b16dceba60f559d3c6b9f96c3f7c7342fb1d06c1d2f7e14f8120c4df6003546040516120499190612ed4565b60405180910390a25b565b606060006002836002612067919061302b565b6120719190612fa4565b67ffffffffffffffff8111156120b0577f4e487b7100000000000000000000000000000000000000000000000000000000600052604160045260246000fd5b6040519080825280601f01601f1916602001820160405280156120e25781602001600182028036833780820191505090505b5090507f300000000000000000000000000000000000000000000000000000000000000081600081518110612140577f4e487b7100000000000000000000000000000000000000000000000000000000600052603260045260246000fd5b60200101907effffffffffffffffffffffffffffffffffffffffffffffffffffffffffffff1916908160001a9053507f7800000000000000000000000000000000000000000000000000000000000000816001815181106121ca577f4e487b7100000000000000000000000000000000000000000000000000000000600052603260045260246000fd5b60200101907effffffffffffffffffffffffffffffffffffffffffffffffffffffffffffff1916908160001a9053506000600184600261220a919061302b565b6122149190612fa4565b90505b6001811115612300577f3031323334353637383961626364656600000000000000000000000000000000600f86166010811061227c577f4e487b7100000000000000000000000000000000000000000000000000000000600052603260045260246000fd5b1a60f81b8282815181106122b9577f4e487b7100000000000000000000000000000000000000000000000000000000600052603260045260246000fd5b60200101907effffffffffffffffffffffffffffffffffffffffffffffffffffffffffffff1916908160001a905350600485901c9450806122f99061318f565b9050612217565b5060008414612344576040517f08c379a000000000000000000000000000000000000000000000000000000000815260040161233b90612cf4565b60405180910390fd5b8091505092915050565b6123588282611c40565b5050565b828054612368906131b9565b90600052602060002090601f01602090048101928261238a57600085556123d1565b82601f106123a357803560ff19168380011785556123d1565b828001600101855582156123d1579182015b828111156123d05782358255916020019190600101906123b5565b5b5090506123de91906123e2565b5090565b5b808211156123fb5760008160009055506001016123e3565b5090565b60008135905061240e81613315565b92915050565b6000813590506124238161332c565b92915050565b60008135905061243881613343565b92915050565b60008083601f84011261245057600080fd5b8235905067ffffffffffffffff81111561246957600080fd5b60208301915083600182028301111561248157600080fd5b9250929050565b6000813590506124978161335a565b92915050565b6000602082840312156124af57600080fd5b60006124bd848285016123ff565b91505092915050565b6000602082840312156124d857600080fd5b60006124e684828501612414565b91505092915050565b6000806040838503121561250257600080fd5b600061251085828601612414565b9250506020612521858286016123ff565b9150509250929050565b60006020828403121561253d57600080fd5b600061254b84828501612429565b91505092915050565b60006020828403121561256657600080fd5b600061257484828501612488565b91505092915050565b60008060006040848603121561259257600080fd5b60006125a086828701612488565b935050602084013567ffffffffffffffff8111156125bd57600080fd5b6125c98682870161243e565b92509250509250925092565b6125de816130b9565b82525050565b6125ed816130cb565b82525050565b6125fc816130d7565b82525050565b61260b8161314a565b82525050565b600061261c82612f72565b6126268185612f88565b935061263681856020860161315c565b61263f816132f0565b840191505092915050565b600061265582612f72565b61265f8185612f99565b935061266f81856020860161315c565b80840191505092915050565b6000612688602083612f88565b91507f537472696e67733a20686578206c656e67746820696e73756666696369656e746000830152602082019050919050565b60006126c8601283612f88565b91507f5573657220616c726561647920766f74656400000000000000000000000000006000830152602082019050919050565b6000612708601683612f88565b91507f566973696f6e20686173206e6f742065787069726564000000000000000000006000830152602082019050919050565b6000612748602683612f88565b91507f496e76657374656420616d6f756e74206578636565647320726571756573746560008301527f6420676f616c00000000000000000000000000000000000000000000000000006020830152604082019050919050565b60006127ae601d83612f88565b91507f566973696f6e206973206e6f7420696e20496e766573742053746174650000006000830152602082019050919050565b60006127ee603383612f88565b91507f52657175657374656420616d6f756e742069732067726561746572207468616e60008301527f2074686520617661696c61626c65206f6e652e000000000000000000000000006020830152604082019050919050565b6000612854601583612f88565b91507f57697468647261776e20686173206661696c65642100000000000000000000006000830152602082019050919050565b6000612894602383612f88565b91507f55736572206973206e6f7420746865206f776e6572206f66207468652056697360008301527f696f6e00000000000000000000000000000000000000000000000000000000006020830152604082019050919050565b60006128fa601883612f88565b91507f566973696f6e20686173206e6f7420656e6465642079657400000000000000006000830152602082019050919050565b600061293a600083612f7d565b9150600082019050919050565b6000612954601783612f99565b91507f416363657373436f6e74726f6c3a206163636f756e74200000000000000000006000830152601782019050919050565b6000612994601483612f88565b91507f4e6f7420656e6f75676820616d6f756e742121210000000000000000000000006000830152602082019050919050565b60006129d4601f83612f88565b91507f5265656e7472616e637947756172643a207265656e7472616e742063616c6c006000830152602082019050919050565b6000612a14601883612f88565b91507f5769746864726177616c20616c726561647920646f6e652100000000000000006000830152602082019050919050565b6000612a54601183612f99565b91507f206973206d697373696e6720726f6c65200000000000000000000000000000006000830152601182019050919050565b6000612a94602f83612f88565b91507f416363657373436f6e74726f6c3a2063616e206f6e6c792072656e6f756e636560008301527f20726f6c657320666f722073656c6600000000000000000000000000000000006020830152604082019050919050565b6000612afa601183612f88565b91507f4e6f7420656e6f75676820766f746573210000000000000000000000000000006000830152602082019050919050565b6000612b3a601b83612f88565b91507f446f6573206e6f74206861766520696e766573746f7220726f6c6500000000006000830152602082019050919050565b612b7681613140565b82525050565b6000612b878261292d565b9150819050919050565b6000612b9c82612947565b9150612ba8828561264a565b9150612bb382612a47565b9150612bbf828461264a565b91508190509392505050565b6000602082019050612be060008301846125d5565b92915050565b600061012082019050612bfc600083018c6125d5565b8181036020830152612c0e818b612611565b90508181036040830152612c22818a612611565b9050612c316060830189612602565b612c3e6080830188612b6d565b612c4b60a0830187612b6d565b612c5860c0830186612b6d565b612c6560e0830185612b6d565b612c73610100830184612b6d565b9a9950505050505050505050565b6000602082019050612c9660008301846125e4565b92915050565b6000602082019050612cb160008301846125f3565b92915050565b6000602082019050612ccc6000830184612602565b92915050565b60006020820190508181036000830152612cec8184612611565b905092915050565b60006020820190508181036000830152612d0d8161267b565b9050919050565b60006020820190508181036000830152612d2d816126bb565b9050919050565b60006020820190508181036000830152612d4d816126fb565b9050919050565b60006020820190508181036000830152612d6d8161273b565b9050919050565b60006020820190508181036000830152612d8d816127a1565b9050919050565b60006020820190508181036000830152612dad816127e1565b9050919050565b60006020820190508181036000830152612dcd81612847565b9050919050565b60006020820190508181036000830152612ded81612887565b9050919050565b60006020820190508181036000830152612e0d816128ed565b9050919050565b60006020820190508181036000830152612e2d81612987565b9050919050565b60006020820190508181036000830152612e4d816129c7565b9050919050565b60006020820190508181036000830152612e6d81612a07565b9050919050565b60006020820190508181036000830152612e8d81612a87565b9050919050565b60006020820190508181036000830152612ead81612aed565b9050919050565b60006020820190508181036000830152612ecd81612b2d565b9050919050565b6000602082019050612ee96000830184612b6d565b92915050565b600060a082019050612f046000830188612b6d565b612f1160208301876125d5565b8181036040830152612f238186612611565b9050612f326060830185612b6d565b612f3f60808301846125e4565b9695505050505050565b6000604082019050612f5e6000830185612b6d565b612f6b6020830184612b6d565b9392505050565b600081519050919050565b600081905092915050565b600082825260208201905092915050565b600081905092915050565b6000612faf82613140565b9150612fba83613140565b9250827fffffffffffffffffffffffffffffffffffffffffffffffffffffffffffffffff03821115612fef57612fee613234565b5b828201905092915050565b600061300582613140565b915061301083613140565b9250826130205761301f613263565b5b828204905092915050565b600061303682613140565b915061304183613140565b9250817fffffffffffffffffffffffffffffffffffffffffffffffffffffffffffffffff048311821515161561307a57613079613234565b5b828202905092915050565b600061309082613140565b915061309b83613140565b9250828210156130ae576130ad613234565b5b828203905092915050565b60006130c482613120565b9050919050565b60008115159050919050565b6000819050919050565b60007fffffffff0000000000000000000000000000000000000000000000000000000082169050919050565b600081905061311b82613301565b919050565b600073ffffffffffffffffffffffffffffffffffffffff82169050919050565b6000819050919050565b60006131558261310d565b9050919050565b60005b8381101561317a57808201518184015260208101905061315f565b83811115613189576000848401525b50505050565b600061319a82613140565b915060008214156131ae576131ad613234565b5b600182039050919050565b600060028204905060018216806131d157607f821691505b602082108114156131e5576131e46132c1565b5b50919050565b60006131f682613140565b91507fffffffffffffffffffffffffffffffffffffffffffffffffffffffffffffffff82141561322957613228613234565b5b600182019050919050565b7f4e487b7100000000000000000000000000000000000000000000000000000000600052601160045260246000fd5b7f4e487b7100000000000000000000000000000000000000000000000000000000600052601260045260246000fd5b7f4e487b7100000000000000000000000000000000000000000000000000000000600052602160045260246000fd5b7f4e487b7100000000000000000000000000000000000000000000000000000000600052602260045260246000fd5b6000601f19601f8301169050919050565b6003811061331257613311613292565b5b50565b61331e816130b9565b811461332957600080fd5b50565b613335816130d7565b811461334057600080fd5b50565b61334c816130e1565b811461335757600080fd5b50565b61336381613140565b811461336e57600080fd5b5056fea264697066735822122037edebc02a35587fe94547a5e8d3e5478329c078e319d70c03962a19374a79d664736f6c63430008000033",
  "immutableReferences": {},
  "source": "// SPDX-License-Identifier: MIT\r\npragma solidity 0.8.0;\r\n\r\nimport \"@openzeppelin/contracts/utils/math/SafeMath.sol\";\r\nimport \"@openzeppelin/contracts/access/AccessControl.sol\";\r\nimport \"@openzeppelin/contracts/security/ReentrancyGuard.sol\";\r\n\r\n/// @title A Contract for making Visions\r\n/// @author K. Koliopoulou\r\n/// @notice You can use this contract to construct new Visions\r\ncontract Etherpreneur {\r\n    address public owner = msg.sender;\r\n    Vision[] private visions;\r\n\r\n    event NewVisionCreated(\r\n        address _visionAddress,\r\n        address _owner,\r\n        string _type,\r\n        string _desciption,\r\n        uint _amountGoal\r\n    );\r\n\r\n    function createVision(string calldata visionType, string calldata visionDescr, uint amountGoal, uint deadline) external {\r\n\r\n        Vision vision = new Vision(msg.sender, amountGoal, visionType, visionDescr, deadline);\r\n\r\n        visions.push(vision);\r\n\r\n        emit NewVisionCreated(\r\n            address(vision),\r\n            msg.sender,\r\n            visionType,\r\n            visionDescr,\r\n            amountGoal\r\n        );\r\n    }\r\n\r\n    function getAllVisions() external view returns (Vision[] memory) {\r\n        return visions;\r\n    }\r\n}\r\n\r\n/// @title A Contract that depicts a Vision with its info and functions for investments, payments, votes etc\r\ncontract Vision is ReentrancyGuard, AccessControl {\r\n    using SafeMath for uint;\r\n    bytes32 public constant INVESTOR_ROLE = keccak256(\"INVESTOR_ROLE\");\r\n\r\n    enum State {\r\n        INVEST,\r\n        ENDED,\r\n        PAID\r\n    }\r\n    uint public amountGoal;\r\n    uint public currentAmount;\r\n    address public owner;\r\n    string public visionType;\r\n    string public visionDescr;\r\n    mapping(address => uint) public investors;\r\n    State public state = State.INVEST;\r\n    uint public sumOfInvestors;\r\n    uint public deadline;\r\n\r\n    struct WithdrawReq {\r\n        uint withdrawAmount;\r\n        address receiver;\r\n        string withdrawalReason;\r\n        uint votes;\r\n        mapping(address => bool) votedInvestors;\r\n        bool isDone;\r\n    }\r\n\r\n    WithdrawReq[] public requests;\r\n    uint public idxReq = 0;\r\n\r\n\r\n    modifier onlyOwner(){\r\n        require(msg.sender == owner, \"User is not the owner of the Vision\");\r\n        _;\r\n    }\r\n\r\n    modifier canInvest(){\r\n        require(state == State.INVEST && block.timestamp < deadline, \"Vision is not in Invest State\");\r\n        _;\r\n    }\r\n\r\n    modifier hasEnded(){\r\n        require(state == State.ENDED, \"Vision has not ended yet\");\r\n        _;\r\n    }\r\n\r\n    modifier hasExpired(){\r\n        require(block.timestamp >= deadline, \"Vision has not expired\");\r\n        _;\r\n    }\r\n\r\n    modifier goalReached(){\r\n        require(currentAmount >= amountGoal, \"Goal has not been reached\");\r\n        _;\r\n    }\r\n\r\n    modifier hasInvestorRole(){\r\n        require(hasRole(INVESTOR_ROLE, msg.sender), \"Does not have investor role\");\r\n        _;\r\n    }\r\n\r\n    event VisionCreated(address indexed owner, uint amountGoal, string visionType, string visionDescr);\r\n    event InvestorAdded(address indexed investor);\r\n    event AmountReceived(address indexed _from, uint receivedAmount, uint currentAmount);\r\n    event AmountSent(address indexed _from, uint _amount);\r\n    event WithdrawnSuccess(address indexed _from, uint _amount);\r\n    event GoalAchieved(address indexed owner, uint currentAmount);\r\n\r\n    constructor(address _owner, uint _amountGoal, string memory _type, string memory _descr, uint256 numOfDays) {\r\n        owner = _owner;\r\n        amountGoal = _amountGoal;\r\n        visionType = _type;\r\n        visionDescr = _descr;\r\n        deadline = block.timestamp + (numOfDays * 1 days);\r\n        emit VisionCreated(_owner, _amountGoal, _type, _descr);\r\n    }\r\n\r\n    /// @notice Invest amount to a Vision\r\n    function invest() external canInvest payable {\r\n        require(msg.sender != owner);\r\n        addInvestor();\r\n        allowForPull(msg.sender, msg.value);\r\n        currentAmount = currentAmount.add(msg.value);\r\n        require(currentAmount <= amountGoal, \"Invested amount exceeds requested goal\");\r\n        emit AmountReceived(msg.sender, msg.value, currentAmount);\r\n        checkVisionState();\r\n    }\r\n\r\n    /// @notice Checks if Vision's goal is reached\r\n    function checkVisionState() private {\r\n        if (currentAmount >= amountGoal) {\r\n            state = State.ENDED;\r\n            emit GoalAchieved(owner, currentAmount);\r\n        }\r\n    }\r\n\r\n    /// @notice Adds available amount per investor, pull over push pattern\r\n    /// @param receiver the investor address\r\n    /// @param amount the amount could be withdrawn\r\n    function allowForPull(address receiver, uint amount) private {\r\n        investors[receiver] = investors[receiver].add(amount);\r\n    }\r\n\r\n    /// @notice Investors can withdraw invested amount if the Vision is expired\r\n    function withdrawInvestedAmount() public hasInvestorRole hasExpired payable nonReentrant returns (bool){// TODO: Add\r\n        uint amount = investors[msg.sender];\r\n\r\n        require(amount != 0);\r\n        investors[msg.sender] = 0;\r\n\r\n        (bool success,) = msg.sender.call{value : amount}(\"\");\r\n        if (success) {\r\n            currentAmount = currentAmount.sub(amount);\r\n        } else {\r\n            investors[msg.sender] = amount;\r\n        }\r\n        return success;\r\n    }\r\n\r\n    /// @notice Returns the amount invested from the given address\r\n    /// @param investor the investor's address\r\n    function getInvestorAmount(address investor) public view returns (uint) {\r\n        return investors[investor];\r\n    }\r\n\r\n    /// @notice Add investor\r\n    /// @dev Before adding, checks if already investor exists\r\n    function addInvestor() private {\r\n        if (investors[msg.sender] == 0) {//TODO:Possible modifier\r\n            sumOfInvestors += 1;\r\n            _setupRole(INVESTOR_ROLE, msg.sender);\r\n            emit InvestorAdded(msg.sender);\r\n        }\r\n    }\r\n\r\n    /// @notice Creates a withdraw request\r\n    /// @param _withdrawAmount the amount to be withdrawn\r\n    /// @param _withdrawalReason the reason of the withdrawal\r\n    /// @dev Before adding the new request checks if there is enough amount to request for\r\n    function createWithdrawRequest(uint _withdrawAmount, string calldata _withdrawalReason) public onlyOwner hasEnded {\r\n        require(currentAmount >= _withdrawAmount, 'Requested amount is greater than the available one.');\r\n        WithdrawReq storage newReq = requests.push();\r\n        newReq.receiver = msg.sender;\r\n        newReq.withdrawAmount = _withdrawAmount;\r\n        newReq.withdrawalReason = _withdrawalReason;\r\n        newReq.votes = 0;\r\n        newReq.isDone = false;\r\n        idxReq++;\r\n    }\r\n\r\n    /// @notice Vote for a withdrawal request\r\n    /// @param idx the index of the request\r\n    /// @dev Before adding the vote, checks if the request is already done and if the investor has already voted\r\n    function vote(uint idx) public hasEnded hasInvestorRole {\r\n        WithdrawReq storage withdrawReq = requests[idx];\r\n        require(withdrawReq.isDone == false, \"Withdrawal already done!\");\r\n        require(withdrawReq.votedInvestors[msg.sender] == false, \"User already voted\");\r\n        withdrawReq.votedInvestors[msg.sender] = true;\r\n        withdrawReq.votes++;\r\n    }\r\n\r\n    /// @notice Send the amount requested to the receiver\r\n    /// @param idx the index of the request\r\n    /// @dev Before transferring the amount checks if the withdrawal is already done, if the votes are enough and if the\r\n    /// current amount is enough. The require given for the votes part, handles also the special case of having only\r\n    /// 1 investor.\r\n    function withdraw(uint idx) public onlyOwner payable nonReentrant hasEnded {\r\n        WithdrawReq storage req = requests[idx];\r\n        require(req.isDone == false, \"Withdrawal already done!\");\r\n        require(req.votes >= sumOfInvestors / 2 && !(req.votes != 1 && sumOfInvestors == 1), \"Not enough votes!\");\r\n        currentAmount = currentAmount.sub(req.withdrawAmount);\r\n        require(currentAmount >= 0, \"Not enough amount!!!\");\r\n        (bool success,) = req.receiver.call{value : req.withdrawAmount}(\"\");\r\n        require(success, \"Withdrawn has failed!\");\r\n        req.isDone = true;\r\n        if (currentAmount == 0) state = State.PAID;\r\n        emit WithdrawnSuccess(req.receiver, req.withdrawAmount);\r\n    }\r\n\r\n    // @notice Get vision data\r\n    function getVision() public view returns\r\n    (\r\n        address _owner,\r\n        string memory _type,\r\n        string memory _description,\r\n        State _currentState,\r\n        uint256 _goal,\r\n        uint256 _currentAmount,\r\n        uint256 _deadline,\r\n        uint _sumOfInvestors,\r\n        uint _idxReq\r\n    ) {\r\n        _owner = owner;\r\n        _type = visionType;\r\n        _currentState = state;\r\n        _description = visionDescr;\r\n        _goal = amountGoal;\r\n        _currentAmount = currentAmount;\r\n        _deadline = deadline;\r\n        _sumOfInvestors = sumOfInvestors;\r\n        _idxReq = idxReq;\r\n    }\r\n\r\n    receive() external payable {\r\n        revert();\r\n    }\r\n\r\n    fallback() external payable {\r\n        revert();\r\n    }\r\n}\r\n",
  "sourcePath": "/mnt/c/Users/kwnst/WebstormProjects/blockchain-developer-bootcamp-final-project_v2/contracts/Etherpreneur.sol",
  "compiler": {
    "name": "solc",
    "version": "0.8.0+commit.c7dfd78e.Emscripten.clang"
  },
  "schemaVersion": "3.4.3",
  "updatedAt": "2021-11-21T17:58:46.187Z",
  "devdoc": {
    "kind": "dev",
    "methods": {
      "createWithdrawRequest(uint256,string)": {
        "details": "Before adding the new request checks if there is enough amount to request for",
        "params": {
          "_withdrawAmount": "the amount to be withdrawn",
          "_withdrawalReason": "the reason of the withdrawal"
        }
      },
      "getInvestorAmount(address)": {
        "params": {
          "investor": "the investor's address"
        }
      },
      "getRoleAdmin(bytes32)": {
        "details": "Returns the admin role that controls `role`. See {grantRole} and {revokeRole}. To change a role's admin, use {_setRoleAdmin}."
      },
      "grantRole(bytes32,address)": {
        "details": "Grants `role` to `account`. If `account` had not been already granted `role`, emits a {RoleGranted} event. Requirements: - the caller must have ``role``'s admin role."
      },
      "hasRole(bytes32,address)": {
        "details": "Returns `true` if `account` has been granted `role`."
      },
      "renounceRole(bytes32,address)": {
        "details": "Revokes `role` from the calling account. Roles are often managed via {grantRole} and {revokeRole}: this function's purpose is to provide a mechanism for accounts to lose their privileges if they are compromised (such as when a trusted device is misplaced). If the calling account had been granted `role`, emits a {RoleRevoked} event. Requirements: - the caller must be `account`."
      },
      "revokeRole(bytes32,address)": {
        "details": "Revokes `role` from `account`. If `account` had been granted `role`, emits a {RoleRevoked} event. Requirements: - the caller must have ``role``'s admin role."
      },
      "supportsInterface(bytes4)": {
        "details": "See {IERC165-supportsInterface}."
      },
      "vote(uint256)": {
        "details": "Before adding the vote, checks if the request is already done and if the investor has already voted",
        "params": {
          "idx": "the index of the request"
        }
      },
      "withdraw(uint256)": {
        "details": "Before transferring the amount checks if the withdrawal is already done, if the votes are enough and if the current amount is enough. The require given for the votes part, handles also the special case of having only 1 investor.",
        "params": {
          "idx": "the index of the request"
        }
      }
    },
    "title": "A Contract that depicts a Vision with its info and functions for investments, payments, votes etc",
    "version": 1
  },
  "userdoc": {
    "kind": "user",
    "methods": {
      "createWithdrawRequest(uint256,string)": {
        "notice": "Creates a withdraw request"
      },
      "getInvestorAmount(address)": {
        "notice": "Returns the amount invested from the given address"
      },
      "invest()": {
        "notice": "Invest amount to a Vision"
      },
      "vote(uint256)": {
        "notice": "Vote for a withdrawal request"
      },
      "withdraw(uint256)": {
        "notice": "Send the amount requested to the receiver"
      },
      "withdrawInvestedAmount()": {
        "notice": "Investors can withdraw invested amount if the Vision is expired"
      }
    },
    "version": 1
  }
}