{
  "contractName": "Vision",
  "abi": [
    {
      "inputs": [
        {
          "internalType": "address",
          "name": "_owner",
          "type": "address"
        },
        {
          "internalType": "uint256",
          "name": "_amountGoal",
          "type": "uint256"
        },
        {
          "internalType": "string",
          "name": "_type",
          "type": "string"
        },
        {
          "internalType": "string",
          "name": "_descr",
          "type": "string"
        },
        {
          "internalType": "uint256",
          "name": "numOfDays",
          "type": "uint256"
        }
      ],
      "stateMutability": "nonpayable",
      "type": "constructor"
    },
    {
      "anonymous": false,
      "inputs": [
        {
          "indexed": true,
          "internalType": "address",
          "name": "_from",
          "type": "address"
        },
        {
          "indexed": false,
          "internalType": "uint256",
          "name": "receivedAmount",
          "type": "uint256"
        },
        {
          "indexed": false,
          "internalType": "uint256",
          "name": "currentAmount",
          "type": "uint256"
        }
      ],
      "name": "AmountReceived",
      "type": "event"
    },
    {
      "anonymous": false,
      "inputs": [
        {
          "indexed": true,
          "internalType": "address",
          "name": "_from",
          "type": "address"
        },
        {
          "indexed": false,
          "internalType": "uint256",
          "name": "_amount",
          "type": "uint256"
        }
      ],
      "name": "AmountSent",
      "type": "event"
    },
    {
      "anonymous": false,
      "inputs": [
        {
          "indexed": true,
          "internalType": "address",
          "name": "owner",
          "type": "address"
        },
        {
          "indexed": false,
          "internalType": "uint256",
          "name": "currentAmount",
          "type": "uint256"
        }
      ],
      "name": "GoalAchieved",
      "type": "event"
    },
    {
      "anonymous": false,
      "inputs": [
        {
          "indexed": true,
          "internalType": "address",
          "name": "investor",
          "type": "address"
        }
      ],
      "name": "InvestorAdded",
      "type": "event"
    },
    {
      "anonymous": false,
      "inputs": [
        {
          "indexed": true,
          "internalType": "address",
          "name": "owner",
          "type": "address"
        },
        {
          "indexed": false,
          "internalType": "uint256",
          "name": "amountGoal",
          "type": "uint256"
        },
        {
          "indexed": false,
          "internalType": "string",
          "name": "visionType",
          "type": "string"
        },
        {
          "indexed": false,
          "internalType": "string",
          "name": "visionDescr",
          "type": "string"
        }
      ],
      "name": "VisionCreated",
      "type": "event"
    },
    {
      "anonymous": false,
      "inputs": [
        {
          "indexed": true,
          "internalType": "address",
          "name": "_from",
          "type": "address"
        },
        {
          "indexed": false,
          "internalType": "uint256",
          "name": "_amount",
          "type": "uint256"
        }
      ],
      "name": "WithdrawnFailure",
      "type": "event"
    },
    {
      "anonymous": false,
      "inputs": [
        {
          "indexed": true,
          "internalType": "address",
          "name": "_from",
          "type": "address"
        },
        {
          "indexed": false,
          "internalType": "uint256",
          "name": "_amount",
          "type": "uint256"
        }
      ],
      "name": "WithdrawnSuccess",
      "type": "event"
    },
    {
      "stateMutability": "payable",
      "type": "fallback"
    },
    {
      "inputs": [],
      "name": "amountGoal",
      "outputs": [
        {
          "internalType": "uint256",
          "name": "",
          "type": "uint256"
        }
      ],
      "stateMutability": "view",
      "type": "function"
    },
    {
      "inputs": [],
      "name": "currentAmount",
      "outputs": [
        {
          "internalType": "uint256",
          "name": "",
          "type": "uint256"
        }
      ],
      "stateMutability": "view",
      "type": "function"
    },
    {
      "inputs": [],
      "name": "deadline",
      "outputs": [
        {
          "internalType": "uint256",
          "name": "",
          "type": "uint256"
        }
      ],
      "stateMutability": "view",
      "type": "function"
    },
    {
      "inputs": [
        {
          "internalType": "address",
          "name": "",
          "type": "address"
        }
      ],
      "name": "investors",
      "outputs": [
        {
          "internalType": "uint256",
          "name": "",
          "type": "uint256"
        }
      ],
      "stateMutability": "view",
      "type": "function"
    },
    {
      "inputs": [],
      "name": "owner",
      "outputs": [
        {
          "internalType": "address",
          "name": "",
          "type": "address"
        }
      ],
      "stateMutability": "view",
      "type": "function"
    },
    {
      "inputs": [
        {
          "internalType": "address",
          "name": "",
          "type": "address"
        },
        {
          "internalType": "uint256",
          "name": "",
          "type": "uint256"
        }
      ],
      "name": "requests",
      "outputs": [
        {
          "internalType": "uint256",
          "name": "withdrawAmount",
          "type": "uint256"
        },
        {
          "internalType": "address",
          "name": "receiver",
          "type": "address"
        },
        {
          "internalType": "string",
          "name": "withdrawalReason",
          "type": "string"
        },
        {
          "internalType": "uint256",
          "name": "votes",
          "type": "uint256"
        },
        {
          "internalType": "bool",
          "name": "isDone",
          "type": "bool"
        }
      ],
      "stateMutability": "view",
      "type": "function"
    },
    {
      "inputs": [],
      "name": "state",
      "outputs": [
        {
          "internalType": "enum Vision.State",
          "name": "",
          "type": "uint8"
        }
      ],
      "stateMutability": "view",
      "type": "function"
    },
    {
      "inputs": [],
      "name": "sumOfInvestors",
      "outputs": [
        {
          "internalType": "uint256",
          "name": "",
          "type": "uint256"
        }
      ],
      "stateMutability": "view",
      "type": "function"
    },
    {
      "inputs": [],
      "name": "visionDescr",
      "outputs": [
        {
          "internalType": "string",
          "name": "",
          "type": "string"
        }
      ],
      "stateMutability": "view",
      "type": "function"
    },
    {
      "inputs": [],
      "name": "visionType",
      "outputs": [
        {
          "internalType": "string",
          "name": "",
          "type": "string"
        }
      ],
      "stateMutability": "view",
      "type": "function"
    },
    {
      "stateMutability": "payable",
      "type": "receive"
    },
    {
      "inputs": [],
      "name": "invest",
      "outputs": [],
      "stateMutability": "payable",
      "type": "function"
    },
    {
      "inputs": [
        {
          "internalType": "uint256",
          "name": "amount",
          "type": "uint256"
        }
      ],
      "name": "makePayment",
      "outputs": [],
      "stateMutability": "payable",
      "type": "function"
    },
    {
      "inputs": [
        {
          "internalType": "uint256",
          "name": "_withdrawAmount",
          "type": "uint256"
        },
        {
          "internalType": "address",
          "name": "_receiver",
          "type": "address"
        },
        {
          "internalType": "string",
          "name": "_withdrawalReason",
          "type": "string"
        }
      ],
      "name": "createWithdrawRequest",
      "outputs": [],
      "stateMutability": "nonpayable",
      "type": "function"
    },
    {
      "inputs": [
        {
          "internalType": "uint256",
          "name": "idx",
          "type": "uint256"
        }
      ],
      "name": "vote",
      "outputs": [],
      "stateMutability": "nonpayable",
      "type": "function"
    },
    {
      "inputs": [
        {
          "internalType": "uint256",
          "name": "idx",
          "type": "uint256"
        }
      ],
      "name": "withdraw",
      "outputs": [],
      "stateMutability": "payable",
      "type": "function"
    },
    {
      "inputs": [],
      "name": "getVision",
      "outputs": [
        {
          "internalType": "address",
          "name": "_owner",
          "type": "address"
        },
        {
          "internalType": "string",
          "name": "_type",
          "type": "string"
        },
        {
          "internalType": "string",
          "name": "_description",
          "type": "string"
        },
        {
          "internalType": "enum Vision.State",
          "name": "_currentState",
          "type": "uint8"
        },
        {
          "internalType": "uint256",
          "name": "_goal",
          "type": "uint256"
        },
        {
          "internalType": "uint256",
          "name": "_currentAmount",
          "type": "uint256"
        },
        {
          "internalType": "uint256",
          "name": "_deadline",
          "type": "uint256"
        }
      ],
      "stateMutability": "view",
      "type": "function"
    }
  ],
  "bytecode": "0x60806040526000600760006101000a81548160ff0219169083600281111562000051577f4e487b7100000000000000000000000000000000000000000000000000000000600052602160045260246000fd5b02179055503480156200006357600080fd5b50604051620026a2380380620026a28339818101604052810190620000899190620002de565b600160008190555084600360006101000a81548173ffffffffffffffffffffffffffffffffffffffff021916908373ffffffffffffffffffffffffffffffffffffffff160217905550836001819055508260049080519060200190620000f19291906200018e565b5081600590805190602001906200010a9291906200018e565b5062015180816200011c91906200050f565b42620001299190620004b2565b6009819055508473ffffffffffffffffffffffffffffffffffffffff167f802850d1fc951145cd3466e518077f136692705e2164472cd89c3b1c9618cdf38585856040516200017b93929190620003e4565b60405180910390a25050505050620006ec565b8280546200019c90620005e4565b90600052602060002090601f016020900481019282620001c057600085556200020c565b82601f10620001db57805160ff19168380011785556200020c565b828001600101855582156200020c579182015b828111156200020b578251825591602001919060010190620001ee565b5b5090506200021b91906200021f565b5090565b5b808211156200023a57600081600090555060010162000220565b5090565b6000620002556200024f8462000463565b6200042f565b9050828152602081018484840111156200026e57600080fd5b6200027b848285620005ae565b509392505050565b6000815190506200029481620006b8565b92915050565b600082601f830112620002ac57600080fd5b8151620002be8482602086016200023e565b91505092915050565b600081519050620002d881620006d2565b92915050565b600080600080600060a08688031215620002f757600080fd5b6000620003078882890162000283565b95505060206200031a88828901620002c7565b945050604086015167ffffffffffffffff8111156200033857600080fd5b62000346888289016200029a565b935050606086015167ffffffffffffffff8111156200036457600080fd5b62000372888289016200029a565b92505060806200038588828901620002c7565b9150509295509295909350565b60006200039f8262000496565b620003ab8185620004a1565b9350620003bd818560208601620005ae565b620003c881620006a7565b840191505092915050565b620003de81620005a4565b82525050565b6000606082019050620003fb6000830186620003d3565b81810360208301526200040f818562000392565b9050818103604083015262000425818462000392565b9050949350505050565b6000604051905081810181811067ffffffffffffffff8211171562000459576200045862000678565b5b8060405250919050565b600067ffffffffffffffff82111562000481576200048062000678565b5b601f19601f8301169050602081019050919050565b600081519050919050565b600082825260208201905092915050565b6000620004bf82620005a4565b9150620004cc83620005a4565b9250827fffffffffffffffffffffffffffffffffffffffffffffffffffffffffffffffff038211156200050457620005036200061a565b5b828201905092915050565b60006200051c82620005a4565b91506200052983620005a4565b9250817fffffffffffffffffffffffffffffffffffffffffffffffffffffffffffffffff04831182151516156200056557620005646200061a565b5b828202905092915050565b60006200057d8262000584565b9050919050565b600073ffffffffffffffffffffffffffffffffffffffff82169050919050565b6000819050919050565b60005b83811015620005ce578082015181840152602081019050620005b1565b83811115620005de576000848401525b50505050565b60006002820490506001821680620005fd57607f821691505b6020821081141562000614576200061362000649565b5b50919050565b7f4e487b7100000000000000000000000000000000000000000000000000000000600052601160045260246000fd5b7f4e487b7100000000000000000000000000000000000000000000000000000000600052602260045260246000fd5b7f4e487b7100000000000000000000000000000000000000000000000000000000600052604160045260246000fd5b6000601f19601f8301169050919050565b620006c38162000570565b8114620006cf57600080fd5b50565b620006dd81620005a4565b8114620006e957600080fd5b50565b611fa680620006fc6000396000f3fe6080604052600436106100f75760003560e01c80636f7bc9be1161008a578063c3726c3b11610059578063c3726c3b14610310578063c962315914610341578063e8b5e51f1461036c578063f441b1c81461037657610101565b80636f7bc9be1461023c5780638da5cb5b146102795780639ecebe2a146102a4578063c19d93fb146102e557610101565b80632e1a7d4d116100c65780632e1a7d4d146101b05780633958eb2d146101cc5780634a19b430146101f55780635114cb521461022057610101565b80630121b93f146101065780630785001c1461012f578063298633be1461015a57806329dcb0cf1461018557610101565b3661010157600080fd5b600080fd5b34801561011257600080fd5b5061012d60048036038101906101289190611726565b6103a1565b005b34801561013b57600080fd5b506101446105ed565b6040516101519190611bfa565b60405180910390f35b34801561016657600080fd5b5061016f6105f3565b60405161017c9190611bfa565b60405180910390f35b34801561019157600080fd5b5061019a6105f9565b6040516101a79190611bfa565b60405180910390f35b6101ca60048036038101906101c59190611726565b6105ff565b005b3480156101d857600080fd5b506101f360048036038101906101ee919061174f565b610928565b005b34801561020157600080fd5b5061020a610ac3565b6040516102179190611af8565b60405180910390f35b61023a60048036038101906102359190611726565b610b51565b005b34801561024857600080fd5b50610263600480360381019061025e91906116c1565b610e8b565b6040516102709190611bfa565b60405180910390f35b34801561028557600080fd5b5061028e610ea3565b60405161029b9190611a45565b60405180910390f35b3480156102b057600080fd5b506102cb60048036038101906102c691906116ea565b610ec9565b6040516102dc959493929190611c15565b60405180910390f35b3480156102f157600080fd5b506102fa610fc1565b6040516103079190611add565b60405180910390f35b34801561031c57600080fd5b50610325610fd4565b6040516103389796959493929190611a60565b60405180910390f35b34801561034d57600080fd5b50610356611148565b6040516103639190611af8565b60405180910390f35b6103746111d6565b005b34801561038257600080fd5b5061038b6114e6565b6040516103989190611bfa565b60405180910390f35b60015460025410156103e8576040517f08c379a00000000000000000000000000000000000000000000000000000000081526004016103df90611bda565b60405180910390fd5b6000600660003373ffffffffffffffffffffffffffffffffffffffff1673ffffffffffffffffffffffffffffffffffffffff168152602001908152602001600020541161046a576040517f08c379a000000000000000000000000000000000000000000000000000000000815260040161046190611b5a565b60405180910390fd5b6000600b6000600360009054906101000a900473ffffffffffffffffffffffffffffffffffffffff1673ffffffffffffffffffffffffffffffffffffffff1673ffffffffffffffffffffffffffffffffffffffff16815260200190815260200160002060008381526020019081526020016000209050600015158160040160003373ffffffffffffffffffffffffffffffffffffffff1673ffffffffffffffffffffffffffffffffffffffff16815260200190815260200160002060009054906101000a900460ff16151514610575576040517f08c379a000000000000000000000000000000000000000000000000000000000815260040161056c90611b1a565b60405180910390fd5b60018160040160003373ffffffffffffffffffffffffffffffffffffffff1673ffffffffffffffffffffffffffffffffffffffff16815260200190815260200160002060006101000a81548160ff0219169083151502179055508060030160008154809291906105e490611e18565b91905055505050565b60015481565b60085481565b60095481565b600360009054906101000a900473ffffffffffffffffffffffffffffffffffffffff1673ffffffffffffffffffffffffffffffffffffffff163373ffffffffffffffffffffffffffffffffffffffff161461068f576040517f08c379a000000000000000000000000000000000000000000000000000000000815260040161068690611b9a565b60405180910390fd5b600260005414156106d5576040517f08c379a00000000000000000000000000000000000000000000000000000000081526004016106cc90611bba565b60405180910390fd5b60026000819055506000600b60003373ffffffffffffffffffffffffffffffffffffffff1673ffffffffffffffffffffffffffffffffffffffff16815260200190815260200160002060008381526020019081526020016000209050600015158160050160009054906101000a900460ff1615151461075357600080fd5b60026008546107629190611d15565b8160030154101561077257600080fd5b60008160010160009054906101000a900473ffffffffffffffffffffffffffffffffffffffff1673ffffffffffffffffffffffffffffffffffffffff1682600001546040516107c090611a30565b60006040518083038185875af1925050503d80600081146107fd576040519150601f19603f3d011682016040523d82523d6000602084013e610802565b606091505b5050905080156108a45760018260050160006101000a81548160ff0219169083151502179055508160010160009054906101000a900473ffffffffffffffffffffffffffffffffffffffff1673ffffffffffffffffffffffffffffffffffffffff167f2089bb15d61bcd4b733abef2aeecdd97c9416dadbe007e9c4d8ce48dbec86c3483600001546040516108979190611bfa565b60405180910390a261091b565b8160010160009054906101000a900473ffffffffffffffffffffffffffffffffffffffff1673ffffffffffffffffffffffffffffffffffffffff167f1e785bb9ea2aeb7fbabd75760c432d8ed0dae945fdf84477ca59a88306680b9f83600001546040516109129190611bfa565b60405180910390a25b5050600160008190555050565b600360009054906101000a900473ffffffffffffffffffffffffffffffffffffffff1673ffffffffffffffffffffffffffffffffffffffff163373ffffffffffffffffffffffffffffffffffffffff16146109b8576040517f08c379a00000000000000000000000000000000000000000000000000000000081526004016109af90611b9a565b60405180910390fd5b8360025410156109c757600080fd5b6000600b60003373ffffffffffffffffffffffffffffffffffffffff1673ffffffffffffffffffffffffffffffffffffffff1681526020019081526020016000206000600a5481526020019081526020016000209050848160000181905550838160010160006101000a81548173ffffffffffffffffffffffffffffffffffffffff021916908373ffffffffffffffffffffffffffffffffffffffff1602179055508282826002019190610a7c9291906115aa565b506000816003018190555060008160050160006101000a81548160ff021916908315150217905550600a6000815480929190610ab790611e18565b91905055505050505050565b60048054610ad090611de6565b80601f0160208091040260200160405190810160405280929190818152602001828054610afc90611de6565b8015610b495780601f10610b1e57610100808354040283529160200191610b49565b820191906000526020600020905b815481529060010190602001808311610b2c57829003601f168201915b505050505081565b60016002811115610b8b577f4e487b7100000000000000000000000000000000000000000000000000000000600052602160045260246000fd5b600760009054906101000a900460ff166002811115610bd3577f4e487b7100000000000000000000000000000000000000000000000000000000600052602160045260246000fd5b14610c13576040517f08c379a0000000000000000000000000000000000000000000000000000000008152600401610c0a90611b3a565b60405180910390fd5b6001546002541015610c5a576040517f08c379a0000000000000000000000000000000000000000000000000000000008152600401610c5190611bda565b60405180910390fd5b60026000541415610ca0576040517f08c379a0000000000000000000000000000000000000000000000000000000008152600401610c9790611bba565b60405180910390fd5b600260008190555060006002819055506000600360009054906101000a900473ffffffffffffffffffffffffffffffffffffffff1673ffffffffffffffffffffffffffffffffffffffff1682604051610cf890611a30565b60006040518083038185875af1925050503d8060008114610d35576040519150601f19603f3d011682016040523d82523d6000602084013e610d3a565b606091505b505090508015610e0c576002600760006101000a81548160ff02191690836002811115610d90577f4e487b7100000000000000000000000000000000000000000000000000000000600052602160045260246000fd5b0217905550600360009054906101000a900473ffffffffffffffffffffffffffffffffffffffff1673ffffffffffffffffffffffffffffffffffffffff167f2089bb15d61bcd4b733abef2aeecdd97c9416dadbe007e9c4d8ce48dbec86c34600254604051610dff9190611bfa565b60405180910390a2610e7f565b600360009054906101000a900473ffffffffffffffffffffffffffffffffffffffff1673ffffffffffffffffffffffffffffffffffffffff167f1e785bb9ea2aeb7fbabd75760c432d8ed0dae945fdf84477ca59a88306680b9f600254604051610e769190611bfa565b60405180910390a25b50600160008190555050565b60066020528060005260406000206000915090505481565b600360009054906101000a900473ffffffffffffffffffffffffffffffffffffffff1681565b600b602052816000526040600020602052806000526040600020600091509150508060000154908060010160009054906101000a900473ffffffffffffffffffffffffffffffffffffffff1690806002018054610f2590611de6565b80601f0160208091040260200160405190810160405280929190818152602001828054610f5190611de6565b8015610f9e5780601f10610f7357610100808354040283529160200191610f9e565b820191906000526020600020905b815481529060010190602001808311610f8157829003601f168201915b5050505050908060030154908060050160009054906101000a900460ff16905085565b600760009054906101000a900460ff1681565b6000606080600080600080600360009054906101000a900473ffffffffffffffffffffffffffffffffffffffff1696506004805461101190611de6565b80601f016020809104026020016040519081016040528092919081815260200182805461103d90611de6565b801561108a5780601f1061105f5761010080835404028352916020019161108a565b820191906000526020600020905b81548152906001019060200180831161106d57829003601f168201915b50505050509550600760009054906101000a900460ff169350600580546110b090611de6565b80601f01602080910402602001604051908101604052809291908181526020018280546110dc90611de6565b80156111295780601f106110fe57610100808354040283529160200191611129565b820191906000526020600020905b81548152906001019060200180831161110c57829003601f168201915b5050505050945060015492506002549150600954905090919293949596565b6005805461115590611de6565b80601f016020809104026020016040519081016040528092919081815260200182805461118190611de6565b80156111ce5780601f106111a3576101008083540402835291602001916111ce565b820191906000526020600020905b8154815290600101906020018083116111b157829003601f168201915b505050505081565b60006002811115611210577f4e487b7100000000000000000000000000000000000000000000000000000000600052602160045260246000fd5b600760009054906101000a900460ff166002811115611258577f4e487b7100000000000000000000000000000000000000000000000000000000600052602160045260246000fd5b148015611266575060095442105b6112a5576040517f08c379a000000000000000000000000000000000000000000000000000000000815260040161129c90611b7a565b60405180910390fd5b600360009054906101000a900473ffffffffffffffffffffffffffffffffffffffff1673ffffffffffffffffffffffffffffffffffffffff163373ffffffffffffffffffffffffffffffffffffffff16141561130057600080fd5b6113086114ec565b61135a34600660003373ffffffffffffffffffffffffffffffffffffffff1673ffffffffffffffffffffffffffffffffffffffff1681526020019081526020016000205461159490919063ffffffff16565b600660003373ffffffffffffffffffffffffffffffffffffffff1673ffffffffffffffffffffffffffffffffffffffff168152602001908152602001600020819055506113b23460025461159490919063ffffffff16565b6002819055503373ffffffffffffffffffffffffffffffffffffffff167fcda619981924cb5cfd654b61cf0f4ef8299cee9f2f1e9cb23774af6f11a7f90534600254604051611402929190611c6f565b60405180910390a2600154600254106114e4576001600760006101000a81548160ff02191690836002811115611461577f4e487b7100000000000000000000000000000000000000000000000000000000600052602160045260246000fd5b0217905550600360009054906101000a900473ffffffffffffffffffffffffffffffffffffffff1673ffffffffffffffffffffffffffffffffffffffff167f5d69eee4b16dceba60f559d3c6b9f96c3f7c7342fb1d06c1d2f7e14f8120c4df6002546040516114d09190611bfa565b60405180910390a26114e3600254610b51565b5b565b60025481565b6000600660003373ffffffffffffffffffffffffffffffffffffffff1673ffffffffffffffffffffffffffffffffffffffff168152602001908152602001600020541415611592576001600860008282546115479190611cbf565b925050819055503373ffffffffffffffffffffffffffffffffffffffff167f62e6a5118be03f9bfedb79b0ed7ed75ee4a9e15fc4c69d2c4976acde26fa2d5f60405160405180910390a25b565b600081836115a29190611cbf565b905092915050565b8280546115b690611de6565b90600052602060002090601f0160209004810192826115d8576000855561161f565b82601f106115f157803560ff191683800117855561161f565b8280016001018555821561161f579182015b8281111561161e578235825591602001919060010190611603565b5b50905061162c9190611630565b5090565b5b80821115611649576000816000905550600101611631565b5090565b60008135905061165c81611f42565b92915050565b60008083601f84011261167457600080fd5b8235905067ffffffffffffffff81111561168d57600080fd5b6020830191508360018202830111156116a557600080fd5b9250929050565b6000813590506116bb81611f59565b92915050565b6000602082840312156116d357600080fd5b60006116e18482850161164d565b91505092915050565b600080604083850312156116fd57600080fd5b600061170b8582860161164d565b925050602061171c858286016116ac565b9150509250929050565b60006020828403121561173857600080fd5b6000611746848285016116ac565b91505092915050565b6000806000806060858703121561176557600080fd5b6000611773878288016116ac565b94505060206117848782880161164d565b935050604085013567ffffffffffffffff8111156117a157600080fd5b6117ad87828801611662565b925092505092959194509250565b6117c481611d46565b82525050565b6117d381611d58565b82525050565b6117e281611da1565b82525050565b60006117f382611c98565b6117fd8185611cae565b935061180d818560208601611db3565b61181681611f1d565b840191505092915050565b600061182e601283611cae565b91507f5573657220616c726561647920766f74656400000000000000000000000000006000830152602082019050919050565b600061186e601983611cae565b91507f50726f6a65637420686173206e6f7420656e64656420796574000000000000006000830152602082019050919050565b60006118ae601683611cae565b91507f4e6f20616d6f756e742077617320696e766573746564000000000000000000006000830152602082019050919050565b60006118ee601e83611cae565b91507f50726f6a656374206973206e6f7420696e20496e7665737420537461746500006000830152602082019050919050565b600061192e600083611ca3565b9150600082019050919050565b6000611948602483611cae565b91507f55736572206973206e6f7420746865206f776e6572206f66207468652050726f60008301527f6a656374000000000000000000000000000000000000000000000000000000006020830152604082019050919050565b60006119ae601f83611cae565b91507f5265656e7472616e637947756172643a207265656e7472616e742063616c6c006000830152602082019050919050565b60006119ee601983611cae565b91507f476f616c20686173206e6f74206265656e2072656163686564000000000000006000830152602082019050919050565b611a2a81611d97565b82525050565b6000611a3b82611921565b9150819050919050565b6000602082019050611a5a60008301846117bb565b92915050565b600060e082019050611a75600083018a6117bb565b8181036020830152611a8781896117e8565b90508181036040830152611a9b81886117e8565b9050611aaa60608301876117d9565b611ab76080830186611a21565b611ac460a0830185611a21565b611ad160c0830184611a21565b98975050505050505050565b6000602082019050611af260008301846117d9565b92915050565b60006020820190508181036000830152611b1281846117e8565b905092915050565b60006020820190508181036000830152611b3381611821565b9050919050565b60006020820190508181036000830152611b5381611861565b9050919050565b60006020820190508181036000830152611b73816118a1565b9050919050565b60006020820190508181036000830152611b93816118e1565b9050919050565b60006020820190508181036000830152611bb38161193b565b9050919050565b60006020820190508181036000830152611bd3816119a1565b9050919050565b60006020820190508181036000830152611bf3816119e1565b9050919050565b6000602082019050611c0f6000830184611a21565b92915050565b600060a082019050611c2a6000830188611a21565b611c3760208301876117bb565b8181036040830152611c4981866117e8565b9050611c586060830185611a21565b611c6560808301846117ca565b9695505050505050565b6000604082019050611c846000830185611a21565b611c916020830184611a21565b9392505050565b600081519050919050565b600081905092915050565b600082825260208201905092915050565b6000611cca82611d97565b9150611cd583611d97565b9250827fffffffffffffffffffffffffffffffffffffffffffffffffffffffffffffffff03821115611d0a57611d09611e61565b5b828201905092915050565b6000611d2082611d97565b9150611d2b83611d97565b925082611d3b57611d3a611e90565b5b828204905092915050565b6000611d5182611d77565b9050919050565b60008115159050919050565b6000819050611d7282611f2e565b919050565b600073ffffffffffffffffffffffffffffffffffffffff82169050919050565b6000819050919050565b6000611dac82611d64565b9050919050565b60005b83811015611dd1578082015181840152602081019050611db6565b83811115611de0576000848401525b50505050565b60006002820490506001821680611dfe57607f821691505b60208210811415611e1257611e11611eee565b5b50919050565b6000611e2382611d97565b91507fffffffffffffffffffffffffffffffffffffffffffffffffffffffffffffffff821415611e5657611e55611e61565b5b600182019050919050565b7f4e487b7100000000000000000000000000000000000000000000000000000000600052601160045260246000fd5b7f4e487b7100000000000000000000000000000000000000000000000000000000600052601260045260246000fd5b7f4e487b7100000000000000000000000000000000000000000000000000000000600052602160045260246000fd5b7f4e487b7100000000000000000000000000000000000000000000000000000000600052602260045260246000fd5b6000601f19601f8301169050919050565b60038110611f3f57611f3e611ebf565b5b50565b611f4b81611d46565b8114611f5657600080fd5b50565b611f6281611d97565b8114611f6d57600080fd5b5056fea2646970667358221220b4a47d334034c35fff2d8ddfe10c5e69b05d76e6da9eaed7a88d3ac50f1e16d764736f6c63430008000033",
  "immutableReferences": {},
  "source": "// SPDX-License-Identifier: MIT\r\npragma solidity ^0.8.0;\r\n\r\nimport \"@openzeppelin/contracts/utils/math/SafeMath.sol\";\r\nimport \"@openzeppelin/contracts/security/ReentrancyGuard.sol\";\r\n\r\n/// @title A Contract for making Visions\r\n/// @author K. Koliopoulou\r\n/// @notice You can use this contract to construct new Visions\r\ncontract Etherpreneur {\r\n\r\n    Vision[] private visions;\r\n\r\n    event newVisionCreated(\r\n        address _visionAddress,\r\n        address _owner,\r\n        string _type,\r\n        string _desciption,\r\n        uint _amountGoal\r\n    );\r\n\r\n    function createVision(string calldata visionType, string calldata visionDescr, uint amountGoal, uint deadline) external {\r\n\r\n        Vision vision = new Vision(msg.sender, amountGoal, visionType, visionDescr, deadline);\r\n\r\n        visions.push(vision);\r\n\r\n        emit newVisionCreated(\r\n            address(vision),\r\n            msg.sender,\r\n            visionType,\r\n            visionDescr,\r\n            amountGoal\r\n        );\r\n    }\r\n\r\n    function getAllVisions() external view returns (Vision[] memory) {\r\n        return visions;\r\n    }\r\n}\r\n\r\n/// @title A Contract that depicts a Vision with its info and functions for investments, payments, votes etc\r\ncontract Vision is ReentrancyGuard {\r\n    using SafeMath for uint;\r\n\r\n    enum State {\r\n        INVEST,\r\n        ENDED,\r\n        PAID\r\n    }\r\n    uint public amountGoal;\r\n    uint public currentAmount;\r\n    address public owner;\r\n    string public visionType;\r\n    string public visionDescr;\r\n    mapping(address => uint) public investors;\r\n    State public state = State.INVEST;\r\n    uint public sumOfInvestors;\r\n    uint public deadline;\r\n\r\n    struct WithdrawReq {\r\n        uint withdrawAmount;\r\n        address receiver;\r\n        string withdrawalReason;\r\n        uint votes;\r\n        mapping(address => bool) votedInvestors;\r\n        bool isDone;\r\n    }\r\n\r\n    uint idxReq;\r\n    mapping(address => mapping(uint => WithdrawReq)) public requests; //TODO:REmove public, only for debugging reasons\r\n\r\n\r\n    modifier onlyOwner(){\r\n        require(msg.sender == owner, \"User is not the owner of the Project\");\r\n        _;\r\n    }\r\n\r\n    modifier canInvest(){\r\n        require(state == State.INVEST && block.timestamp < deadline, \"Project is not in Invest State\");\r\n        _;\r\n    }\r\n\r\n    modifier hasEnded(){\r\n        require(state == State.ENDED, \"Project has not ended yet\");\r\n        _;\r\n    }\r\n\r\n    modifier goalReached(){\r\n        require(currentAmount >= amountGoal, \"Goal has not been reached\");\r\n        _;\r\n    }\r\n\r\n    modifier isInvestor(){\r\n        require(investors[msg.sender] > 0, \"No amount was invested\");\r\n        _;\r\n    }\r\n\r\n    event VisionCreated(address indexed owner, uint amountGoal, string visionType, string visionDescr);\r\n    event InvestorAdded(address indexed investor);\r\n    event AmountReceived(address indexed _from, uint receivedAmount, uint currentAmount);\r\n    event AmountSent(address indexed _from, uint _amount);\r\n    event WithdrawnSuccess(address indexed _from, uint _amount);\r\n    event WithdrawnFailure(address indexed _from, uint _amount);\r\n    event GoalAchieved(address indexed owner, uint currentAmount);\r\n\r\n\r\n    constructor(address _owner, uint _amountGoal, string memory _type, string memory _descr, uint256 numOfDays) {\r\n        owner = _owner;\r\n        amountGoal = _amountGoal;\r\n        visionType = _type;\r\n        visionDescr = _descr;\r\n        deadline = block.timestamp + (numOfDays * 1 days);\r\n        //TODO: revisit this assignment\r\n        emit VisionCreated(_owner, _amountGoal, _type, _descr);\r\n    }\r\n\r\n    /// @notice Invest amount to a Vision\r\n    function invest() external canInvest payable {\r\n        require(msg.sender != owner);\r\n        addInvestor();\r\n        investors[msg.sender] = investors[msg.sender].add(msg.value);\r\n        currentAmount = currentAmount.add(msg.value);\r\n        emit AmountReceived(msg.sender, msg.value, currentAmount);\r\n        if (currentAmount >= amountGoal) {\r\n            state = State.ENDED;\r\n            emit GoalAchieved(owner, currentAmount);\r\n            makePayment(currentAmount);\r\n            //TODO: Change it using votes\r\n        }\r\n    }\r\n\r\n    /// @notice Add investor\r\n    /// @dev Before adding checks if already investor exists\r\n    function addInvestor() internal {\r\n        if (investors[msg.sender] == 0) {//TODO:Possible modifier\r\n            sumOfInvestors += 1;\r\n            emit InvestorAdded(msg.sender);\r\n        }\r\n    }\r\n\r\n    /// @notice Sends the amount to the owner of the Vision\r\n    /// @param amount the amount to be sent\r\n    function makePayment(uint amount) public payable hasEnded goalReached nonReentrant {\r\n        currentAmount = 0;\r\n        (bool success,) = owner.call{value : amount}(\"\");\r\n        if (success) {\r\n            state = State.PAID;\r\n            emit WithdrawnSuccess(owner, currentAmount);\r\n        } else {\r\n            emit WithdrawnFailure(owner, currentAmount);\r\n        }\r\n    }\r\n\r\n    //TODO: Revisit this section and make it work//\r\n    /// @notice Creates a withdraw request\r\n    /// @param _withdrawAmount the amount to be withdrawn, _receiver the address of the receiver, _withdrawalReason the reason of the withdrawal\r\n    function createWithdrawRequest(uint _withdrawAmount, address _receiver, string calldata _withdrawalReason) public onlyOwner {\r\n        require(currentAmount >= _withdrawAmount);\r\n        //TODO:Possible modifier\r\n        WithdrawReq storage req = requests[msg.sender][idxReq];\r\n        req.withdrawAmount = _withdrawAmount;\r\n        req.receiver = _receiver;\r\n        req.withdrawalReason = _withdrawalReason;\r\n        req.votes = 0;\r\n        req.isDone = false;\r\n\r\n        idxReq++;\r\n\r\n    }\r\n\r\n    /// @notice Vote for a withdrawal request\r\n    /// @param idx the index of the request\r\n    function vote(uint idx) public goalReached isInvestor {\r\n        WithdrawReq storage withdrawReq = requests[owner][idx];\r\n        require(withdrawReq.votedInvestors[msg.sender] == false, \"User already voted\");\r\n        //check if already has voted\r\n        withdrawReq.votedInvestors[msg.sender] = true;\r\n        withdrawReq.votes++;\r\n    }\r\n\r\n    /// @notice Send the amount requested to the receiver\r\n    /// @param idx the index of the request\r\n    function withdraw(uint idx) public onlyOwner payable nonReentrant {\r\n        WithdrawReq storage req = requests[msg.sender][idx];\r\n        require(req.isDone == false);\r\n        require(req.votes >= sumOfInvestors / 2);\r\n        (bool success,) = req.receiver.call{value : req.withdrawAmount}(\"\");\r\n        if (success) {\r\n            req.isDone = true;\r\n            emit WithdrawnSuccess(req.receiver, req.withdrawAmount);\r\n        } else {\r\n            emit WithdrawnFailure(req.receiver, req.withdrawAmount);\r\n        }\r\n    }\r\n    //////////////\r\n    function getVision() public view returns\r\n    (\r\n        address _owner,\r\n        string memory _type,\r\n        string memory _description,\r\n        State _currentState,\r\n        uint256 _goal,\r\n        uint256 _currentAmount,\r\n        uint256 _deadline\r\n    ) {\r\n        _owner = owner;\r\n        _type = visionType;\r\n        _currentState = state;\r\n        _description = visionDescr;\r\n        _goal = amountGoal;\r\n        _currentAmount = currentAmount;\r\n        _deadline = deadline;\r\n    }\r\n\r\n    //TODO:Revisit\r\n    receive() external payable {\r\n        revert();\r\n    }\r\n\r\n    fallback() external payable {\r\n        revert();\r\n    }\r\n}\r\n",
  "sourcePath": "/mnt/c/Users/kwnst/WebstormProjects/blockchain-developer-bootcamp-final-project_v2/contracts/Etherpreneur.sol",
  "compiler": {
    "name": "solc",
    "version": "0.8.0+commit.c7dfd78e.Emscripten.clang"
  },
  "schemaVersion": "3.4.3",
  "updatedAt": "2021-11-07T11:45:30.717Z",
  "devdoc": {
    "kind": "dev",
    "methods": {
      "createWithdrawRequest(uint256,address,string)": {
        "params": {
          "_withdrawAmount": "the amount to be withdrawn, _receiver the address of the receiver, _withdrawalReason the reason of the withdrawal"
        }
      },
      "makePayment(uint256)": {
        "params": {
          "amount": "the amount to be sent"
        }
      },
      "vote(uint256)": {
        "params": {
          "idx": "the index of the request"
        }
      },
      "withdraw(uint256)": {
        "params": {
          "idx": "the index of the request"
        }
      }
    },
    "title": "A Contract that depicts a Vision with its info and functions for investments, payments, votes etc",
    "version": 1
  },
  "userdoc": {
    "kind": "user",
    "methods": {
      "createWithdrawRequest(uint256,address,string)": {
        "notice": "Creates a withdraw request"
      },
      "invest()": {
        "notice": "Invest amount to a Vision"
      },
      "makePayment(uint256)": {
        "notice": "Sends the amount to the owner of the Vision"
      },
      "vote(uint256)": {
        "notice": "Vote for a withdrawal request"
      },
      "withdraw(uint256)": {
        "notice": "Send the amount requested to the receiver"
      }
    },
    "version": 1
  }
}