{
  "contractName": "Vision",
  "abi": [
    {
      "inputs": [
        {
          "internalType": "address",
          "name": "_owner",
          "type": "address"
        },
        {
          "internalType": "uint256",
          "name": "_amountGoal",
          "type": "uint256"
        },
        {
          "internalType": "string",
          "name": "_type",
          "type": "string"
        },
        {
          "internalType": "string",
          "name": "_descr",
          "type": "string"
        },
        {
          "internalType": "uint256",
          "name": "numOfDays",
          "type": "uint256"
        }
      ],
      "stateMutability": "nonpayable",
      "type": "constructor"
    },
    {
      "anonymous": false,
      "inputs": [
        {
          "indexed": true,
          "internalType": "address",
          "name": "_from",
          "type": "address"
        },
        {
          "indexed": false,
          "internalType": "uint256",
          "name": "receivedAmount",
          "type": "uint256"
        },
        {
          "indexed": false,
          "internalType": "uint256",
          "name": "currentAmount",
          "type": "uint256"
        }
      ],
      "name": "AmountReceived",
      "type": "event"
    },
    {
      "anonymous": false,
      "inputs": [
        {
          "indexed": true,
          "internalType": "address",
          "name": "_from",
          "type": "address"
        },
        {
          "indexed": false,
          "internalType": "uint256",
          "name": "_amount",
          "type": "uint256"
        }
      ],
      "name": "AmountSent",
      "type": "event"
    },
    {
      "anonymous": false,
      "inputs": [
        {
          "indexed": true,
          "internalType": "address",
          "name": "owner",
          "type": "address"
        },
        {
          "indexed": false,
          "internalType": "uint256",
          "name": "currentAmount",
          "type": "uint256"
        }
      ],
      "name": "GoalAchieved",
      "type": "event"
    },
    {
      "anonymous": false,
      "inputs": [
        {
          "indexed": true,
          "internalType": "address",
          "name": "investor",
          "type": "address"
        }
      ],
      "name": "InvestorAdded",
      "type": "event"
    },
    {
      "anonymous": false,
      "inputs": [
        {
          "indexed": true,
          "internalType": "address",
          "name": "owner",
          "type": "address"
        },
        {
          "indexed": false,
          "internalType": "uint256",
          "name": "amountGoal",
          "type": "uint256"
        },
        {
          "indexed": false,
          "internalType": "string",
          "name": "visionType",
          "type": "string"
        },
        {
          "indexed": false,
          "internalType": "string",
          "name": "visionDescr",
          "type": "string"
        }
      ],
      "name": "VisionCreated",
      "type": "event"
    },
    {
      "anonymous": false,
      "inputs": [
        {
          "indexed": true,
          "internalType": "address",
          "name": "_from",
          "type": "address"
        },
        {
          "indexed": false,
          "internalType": "uint256",
          "name": "_amount",
          "type": "uint256"
        }
      ],
      "name": "WithdrawnFailure",
      "type": "event"
    },
    {
      "anonymous": false,
      "inputs": [
        {
          "indexed": true,
          "internalType": "address",
          "name": "_from",
          "type": "address"
        },
        {
          "indexed": false,
          "internalType": "uint256",
          "name": "_amount",
          "type": "uint256"
        }
      ],
      "name": "WithdrawnSuccess",
      "type": "event"
    },
    {
      "stateMutability": "payable",
      "type": "fallback"
    },
    {
      "inputs": [],
      "name": "amountGoal",
      "outputs": [
        {
          "internalType": "uint256",
          "name": "",
          "type": "uint256"
        }
      ],
      "stateMutability": "view",
      "type": "function"
    },
    {
      "inputs": [],
      "name": "currentAmount",
      "outputs": [
        {
          "internalType": "uint256",
          "name": "",
          "type": "uint256"
        }
      ],
      "stateMutability": "view",
      "type": "function"
    },
    {
      "inputs": [],
      "name": "deadline",
      "outputs": [
        {
          "internalType": "uint256",
          "name": "",
          "type": "uint256"
        }
      ],
      "stateMutability": "view",
      "type": "function"
    },
    {
      "inputs": [],
      "name": "idxReq",
      "outputs": [
        {
          "internalType": "uint256",
          "name": "",
          "type": "uint256"
        }
      ],
      "stateMutability": "view",
      "type": "function"
    },
    {
      "inputs": [
        {
          "internalType": "address",
          "name": "",
          "type": "address"
        }
      ],
      "name": "investors",
      "outputs": [
        {
          "internalType": "uint256",
          "name": "",
          "type": "uint256"
        }
      ],
      "stateMutability": "view",
      "type": "function"
    },
    {
      "inputs": [],
      "name": "owner",
      "outputs": [
        {
          "internalType": "address",
          "name": "",
          "type": "address"
        }
      ],
      "stateMutability": "view",
      "type": "function"
    },
    {
      "inputs": [
        {
          "internalType": "uint256",
          "name": "",
          "type": "uint256"
        }
      ],
      "name": "requests",
      "outputs": [
        {
          "internalType": "uint256",
          "name": "withdrawAmount",
          "type": "uint256"
        },
        {
          "internalType": "address",
          "name": "receiver",
          "type": "address"
        },
        {
          "internalType": "string",
          "name": "withdrawalReason",
          "type": "string"
        },
        {
          "internalType": "uint256",
          "name": "votes",
          "type": "uint256"
        },
        {
          "internalType": "bool",
          "name": "isDone",
          "type": "bool"
        }
      ],
      "stateMutability": "view",
      "type": "function"
    },
    {
      "inputs": [],
      "name": "state",
      "outputs": [
        {
          "internalType": "enum Vision.State",
          "name": "",
          "type": "uint8"
        }
      ],
      "stateMutability": "view",
      "type": "function"
    },
    {
      "inputs": [],
      "name": "sumOfInvestors",
      "outputs": [
        {
          "internalType": "uint256",
          "name": "",
          "type": "uint256"
        }
      ],
      "stateMutability": "view",
      "type": "function"
    },
    {
      "inputs": [],
      "name": "visionDescr",
      "outputs": [
        {
          "internalType": "string",
          "name": "",
          "type": "string"
        }
      ],
      "stateMutability": "view",
      "type": "function"
    },
    {
      "inputs": [],
      "name": "visionType",
      "outputs": [
        {
          "internalType": "string",
          "name": "",
          "type": "string"
        }
      ],
      "stateMutability": "view",
      "type": "function"
    },
    {
      "stateMutability": "payable",
      "type": "receive"
    },
    {
      "inputs": [],
      "name": "invest",
      "outputs": [],
      "stateMutability": "payable",
      "type": "function"
    },
    {
      "inputs": [
        {
          "internalType": "uint256",
          "name": "_withdrawAmount",
          "type": "uint256"
        },
        {
          "internalType": "string",
          "name": "_withdrawalReason",
          "type": "string"
        }
      ],
      "name": "createWithdrawRequest",
      "outputs": [],
      "stateMutability": "nonpayable",
      "type": "function"
    },
    {
      "inputs": [
        {
          "internalType": "uint256",
          "name": "idx",
          "type": "uint256"
        }
      ],
      "name": "vote",
      "outputs": [],
      "stateMutability": "nonpayable",
      "type": "function"
    },
    {
      "inputs": [
        {
          "internalType": "uint256",
          "name": "idx",
          "type": "uint256"
        }
      ],
      "name": "withdraw",
      "outputs": [],
      "stateMutability": "payable",
      "type": "function"
    },
    {
      "inputs": [],
      "name": "getVision",
      "outputs": [
        {
          "internalType": "address",
          "name": "_owner",
          "type": "address"
        },
        {
          "internalType": "string",
          "name": "_type",
          "type": "string"
        },
        {
          "internalType": "string",
          "name": "_description",
          "type": "string"
        },
        {
          "internalType": "enum Vision.State",
          "name": "_currentState",
          "type": "uint8"
        },
        {
          "internalType": "uint256",
          "name": "_goal",
          "type": "uint256"
        },
        {
          "internalType": "uint256",
          "name": "_currentAmount",
          "type": "uint256"
        },
        {
          "internalType": "uint256",
          "name": "_deadline",
          "type": "uint256"
        },
        {
          "internalType": "uint256",
          "name": "_idxReq",
          "type": "uint256"
        }
      ],
      "stateMutability": "view",
      "type": "function"
    }
  ],
  "bytecode": "0x60806040526000600760006101000a81548160ff0219169083600281111562000051577f4e487b7100000000000000000000000000000000000000000000000000000000600052602160045260246000fd5b02179055506000600b553480156200006857600080fd5b50604051620027373803806200273783398181016040528101906200008e9190620002e3565b600160008190555084600360006101000a81548173ffffffffffffffffffffffffffffffffffffffff021916908373ffffffffffffffffffffffffffffffffffffffff160217905550836001819055508260049080519060200190620000f692919062000193565b5081600590805190602001906200010f92919062000193565b50620151808162000121919062000514565b426200012e9190620004b7565b6009819055508473ffffffffffffffffffffffffffffffffffffffff167f802850d1fc951145cd3466e518077f136692705e2164472cd89c3b1c9618cdf38585856040516200018093929190620003e9565b60405180910390a25050505050620006f1565b828054620001a190620005e9565b90600052602060002090601f016020900481019282620001c5576000855562000211565b82601f10620001e057805160ff191683800117855562000211565b8280016001018555821562000211579182015b8281111562000210578251825591602001919060010190620001f3565b5b50905062000220919062000224565b5090565b5b808211156200023f57600081600090555060010162000225565b5090565b60006200025a620002548462000468565b62000434565b9050828152602081018484840111156200027357600080fd5b62000280848285620005b3565b509392505050565b6000815190506200029981620006bd565b92915050565b600082601f830112620002b157600080fd5b8151620002c384826020860162000243565b91505092915050565b600081519050620002dd81620006d7565b92915050565b600080600080600060a08688031215620002fc57600080fd5b60006200030c8882890162000288565b95505060206200031f88828901620002cc565b945050604086015167ffffffffffffffff8111156200033d57600080fd5b6200034b888289016200029f565b935050606086015167ffffffffffffffff8111156200036957600080fd5b62000377888289016200029f565b92505060806200038a88828901620002cc565b9150509295509295909350565b6000620003a4826200049b565b620003b08185620004a6565b9350620003c2818560208601620005b3565b620003cd81620006ac565b840191505092915050565b620003e381620005a9565b82525050565b6000606082019050620004006000830186620003d8565b818103602083015262000414818562000397565b905081810360408301526200042a818462000397565b9050949350505050565b6000604051905081810181811067ffffffffffffffff821117156200045e576200045d6200067d565b5b8060405250919050565b600067ffffffffffffffff8211156200048657620004856200067d565b5b601f19601f8301169050602081019050919050565b600081519050919050565b600082825260208201905092915050565b6000620004c482620005a9565b9150620004d183620005a9565b9250827fffffffffffffffffffffffffffffffffffffffffffffffffffffffffffffffff038211156200050957620005086200061f565b5b828201905092915050565b60006200052182620005a9565b91506200052e83620005a9565b9250817fffffffffffffffffffffffffffffffffffffffffffffffffffffffffffffffff04831182151516156200056a57620005696200061f565b5b828202905092915050565b6000620005828262000589565b9050919050565b600073ffffffffffffffffffffffffffffffffffffffff82169050919050565b6000819050919050565b60005b83811015620005d3578082015181840152602081019050620005b6565b83811115620005e3576000848401525b50505050565b600060028204905060018216806200060257607f821691505b602082108114156200061957620006186200064e565b5b50919050565b7f4e487b7100000000000000000000000000000000000000000000000000000000600052601160045260246000fd5b7f4e487b7100000000000000000000000000000000000000000000000000000000600052602260045260246000fd5b7f4e487b7100000000000000000000000000000000000000000000000000000000600052604160045260246000fd5b6000601f19601f8301169050919050565b620006c88162000575565b8114620006d457600080fd5b50565b620006e281620005a9565b8114620006ee57600080fd5b50565b61203680620007016000396000f3fe6080604052600436106100f75760003560e01c80636f7bc9be1161008a578063c3726c3b11610059578063c3726c3b1461031f578063c962315914610351578063e8b5e51f1461037c578063f441b1c81461038657610101565b80636f7bc9be1461024b57806381d12c58146102885780638da5cb5b146102c9578063c19d93fb146102f457610101565b806329dcb0cf116100c657806329dcb0cf146101ae5780632a646054146101d95780632e1a7d4d146102045780634a19b4301461022057610101565b80630121b93f146101065780630785001c1461012f57806312205b2f1461015a578063298633be1461018357610101565b3661010157600080fd5b600080fd5b34801561011257600080fd5b5061012d600480360381019061012891906115e1565b6103b1565b005b34801561013b57600080fd5b506101446105d3565b6040516101519190611c56565b60405180910390f35b34801561016657600080fd5b50610181600480360381019061017c919061160a565b6105d9565b005b34801561018f57600080fd5b506101986107b1565b6040516101a59190611c56565b60405180910390f35b3480156101ba57600080fd5b506101c36107b7565b6040516101d09190611c56565b60405180910390f35b3480156101e557600080fd5b506101ee6107bd565b6040516101fb9190611c56565b60405180910390f35b61021e600480360381019061021991906115e1565b6107c3565b005b34801561022c57600080fd5b50610235610c4c565b6040516102429190611ad4565b60405180910390f35b34801561025757600080fd5b50610272600480360381019061026d91906115b8565b610cda565b60405161027f9190611c56565b60405180910390f35b34801561029457600080fd5b506102af60048036038101906102aa91906115e1565b610cf2565b6040516102c0959493929190611c71565b60405180910390f35b3480156102d557600080fd5b506102de610ded565b6040516102eb9190611a12565b60405180910390f35b34801561030057600080fd5b50610309610e13565b6040516103169190611ab9565b60405180910390f35b34801561032b57600080fd5b50610334610e26565b604051610348989796959493929190611a2d565b60405180910390f35b34801561035d57600080fd5b50610366610fa2565b6040516103739190611ad4565b60405180910390f35b610384611030565b005b34801561039257600080fd5b5061039b611335565b6040516103a89190611c56565b60405180910390f35b60015460025410156103f8576040517f08c379a00000000000000000000000000000000000000000000000000000000081526004016103ef90611c16565b60405180910390fd5b6000600660003373ffffffffffffffffffffffffffffffffffffffff1673ffffffffffffffffffffffffffffffffffffffff168152602001908152602001600020541161047a576040517f08c379a000000000000000000000000000000000000000000000000000000000815260040161047190611b56565b60405180910390fd5b6000600a82815481106104b6577f4e487b7100000000000000000000000000000000000000000000000000000000600052603260045260246000fd5b90600052602060002090600602019050600015158160040160003373ffffffffffffffffffffffffffffffffffffffff1673ffffffffffffffffffffffffffffffffffffffff16815260200190815260200160002060009054906101000a900460ff1615151461055b576040517f08c379a000000000000000000000000000000000000000000000000000000000815260040161055290611af6565b60405180910390fd5b60018160040160003373ffffffffffffffffffffffffffffffffffffffff1673ffffffffffffffffffffffffffffffffffffffff16815260200190815260200160002060006101000a81548160ff0219169083151502179055508060030160008154809291906105ca90611ea8565b91905055505050565b60015481565b6105e161133b565b6001600281111561061b577f4e487b7100000000000000000000000000000000000000000000000000000000600052602160045260246000fd5b600760009054906101000a900460ff166002811115610663577f4e487b7100000000000000000000000000000000000000000000000000000000600052602160045260246000fd5b146106a3576040517f08c379a000000000000000000000000000000000000000000000000000000000815260040161069a90611b16565b60405180910390fd5b8260025410156106e8576040517f08c379a00000000000000000000000000000000000000000000000000000000081526004016106df90611b36565b60405180910390fd5b6000600a6001816001815401808255809150500390600052602060002090600602019050338160010160006101000a81548173ffffffffffffffffffffffffffffffffffffffff021916908373ffffffffffffffffffffffffffffffffffffffff160217905550838160000181905550828282600201919061076b9291906114a1565b506000816003018190555060008160050160006101000a81548160ff021916908315150217905550600b60008154809291906107a690611ea8565b919050555050505050565b60085481565b60095481565b600b5481565b6107cb61133b565b60026000541415610811576040517f08c379a000000000000000000000000000000000000000000000000000000000815260040161080890611bd6565b60405180910390fd5b600260008190555060016002811115610853577f4e487b7100000000000000000000000000000000000000000000000000000000600052602160045260246000fd5b600760009054906101000a900460ff16600281111561089b577f4e487b7100000000000000000000000000000000000000000000000000000000600052602160045260246000fd5b146108db576040517f08c379a00000000000000000000000000000000000000000000000000000000081526004016108d290611b16565b60405180910390fd5b6000600a8281548110610917577f4e487b7100000000000000000000000000000000000000000000000000000000600052603260045260246000fd5b90600052602060002090600602019050600015158160050160009054906101000a900460ff1615151461097f576040517f08c379a000000000000000000000000000000000000000000000000000000000815260040161097690611bf6565b60405180910390fd5b600260085461098e9190611d71565b816003015410156109d4576040517f08c379a00000000000000000000000000000000000000000000000000000000081526004016109cb90611c36565b60405180910390fd5b6109ed81600001546002546113cd90919063ffffffff16565b60028190555060006002541015610a39576040517f08c379a0000000000000000000000000000000000000000000000000000000008152600401610a3090611bb6565b60405180910390fd5b60008160010160009054906101000a900473ffffffffffffffffffffffffffffffffffffffff1673ffffffffffffffffffffffffffffffffffffffff168260000154604051610a87906119fd565b60006040518083038185875af1925050503d8060008114610ac4576040519150601f19603f3d011682016040523d82523d6000602084013e610ac9565b606091505b505090508015610bc85760018260050160006101000a81548160ff02191690831515021790555060006002541415610b4d576002600760006101000a81548160ff02191690836002811115610b47577f4e487b7100000000000000000000000000000000000000000000000000000000600052602160045260246000fd5b02179055505b8160010160009054906101000a900473ffffffffffffffffffffffffffffffffffffffff1673ffffffffffffffffffffffffffffffffffffffff167f2089bb15d61bcd4b733abef2aeecdd97c9416dadbe007e9c4d8ce48dbec86c348360000154604051610bbb9190611c56565b60405180910390a2610c3f565b8160010160009054906101000a900473ffffffffffffffffffffffffffffffffffffffff1673ffffffffffffffffffffffffffffffffffffffff167f1e785bb9ea2aeb7fbabd75760c432d8ed0dae945fdf84477ca59a88306680b9f8360000154604051610c369190611c56565b60405180910390a25b5050600160008190555050565b60048054610c5990611e76565b80601f0160208091040260200160405190810160405280929190818152602001828054610c8590611e76565b8015610cd25780601f10610ca757610100808354040283529160200191610cd2565b820191906000526020600020905b815481529060010190602001808311610cb557829003601f168201915b505050505081565b60066020528060005260406000206000915090505481565b600a8181548110610d0257600080fd5b90600052602060002090600602016000915090508060000154908060010160009054906101000a900473ffffffffffffffffffffffffffffffffffffffff1690806002018054610d5190611e76565b80601f0160208091040260200160405190810160405280929190818152602001828054610d7d90611e76565b8015610dca5780601f10610d9f57610100808354040283529160200191610dca565b820191906000526020600020905b815481529060010190602001808311610dad57829003601f168201915b5050505050908060030154908060050160009054906101000a900460ff16905085565b600360009054906101000a900473ffffffffffffffffffffffffffffffffffffffff1681565b600760009054906101000a900460ff1681565b60006060806000806000806000600360009054906101000a900473ffffffffffffffffffffffffffffffffffffffff16975060048054610e6590611e76565b80601f0160208091040260200160405190810160405280929190818152602001828054610e9190611e76565b8015610ede5780601f10610eb357610100808354040283529160200191610ede565b820191906000526020600020905b815481529060010190602001808311610ec157829003601f168201915b50505050509650600760009054906101000a900460ff16945060058054610f0490611e76565b80601f0160208091040260200160405190810160405280929190818152602001828054610f3090611e76565b8015610f7d5780601f10610f5257610100808354040283529160200191610f7d565b820191906000526020600020905b815481529060010190602001808311610f6057829003601f168201915b50505050509550600154935060025492506009549150600b5490509091929394959697565b60058054610faf90611e76565b80601f0160208091040260200160405190810160405280929190818152602001828054610fdb90611e76565b80156110285780601f10610ffd57610100808354040283529160200191611028565b820191906000526020600020905b81548152906001019060200180831161100b57829003601f168201915b505050505081565b6000600281111561106a577f4e487b7100000000000000000000000000000000000000000000000000000000600052602160045260246000fd5b600760009054906101000a900460ff1660028111156110b2577f4e487b7100000000000000000000000000000000000000000000000000000000600052602160045260246000fd5b1480156110c0575060095442105b6110ff576040517f08c379a00000000000000000000000000000000000000000000000000000000081526004016110f690611b76565b60405180910390fd5b600360009054906101000a900473ffffffffffffffffffffffffffffffffffffffff1673ffffffffffffffffffffffffffffffffffffffff163373ffffffffffffffffffffffffffffffffffffffff16141561115a57600080fd5b6111626113e3565b6111b434600660003373ffffffffffffffffffffffffffffffffffffffff1673ffffffffffffffffffffffffffffffffffffffff1681526020019081526020016000205461148b90919063ffffffff16565b600660003373ffffffffffffffffffffffffffffffffffffffff1673ffffffffffffffffffffffffffffffffffffffff1681526020019081526020016000208190555061120c3460025461148b90919063ffffffff16565b6002819055503373ffffffffffffffffffffffffffffffffffffffff167fcda619981924cb5cfd654b61cf0f4ef8299cee9f2f1e9cb23774af6f11a7f9053460025460405161125c929190611ccb565b60405180910390a260015460025410611333576001600760006101000a81548160ff021916908360028111156112bb577f4e487b7100000000000000000000000000000000000000000000000000000000600052602160045260246000fd5b0217905550600360009054906101000a900473ffffffffffffffffffffffffffffffffffffffff1673ffffffffffffffffffffffffffffffffffffffff167f5d69eee4b16dceba60f559d3c6b9f96c3f7c7342fb1d06c1d2f7e14f8120c4df60025460405161132a9190611c56565b60405180910390a25b565b60025481565b600360009054906101000a900473ffffffffffffffffffffffffffffffffffffffff1673ffffffffffffffffffffffffffffffffffffffff163373ffffffffffffffffffffffffffffffffffffffff16146113cb576040517f08c379a00000000000000000000000000000000000000000000000000000000081526004016113c290611b96565b60405180910390fd5b565b600081836113db9190611da2565b905092915050565b6000600660003373ffffffffffffffffffffffffffffffffffffffff1673ffffffffffffffffffffffffffffffffffffffff1681526020019081526020016000205414156114895760016008600082825461143e9190611d1b565b925050819055503373ffffffffffffffffffffffffffffffffffffffff167f62e6a5118be03f9bfedb79b0ed7ed75ee4a9e15fc4c69d2c4976acde26fa2d5f60405160405180910390a25b565b600081836114999190611d1b565b905092915050565b8280546114ad90611e76565b90600052602060002090601f0160209004810192826114cf5760008555611516565b82601f106114e857803560ff1916838001178555611516565b82800160010185558215611516579182015b828111156115155782358255916020019190600101906114fa565b5b5090506115239190611527565b5090565b5b80821115611540576000816000905550600101611528565b5090565b60008135905061155381611fd2565b92915050565b60008083601f84011261156b57600080fd5b8235905067ffffffffffffffff81111561158457600080fd5b60208301915083600182028301111561159c57600080fd5b9250929050565b6000813590506115b281611fe9565b92915050565b6000602082840312156115ca57600080fd5b60006115d884828501611544565b91505092915050565b6000602082840312156115f357600080fd5b6000611601848285016115a3565b91505092915050565b60008060006040848603121561161f57600080fd5b600061162d868287016115a3565b935050602084013567ffffffffffffffff81111561164a57600080fd5b61165686828701611559565b92509250509250925092565b61166b81611dd6565b82525050565b61167a81611de8565b82525050565b61168981611e31565b82525050565b600061169a82611cf4565b6116a48185611d0a565b93506116b4818560208601611e43565b6116bd81611fad565b840191505092915050565b60006116d5601283611d0a565b91507f5573657220616c726561647920766f74656400000000000000000000000000006000830152602082019050919050565b6000611715601983611d0a565b91507f50726f6a65637420686173206e6f7420656e64656420796574000000000000006000830152602082019050919050565b6000611755603383611d0a565b91507f52657175657374656420616d6f756e742069732067726561746572207468616e60008301527f2074686520617661696c61626c65206f6e652e000000000000000000000000006020830152604082019050919050565b60006117bb601683611d0a565b91507f4e6f20616d6f756e742077617320696e766573746564000000000000000000006000830152602082019050919050565b60006117fb601e83611d0a565b91507f50726f6a656374206973206e6f7420696e20496e7665737420537461746500006000830152602082019050919050565b600061183b600083611cff565b9150600082019050919050565b6000611855602483611d0a565b91507f55736572206973206e6f7420746865206f776e6572206f66207468652050726f60008301527f6a656374000000000000000000000000000000000000000000000000000000006020830152604082019050919050565b60006118bb601483611d0a565b91507f4e6f7420656e6f75676820616d6f756e742121210000000000000000000000006000830152602082019050919050565b60006118fb601f83611d0a565b91507f5265656e7472616e637947756172643a207265656e7472616e742063616c6c006000830152602082019050919050565b600061193b601883611d0a565b91507f5769746864726177616c20616c726561647920646f6e652100000000000000006000830152602082019050919050565b600061197b601983611d0a565b91507f476f616c20686173206e6f74206265656e2072656163686564000000000000006000830152602082019050919050565b60006119bb601183611d0a565b91507f4e6f7420656e6f75676820766f746573210000000000000000000000000000006000830152602082019050919050565b6119f781611e27565b82525050565b6000611a088261182e565b9150819050919050565b6000602082019050611a276000830184611662565b92915050565b600061010082019050611a43600083018b611662565b8181036020830152611a55818a61168f565b90508181036040830152611a69818961168f565b9050611a786060830188611680565b611a8560808301876119ee565b611a9260a08301866119ee565b611a9f60c08301856119ee565b611aac60e08301846119ee565b9998505050505050505050565b6000602082019050611ace6000830184611680565b92915050565b60006020820190508181036000830152611aee818461168f565b905092915050565b60006020820190508181036000830152611b0f816116c8565b9050919050565b60006020820190508181036000830152611b2f81611708565b9050919050565b60006020820190508181036000830152611b4f81611748565b9050919050565b60006020820190508181036000830152611b6f816117ae565b9050919050565b60006020820190508181036000830152611b8f816117ee565b9050919050565b60006020820190508181036000830152611baf81611848565b9050919050565b60006020820190508181036000830152611bcf816118ae565b9050919050565b60006020820190508181036000830152611bef816118ee565b9050919050565b60006020820190508181036000830152611c0f8161192e565b9050919050565b60006020820190508181036000830152611c2f8161196e565b9050919050565b60006020820190508181036000830152611c4f816119ae565b9050919050565b6000602082019050611c6b60008301846119ee565b92915050565b600060a082019050611c8660008301886119ee565b611c936020830187611662565b8181036040830152611ca5818661168f565b9050611cb460608301856119ee565b611cc16080830184611671565b9695505050505050565b6000604082019050611ce060008301856119ee565b611ced60208301846119ee565b9392505050565b600081519050919050565b600081905092915050565b600082825260208201905092915050565b6000611d2682611e27565b9150611d3183611e27565b9250827fffffffffffffffffffffffffffffffffffffffffffffffffffffffffffffffff03821115611d6657611d65611ef1565b5b828201905092915050565b6000611d7c82611e27565b9150611d8783611e27565b925082611d9757611d96611f20565b5b828204905092915050565b6000611dad82611e27565b9150611db883611e27565b925082821015611dcb57611dca611ef1565b5b828203905092915050565b6000611de182611e07565b9050919050565b60008115159050919050565b6000819050611e0282611fbe565b919050565b600073ffffffffffffffffffffffffffffffffffffffff82169050919050565b6000819050919050565b6000611e3c82611df4565b9050919050565b60005b83811015611e61578082015181840152602081019050611e46565b83811115611e70576000848401525b50505050565b60006002820490506001821680611e8e57607f821691505b60208210811415611ea257611ea1611f7e565b5b50919050565b6000611eb382611e27565b91507fffffffffffffffffffffffffffffffffffffffffffffffffffffffffffffffff821415611ee657611ee5611ef1565b5b600182019050919050565b7f4e487b7100000000000000000000000000000000000000000000000000000000600052601160045260246000fd5b7f4e487b7100000000000000000000000000000000000000000000000000000000600052601260045260246000fd5b7f4e487b7100000000000000000000000000000000000000000000000000000000600052602160045260246000fd5b7f4e487b7100000000000000000000000000000000000000000000000000000000600052602260045260246000fd5b6000601f19601f8301169050919050565b60038110611fcf57611fce611f4f565b5b50565b611fdb81611dd6565b8114611fe657600080fd5b50565b611ff281611e27565b8114611ffd57600080fd5b5056fea2646970667358221220f1348846d2af25ac11f2a568264bf3f224e3f7d55d42ba603986a50d483b243164736f6c63430008000033",
  "immutableReferences": {},
  "source": "// SPDX-License-Identifier: MIT\r\npragma solidity 0.8.0;\r\n\r\nimport \"@openzeppelin/contracts/utils/math/SafeMath.sol\";\r\nimport \"@openzeppelin/contracts/security/ReentrancyGuard.sol\";\r\n\r\n/// @title A Contract for making Visions\r\n/// @author K. Koliopoulou\r\n/// @notice You can use this contract to construct new Visions\r\ncontract Etherpreneur {\r\n    address public owner = msg.sender;\r\n    Vision[] private visions;\r\n\r\n    event NewVisionCreated(\r\n        address _visionAddress,\r\n        address _owner,\r\n        string _type,\r\n        string _desciption,\r\n        uint _amountGoal\r\n    );\r\n\r\n    function createVision(string calldata visionType, string calldata visionDescr, uint amountGoal, uint deadline) external {\r\n\r\n        Vision vision = new Vision(msg.sender, amountGoal, visionType, visionDescr, deadline);\r\n\r\n        visions.push(vision);\r\n\r\n        emit NewVisionCreated(\r\n            address(vision),\r\n            msg.sender,\r\n            visionType,\r\n            visionDescr,\r\n            amountGoal\r\n        );\r\n    }\r\n\r\n    function getAllVisions() external view returns (Vision[] memory) {\r\n        return visions;\r\n    }\r\n}\r\n\r\n/// @title A Contract that depicts a Vision with its info and functions for investments, payments, votes etc\r\ncontract Vision is ReentrancyGuard {\r\n    using SafeMath for uint;\r\n\r\n    enum State {\r\n        INVEST,\r\n        ENDED,\r\n        PAID\r\n    }\r\n    uint public amountGoal;\r\n    uint public currentAmount;\r\n    address public owner;\r\n    string public visionType;\r\n    string public visionDescr;\r\n    mapping(address => uint) public investors;\r\n    State public state = State.INVEST;\r\n    uint public sumOfInvestors;\r\n    uint public deadline;\r\n\r\n    struct WithdrawReq {\r\n        uint withdrawAmount;\r\n        address receiver;\r\n        string withdrawalReason;\r\n        uint votes;\r\n        mapping(address => bool) votedInvestors;\r\n        bool isDone;\r\n    }\r\n\r\n    WithdrawReq[] public requests;\r\n    uint public idxReq = 0;\r\n\r\n    function _onlyOwner() private{\r\n        require(msg.sender == owner, \"User is not the owner of the Project\");\r\n    }\r\n    modifier onlyOwner(){\r\n        _onlyOwner();\r\n        _;\r\n    }\r\n\r\n    modifier canInvest(){\r\n        require(state == State.INVEST && block.timestamp < deadline, \"Project is not in Invest State\");\r\n        _;\r\n    }\r\n\r\n    modifier hasEnded(){\r\n        require(state == State.ENDED, \"Project has not ended yet\");\r\n        _;\r\n    }\r\n\r\n    modifier goalReached(){\r\n        require(currentAmount >= amountGoal, \"Goal has not been reached\");\r\n        _;\r\n    }\r\n\r\n    modifier isInvestor(){\r\n        require(investors[msg.sender] > 0, \"No amount was invested\");\r\n        _;\r\n    }\r\n\r\n    event VisionCreated(address indexed owner, uint amountGoal, string visionType, string visionDescr);\r\n    event InvestorAdded(address indexed investor);\r\n    event AmountReceived(address indexed _from, uint receivedAmount, uint currentAmount);\r\n    event AmountSent(address indexed _from, uint _amount);\r\n    event WithdrawnSuccess(address indexed _from, uint _amount);\r\n    event WithdrawnFailure(address indexed _from, uint _amount);\r\n    event GoalAchieved(address indexed owner, uint currentAmount);\r\n\r\n\r\n    constructor(address _owner, uint _amountGoal, string memory _type, string memory _descr, uint256 numOfDays) {\r\n        owner = _owner;\r\n        amountGoal = _amountGoal;\r\n        visionType = _type;\r\n        visionDescr = _descr;\r\n        deadline = block.timestamp + (numOfDays * 1 days);\r\n        //TODO: revisit this assignment\r\n        emit VisionCreated(_owner, _amountGoal, _type, _descr);\r\n    }\r\n\r\n    /// @notice Invest amount to a Vision\r\n    function invest() external canInvest payable {\r\n        require(msg.sender != owner);\r\n        addInvestor();\r\n        investors[msg.sender] = investors[msg.sender].add(msg.value);\r\n        currentAmount = currentAmount.add(msg.value);\r\n        emit AmountReceived(msg.sender, msg.value, currentAmount);\r\n        if (currentAmount >= amountGoal) {\r\n            state = State.ENDED;\r\n            emit GoalAchieved(owner, currentAmount);\r\n        }\r\n    }\r\n\r\n    /// @notice Add investor\r\n    /// @dev Before adding checks if already investor exists\r\n    function addInvestor() private {\r\n        if (investors[msg.sender] == 0) {//TODO:Possible modifier\r\n            sumOfInvestors += 1;\r\n            emit InvestorAdded(msg.sender);\r\n        }\r\n    }\r\n\r\n    /// @notice Creates a withdraw request\r\n    /// @param _withdrawAmount the amount to be withdrawn, _receiver the address of the receiver, _withdrawalReason the reason of the withdrawal\r\n    function createWithdrawRequest(uint _withdrawAmount, string calldata _withdrawalReason) public onlyOwner hasEnded {\r\n        require(currentAmount >= _withdrawAmount, 'Requested amount is greater than the available one.');\r\n        //TODO:Possible modifier\r\n        WithdrawReq storage newReq = requests.push();\r\n        newReq.receiver = msg.sender;\r\n        newReq.withdrawAmount = _withdrawAmount;\r\n        newReq.withdrawalReason = _withdrawalReason;\r\n        newReq.votes = 0;\r\n        newReq.isDone = false;\r\n        idxReq++;\r\n    }\r\n\r\n    /// @notice Vote for a withdrawal request\r\n    /// @param idx the index of the request\r\n    function vote(uint idx) public goalReached isInvestor {\r\n        WithdrawReq storage withdrawReq = requests[idx];\r\n        require(withdrawReq.votedInvestors[msg.sender] == false, \"User already voted\");\r\n        withdrawReq.votedInvestors[msg.sender] = true;\r\n        withdrawReq.votes++;\r\n    }\r\n\r\n    /// @notice Send the amount requested to the receiver\r\n    /// @param idx the index of the request\r\n    function withdraw(uint idx) public onlyOwner payable nonReentrant hasEnded {\r\n        WithdrawReq storage req = requests[idx];\r\n        require(req.isDone == false, \"Withdrawal already done!\");\r\n        require(req.votes >= sumOfInvestors / 2, \"Not enough votes!\"); //TODO:What happens if 1 investor\r\n        currentAmount = currentAmount.sub(req.withdrawAmount);\r\n        require(currentAmount>=0,\"Not enough amount!!!\");\r\n        (bool success,) = req.receiver.call{value : req.withdrawAmount}(\"\");\r\n        if (success) {\r\n            req.isDone = true;\r\n            if(currentAmount==0) state = State.PAID;\r\n            emit WithdrawnSuccess(req.receiver, req.withdrawAmount);\r\n        } else {\r\n            emit WithdrawnFailure(req.receiver, req.withdrawAmount);\r\n        }\r\n    }\r\n    //////////////\r\n    function getVision() public view returns\r\n    (\r\n        address _owner,\r\n        string memory _type,\r\n        string memory _description,\r\n        State _currentState,\r\n        uint256 _goal,\r\n        uint256 _currentAmount,\r\n        uint256 _deadline,\r\n        uint _idxReq\r\n    ) {\r\n        _owner = owner;\r\n        _type = visionType;\r\n        _currentState = state;\r\n        _description = visionDescr;\r\n        _goal = amountGoal;\r\n        _currentAmount = currentAmount;\r\n        _deadline = deadline;\r\n        _idxReq = idxReq;\r\n    }\r\n\r\n    //TODO:Revisit\r\n    receive() external payable {\r\n        revert();\r\n    }\r\n\r\n    fallback() external payable {\r\n        revert();\r\n    }\r\n}\r\n",
  "sourcePath": "/mnt/c/Users/kwnst/WebstormProjects/blockchain-developer-bootcamp-final-project_v2/contracts/Etherpreneur.sol",
  "compiler": {
    "name": "solc",
    "version": "0.8.0+commit.c7dfd78e.Emscripten.clang"
  },
  "schemaVersion": "3.4.3",
  "updatedAt": "2021-11-10T22:21:05.118Z",
  "devdoc": {
    "kind": "dev",
    "methods": {
      "createWithdrawRequest(uint256,string)": {
        "params": {
          "_withdrawAmount": "the amount to be withdrawn, _receiver the address of the receiver, _withdrawalReason the reason of the withdrawal"
        }
      },
      "vote(uint256)": {
        "params": {
          "idx": "the index of the request"
        }
      },
      "withdraw(uint256)": {
        "params": {
          "idx": "the index of the request"
        }
      }
    },
    "title": "A Contract that depicts a Vision with its info and functions for investments, payments, votes etc",
    "version": 1
  },
  "userdoc": {
    "kind": "user",
    "methods": {
      "createWithdrawRequest(uint256,string)": {
        "notice": "Creates a withdraw request"
      },
      "invest()": {
        "notice": "Invest amount to a Vision"
      },
      "vote(uint256)": {
        "notice": "Vote for a withdrawal request"
      },
      "withdraw(uint256)": {
        "notice": "Send the amount requested to the receiver"
      }
    },
    "version": 1
  }
}