{
  "contractName": "Vision",
  "abi": [
    {
      "inputs": [
        {
          "internalType": "address",
          "name": "_owner",
          "type": "address"
        },
        {
          "internalType": "uint256",
          "name": "_amountGoal",
          "type": "uint256"
        },
        {
          "internalType": "string",
          "name": "_type",
          "type": "string"
        },
        {
          "internalType": "string",
          "name": "_descr",
          "type": "string"
        },
        {
          "internalType": "uint256",
          "name": "numOfDays",
          "type": "uint256"
        }
      ],
      "stateMutability": "nonpayable",
      "type": "constructor"
    },
    {
      "anonymous": false,
      "inputs": [
        {
          "indexed": true,
          "internalType": "address",
          "name": "_from",
          "type": "address"
        },
        {
          "indexed": false,
          "internalType": "uint256",
          "name": "receivedAmount",
          "type": "uint256"
        },
        {
          "indexed": false,
          "internalType": "uint256",
          "name": "currentAmount",
          "type": "uint256"
        }
      ],
      "name": "AmountReceived",
      "type": "event"
    },
    {
      "anonymous": false,
      "inputs": [
        {
          "indexed": true,
          "internalType": "address",
          "name": "_from",
          "type": "address"
        },
        {
          "indexed": false,
          "internalType": "uint256",
          "name": "_amount",
          "type": "uint256"
        }
      ],
      "name": "AmountSent",
      "type": "event"
    },
    {
      "anonymous": false,
      "inputs": [
        {
          "indexed": true,
          "internalType": "address",
          "name": "owner",
          "type": "address"
        },
        {
          "indexed": false,
          "internalType": "uint256",
          "name": "currentAmount",
          "type": "uint256"
        }
      ],
      "name": "GoalAchieved",
      "type": "event"
    },
    {
      "anonymous": false,
      "inputs": [
        {
          "indexed": true,
          "internalType": "address",
          "name": "investor",
          "type": "address"
        }
      ],
      "name": "InvestorAdded",
      "type": "event"
    },
    {
      "anonymous": false,
      "inputs": [
        {
          "indexed": true,
          "internalType": "bytes32",
          "name": "role",
          "type": "bytes32"
        },
        {
          "indexed": true,
          "internalType": "bytes32",
          "name": "previousAdminRole",
          "type": "bytes32"
        },
        {
          "indexed": true,
          "internalType": "bytes32",
          "name": "newAdminRole",
          "type": "bytes32"
        }
      ],
      "name": "RoleAdminChanged",
      "type": "event"
    },
    {
      "anonymous": false,
      "inputs": [
        {
          "indexed": true,
          "internalType": "bytes32",
          "name": "role",
          "type": "bytes32"
        },
        {
          "indexed": true,
          "internalType": "address",
          "name": "account",
          "type": "address"
        },
        {
          "indexed": true,
          "internalType": "address",
          "name": "sender",
          "type": "address"
        }
      ],
      "name": "RoleGranted",
      "type": "event"
    },
    {
      "anonymous": false,
      "inputs": [
        {
          "indexed": true,
          "internalType": "bytes32",
          "name": "role",
          "type": "bytes32"
        },
        {
          "indexed": true,
          "internalType": "address",
          "name": "account",
          "type": "address"
        },
        {
          "indexed": true,
          "internalType": "address",
          "name": "sender",
          "type": "address"
        }
      ],
      "name": "RoleRevoked",
      "type": "event"
    },
    {
      "anonymous": false,
      "inputs": [
        {
          "indexed": true,
          "internalType": "address",
          "name": "owner",
          "type": "address"
        },
        {
          "indexed": false,
          "internalType": "uint256",
          "name": "amountGoal",
          "type": "uint256"
        },
        {
          "indexed": false,
          "internalType": "string",
          "name": "visionType",
          "type": "string"
        },
        {
          "indexed": false,
          "internalType": "string",
          "name": "visionDescr",
          "type": "string"
        }
      ],
      "name": "VisionCreated",
      "type": "event"
    },
    {
      "anonymous": false,
      "inputs": [
        {
          "indexed": true,
          "internalType": "address",
          "name": "_from",
          "type": "address"
        },
        {
          "indexed": false,
          "internalType": "uint256",
          "name": "_amount",
          "type": "uint256"
        }
      ],
      "name": "WithdrawnSuccess",
      "type": "event"
    },
    {
      "stateMutability": "payable",
      "type": "fallback"
    },
    {
      "inputs": [],
      "name": "DEFAULT_ADMIN_ROLE",
      "outputs": [
        {
          "internalType": "bytes32",
          "name": "",
          "type": "bytes32"
        }
      ],
      "stateMutability": "view",
      "type": "function"
    },
    {
      "inputs": [],
      "name": "INVESTOR_ROLE",
      "outputs": [
        {
          "internalType": "bytes32",
          "name": "",
          "type": "bytes32"
        }
      ],
      "stateMutability": "view",
      "type": "function"
    },
    {
      "inputs": [],
      "name": "amountGoal",
      "outputs": [
        {
          "internalType": "uint256",
          "name": "",
          "type": "uint256"
        }
      ],
      "stateMutability": "view",
      "type": "function"
    },
    {
      "inputs": [],
      "name": "currentAmount",
      "outputs": [
        {
          "internalType": "uint256",
          "name": "",
          "type": "uint256"
        }
      ],
      "stateMutability": "view",
      "type": "function"
    },
    {
      "inputs": [],
      "name": "deadline",
      "outputs": [
        {
          "internalType": "uint256",
          "name": "",
          "type": "uint256"
        }
      ],
      "stateMutability": "view",
      "type": "function"
    },
    {
      "inputs": [
        {
          "internalType": "bytes32",
          "name": "role",
          "type": "bytes32"
        }
      ],
      "name": "getRoleAdmin",
      "outputs": [
        {
          "internalType": "bytes32",
          "name": "",
          "type": "bytes32"
        }
      ],
      "stateMutability": "view",
      "type": "function"
    },
    {
      "inputs": [
        {
          "internalType": "bytes32",
          "name": "role",
          "type": "bytes32"
        },
        {
          "internalType": "address",
          "name": "account",
          "type": "address"
        }
      ],
      "name": "grantRole",
      "outputs": [],
      "stateMutability": "nonpayable",
      "type": "function"
    },
    {
      "inputs": [
        {
          "internalType": "bytes32",
          "name": "role",
          "type": "bytes32"
        },
        {
          "internalType": "address",
          "name": "account",
          "type": "address"
        }
      ],
      "name": "hasRole",
      "outputs": [
        {
          "internalType": "bool",
          "name": "",
          "type": "bool"
        }
      ],
      "stateMutability": "view",
      "type": "function"
    },
    {
      "inputs": [],
      "name": "idxReq",
      "outputs": [
        {
          "internalType": "uint256",
          "name": "",
          "type": "uint256"
        }
      ],
      "stateMutability": "view",
      "type": "function"
    },
    {
      "inputs": [
        {
          "internalType": "address",
          "name": "",
          "type": "address"
        }
      ],
      "name": "investors",
      "outputs": [
        {
          "internalType": "uint256",
          "name": "",
          "type": "uint256"
        }
      ],
      "stateMutability": "view",
      "type": "function"
    },
    {
      "inputs": [],
      "name": "owner",
      "outputs": [
        {
          "internalType": "address",
          "name": "",
          "type": "address"
        }
      ],
      "stateMutability": "view",
      "type": "function"
    },
    {
      "inputs": [
        {
          "internalType": "bytes32",
          "name": "role",
          "type": "bytes32"
        },
        {
          "internalType": "address",
          "name": "account",
          "type": "address"
        }
      ],
      "name": "renounceRole",
      "outputs": [],
      "stateMutability": "nonpayable",
      "type": "function"
    },
    {
      "inputs": [
        {
          "internalType": "uint256",
          "name": "",
          "type": "uint256"
        }
      ],
      "name": "requests",
      "outputs": [
        {
          "internalType": "uint256",
          "name": "withdrawAmount",
          "type": "uint256"
        },
        {
          "internalType": "address",
          "name": "receiver",
          "type": "address"
        },
        {
          "internalType": "string",
          "name": "withdrawalReason",
          "type": "string"
        },
        {
          "internalType": "uint256",
          "name": "votes",
          "type": "uint256"
        },
        {
          "internalType": "bool",
          "name": "isDone",
          "type": "bool"
        }
      ],
      "stateMutability": "view",
      "type": "function"
    },
    {
      "inputs": [
        {
          "internalType": "bytes32",
          "name": "role",
          "type": "bytes32"
        },
        {
          "internalType": "address",
          "name": "account",
          "type": "address"
        }
      ],
      "name": "revokeRole",
      "outputs": [],
      "stateMutability": "nonpayable",
      "type": "function"
    },
    {
      "inputs": [],
      "name": "state",
      "outputs": [
        {
          "internalType": "enum Vision.State",
          "name": "",
          "type": "uint8"
        }
      ],
      "stateMutability": "view",
      "type": "function"
    },
    {
      "inputs": [],
      "name": "sumOfInvestors",
      "outputs": [
        {
          "internalType": "uint256",
          "name": "",
          "type": "uint256"
        }
      ],
      "stateMutability": "view",
      "type": "function"
    },
    {
      "inputs": [
        {
          "internalType": "bytes4",
          "name": "interfaceId",
          "type": "bytes4"
        }
      ],
      "name": "supportsInterface",
      "outputs": [
        {
          "internalType": "bool",
          "name": "",
          "type": "bool"
        }
      ],
      "stateMutability": "view",
      "type": "function"
    },
    {
      "inputs": [],
      "name": "visionDescr",
      "outputs": [
        {
          "internalType": "string",
          "name": "",
          "type": "string"
        }
      ],
      "stateMutability": "view",
      "type": "function"
    },
    {
      "inputs": [],
      "name": "visionType",
      "outputs": [
        {
          "internalType": "string",
          "name": "",
          "type": "string"
        }
      ],
      "stateMutability": "view",
      "type": "function"
    },
    {
      "stateMutability": "payable",
      "type": "receive"
    },
    {
      "inputs": [],
      "name": "invest",
      "outputs": [],
      "stateMutability": "payable",
      "type": "function"
    },
    {
      "inputs": [],
      "name": "withdrawInvestedAmount",
      "outputs": [
        {
          "internalType": "bool",
          "name": "",
          "type": "bool"
        }
      ],
      "stateMutability": "payable",
      "type": "function"
    },
    {
      "inputs": [
        {
          "internalType": "address",
          "name": "investor",
          "type": "address"
        }
      ],
      "name": "getInvestorAmount",
      "outputs": [
        {
          "internalType": "uint256",
          "name": "",
          "type": "uint256"
        }
      ],
      "stateMutability": "view",
      "type": "function"
    },
    {
      "inputs": [
        {
          "internalType": "uint256",
          "name": "_withdrawAmount",
          "type": "uint256"
        },
        {
          "internalType": "string",
          "name": "_withdrawalReason",
          "type": "string"
        }
      ],
      "name": "createWithdrawRequest",
      "outputs": [],
      "stateMutability": "nonpayable",
      "type": "function"
    },
    {
      "inputs": [
        {
          "internalType": "uint256",
          "name": "idx",
          "type": "uint256"
        }
      ],
      "name": "vote",
      "outputs": [],
      "stateMutability": "nonpayable",
      "type": "function"
    },
    {
      "inputs": [
        {
          "internalType": "uint256",
          "name": "idx",
          "type": "uint256"
        }
      ],
      "name": "withdraw",
      "outputs": [],
      "stateMutability": "payable",
      "type": "function"
    },
    {
      "inputs": [
        {
          "internalType": "uint256",
          "name": "idx",
          "type": "uint256"
        },
        {
          "internalType": "address",
          "name": "voter",
          "type": "address"
        }
      ],
      "name": "hasUserVoted",
      "outputs": [
        {
          "internalType": "bool",
          "name": "",
          "type": "bool"
        }
      ],
      "stateMutability": "view",
      "type": "function"
    },
    {
      "inputs": [],
      "name": "getVision",
      "outputs": [
        {
          "internalType": "address",
          "name": "_owner",
          "type": "address"
        },
        {
          "internalType": "string",
          "name": "_type",
          "type": "string"
        },
        {
          "internalType": "string",
          "name": "_description",
          "type": "string"
        },
        {
          "internalType": "enum Vision.State",
          "name": "_currentState",
          "type": "uint8"
        },
        {
          "internalType": "uint256",
          "name": "_goal",
          "type": "uint256"
        },
        {
          "internalType": "uint256",
          "name": "_currentAmount",
          "type": "uint256"
        },
        {
          "internalType": "uint256",
          "name": "_deadline",
          "type": "uint256"
        },
        {
          "internalType": "uint256",
          "name": "_sumOfInvestors",
          "type": "uint256"
        },
        {
          "internalType": "uint256",
          "name": "_idxReq",
          "type": "uint256"
        }
      ],
      "stateMutability": "view",
      "type": "function"
    }
  ],
  "bytecode": "0x60806040526000600860006101000a81548160ff0219169083600281111562000051577f4e487b7100000000000000000000000000000000000000000000000000000000600052602160045260246000fd5b02179055506000600c553480156200006857600080fd5b5060405162003c6d38038062003c6d83398181016040528101906200008e9190620002e3565b600160008190555084600460006101000a81548173ffffffffffffffffffffffffffffffffffffffff021916908373ffffffffffffffffffffffffffffffffffffffff160217905550836002819055508260059080519060200190620000f692919062000193565b5081600690805190602001906200010f92919062000193565b50620151808162000121919062000514565b426200012e9190620004b7565b600a819055508473ffffffffffffffffffffffffffffffffffffffff167f802850d1fc951145cd3466e518077f136692705e2164472cd89c3b1c9618cdf38585856040516200018093929190620003e9565b60405180910390a25050505050620006f1565b828054620001a190620005e9565b90600052602060002090601f016020900481019282620001c5576000855562000211565b82601f10620001e057805160ff191683800117855562000211565b8280016001018555821562000211579182015b8281111562000210578251825591602001919060010190620001f3565b5b50905062000220919062000224565b5090565b5b808211156200023f57600081600090555060010162000225565b5090565b60006200025a620002548462000468565b62000434565b9050828152602081018484840111156200027357600080fd5b62000280848285620005b3565b509392505050565b6000815190506200029981620006bd565b92915050565b600082601f830112620002b157600080fd5b8151620002c384826020860162000243565b91505092915050565b600081519050620002dd81620006d7565b92915050565b600080600080600060a08688031215620002fc57600080fd5b60006200030c8882890162000288565b95505060206200031f88828901620002cc565b945050604086015167ffffffffffffffff8111156200033d57600080fd5b6200034b888289016200029f565b935050606086015167ffffffffffffffff8111156200036957600080fd5b62000377888289016200029f565b92505060806200038a88828901620002cc565b9150509295509295909350565b6000620003a4826200049b565b620003b08185620004a6565b9350620003c2818560208601620005b3565b620003cd81620006ac565b840191505092915050565b620003e381620005a9565b82525050565b6000606082019050620004006000830186620003d8565b818103602083015262000414818562000397565b905081810360408301526200042a818462000397565b9050949350505050565b6000604051905081810181811067ffffffffffffffff821117156200045e576200045d6200067d565b5b8060405250919050565b600067ffffffffffffffff8211156200048657620004856200067d565b5b601f19601f8301169050602081019050919050565b600081519050919050565b600082825260208201905092915050565b6000620004c482620005a9565b9150620004d183620005a9565b9250827fffffffffffffffffffffffffffffffffffffffffffffffffffffffffffffffff038211156200050957620005086200061f565b5b828201905092915050565b60006200052182620005a9565b91506200052e83620005a9565b9250817fffffffffffffffffffffffffffffffffffffffffffffffffffffffffffffffff04831182151516156200056a57620005696200061f565b5b828202905092915050565b6000620005828262000589565b9050919050565b600073ffffffffffffffffffffffffffffffffffffffff82169050919050565b6000819050919050565b60005b83811015620005d3578082015181840152602081019050620005b6565b83811115620005e3576000848401525b50505050565b600060028204905060018216806200060257607f821691505b602082108114156200061957620006186200064e565b5b50919050565b7f4e487b7100000000000000000000000000000000000000000000000000000000600052601160045260246000fd5b7f4e487b7100000000000000000000000000000000000000000000000000000000600052602260045260246000fd5b7f4e487b7100000000000000000000000000000000000000000000000000000000600052604160045260246000fd5b6000601f19601f8301169050919050565b620006c88162000575565b8114620006d457600080fd5b50565b620006e281620005a9565b8114620006ee57600080fd5b50565b61356c80620007016000396000f3fe6080604052600436106101a05760003560e01c80636f7bc9be116100ec578063c19d93fb1161008a578063d547741f11610064578063d547741f146105e0578063dc296ae114610609578063e8b5e51f14610646578063f441b1c814610650576101aa565b8063c19d93fb14610557578063c3726c3b14610582578063c9623159146105b5576101aa565b80638da5cb5b116100c65780638da5cb5b146104a657806391d14854146104d1578063a217fddf1461050e578063b57410dc14610539576101aa565b80636f7bc9be146103fd57806376082a5e1461043a57806381d12c5814610465576101aa565b806329dcb0cf116101595780632f2ff15d116101335780632f2ff15d1461034357806336568abe1461036c5780634a19b430146103955780635f75fae9146103c0576101aa565b806329dcb0cf146102d15780632a646054146102fc5780632e1a7d4d14610327576101aa565b80630121b93f146101af57806301ffc9a7146101d85780630785001c1461021557806312205b2f14610240578063248a9ca314610269578063298633be146102a6576101aa565b366101aa57600080fd5b600080fd5b3480156101bb57600080fd5b506101d660048036038101906101d191906126dd565b61067b565b005b3480156101e457600080fd5b506101ff60048036038101906101fa91906126b4565b610957565b60405161020c9190612e46565b60405180910390f35b34801561022157600080fd5b5061022a6109d1565b6040516102379190613099565b60405180910390f35b34801561024c57600080fd5b5061026760048036038101906102629190612742565b6109d7565b005b34801561027557600080fd5b50610290600480360381019061028b919061264f565b610c37565b60405161029d9190612e61565b60405180910390f35b3480156102b257600080fd5b506102bb610c57565b6040516102c89190613099565b60405180910390f35b3480156102dd57600080fd5b506102e6610c5d565b6040516102f39190613099565b60405180910390f35b34801561030857600080fd5b50610311610c63565b60405161031e9190613099565b60405180910390f35b610341600480360381019061033c91906126dd565b610c69565b005b34801561034f57600080fd5b5061036a60048036038101906103659190612678565b611158565b005b34801561037857600080fd5b50610393600480360381019061038e9190612678565b611181565b005b3480156103a157600080fd5b506103aa611204565b6040516103b79190612e97565b60405180910390f35b3480156103cc57600080fd5b506103e760048036038101906103e29190612626565b611292565b6040516103f49190613099565b60405180910390f35b34801561040957600080fd5b50610424600480360381019061041f9190612626565b6112db565b6040516104319190613099565b60405180910390f35b34801561044657600080fd5b5061044f6112f3565b60405161045c9190612e61565b60405180910390f35b34801561047157600080fd5b5061048c600480360381019061048791906126dd565b611317565b60405161049d9594939291906130b4565b60405180910390f35b3480156104b257600080fd5b506104bb611412565b6040516104c89190612d90565b60405180910390f35b3480156104dd57600080fd5b506104f860048036038101906104f39190612678565b611438565b6040516105059190612e46565b60405180910390f35b34801561051a57600080fd5b506105236114a3565b6040516105309190612e61565b60405180910390f35b6105416114aa565b60405161054e9190612e46565b60405180910390f35b34801561056357600080fd5b5061056c6117b2565b6040516105799190612e7c565b60405180910390f35b34801561058e57600080fd5b506105976117c5565b6040516105ac99989796959493929190612dab565b60405180910390f35b3480156105c157600080fd5b506105ca611948565b6040516105d79190612e97565b60405180910390f35b3480156105ec57600080fd5b5061060760048036038101906106029190612678565b6119d6565b005b34801561061557600080fd5b50610630600480360381019061062b9190612706565b6119ff565b60405161063d9190612e46565b60405180910390f35b61064e611aa4565b005b34801561065c57600080fd5b50610665611c9e565b6040516106729190613099565b60405180910390f35b600160028111156106b5577f4e487b7100000000000000000000000000000000000000000000000000000000600052602160045260246000fd5b600860009054906101000a900460ff1660028111156106fd577f4e487b7100000000000000000000000000000000000000000000000000000000600052602160045260246000fd5b1461073d576040517f08c379a000000000000000000000000000000000000000000000000000000000815260040161073490612fb9565b60405180910390fd5b6107677fb165298935924f540e4181c03493a5d686c54a0aaeb3f6216de85b7ffbba773833611438565b6107a6576040517f08c379a000000000000000000000000000000000000000000000000000000000815260040161079d90613079565b60405180910390fd5b6000600b82815481106107e2577f4e487b7100000000000000000000000000000000000000000000000000000000600052603260045260246000fd5b90600052602060002090600602019050600015158160050160009054906101000a900460ff1615151461084a576040517f08c379a000000000000000000000000000000000000000000000000000000000815260040161084190613019565b60405180910390fd5b600015158160040160003373ffffffffffffffffffffffffffffffffffffffff1673ffffffffffffffffffffffffffffffffffffffff16815260200190815260200160002060009054906101000a900460ff161515146108df576040517f08c379a00000000000000000000000000000000000000000000000000000000081526004016108d690612ed9565b60405180910390fd5b60018160040160003373ffffffffffffffffffffffffffffffffffffffff1673ffffffffffffffffffffffffffffffffffffffff16815260200190815260200160002060006101000a81548160ff02191690831515021790555080600301600081548092919061094e906133b0565b91905055505050565b60007f7965db0b000000000000000000000000000000000000000000000000000000007bffffffffffffffffffffffffffffffffffffffffffffffffffffffff1916827bffffffffffffffffffffffffffffffffffffffffffffffffffffffff191614806109ca57506109c982611ca4565b5b9050919050565b60025481565b600460009054906101000a900473ffffffffffffffffffffffffffffffffffffffff1673ffffffffffffffffffffffffffffffffffffffff163373ffffffffffffffffffffffffffffffffffffffff1614610a67576040517f08c379a0000000000000000000000000000000000000000000000000000000008152600401610a5e90612f99565b60405180910390fd5b60016002811115610aa1577f4e487b7100000000000000000000000000000000000000000000000000000000600052602160045260246000fd5b600860009054906101000a900460ff166002811115610ae9577f4e487b7100000000000000000000000000000000000000000000000000000000600052602160045260246000fd5b14610b29576040517f08c379a0000000000000000000000000000000000000000000000000000000008152600401610b2090612fb9565b60405180910390fd5b826003541015610b6e576040517f08c379a0000000000000000000000000000000000000000000000000000000008152600401610b6590612f59565b60405180910390fd5b6000600b6001816001815401808255809150500390600052602060002090600602019050338160010160006101000a81548173ffffffffffffffffffffffffffffffffffffffff021916908373ffffffffffffffffffffffffffffffffffffffff1602179055508381600001819055508282826002019190610bf19291906124e5565b506000816003018190555060008160050160006101000a81548160ff021916908315150217905550600c6000815480929190610c2c906133b0565b919050555050505050565b600060016000838152602001908152602001600020600101549050919050565b60095481565b600a5481565b600c5481565b600460009054906101000a900473ffffffffffffffffffffffffffffffffffffffff1673ffffffffffffffffffffffffffffffffffffffff163373ffffffffffffffffffffffffffffffffffffffff1614610cf9576040517f08c379a0000000000000000000000000000000000000000000000000000000008152600401610cf090612f99565b60405180910390fd5b60026000541415610d3f576040517f08c379a0000000000000000000000000000000000000000000000000000000008152600401610d3690612ff9565b60405180910390fd5b600260008190555060016002811115610d81577f4e487b7100000000000000000000000000000000000000000000000000000000600052602160045260246000fd5b600860009054906101000a900460ff166002811115610dc9577f4e487b7100000000000000000000000000000000000000000000000000000000600052602160045260246000fd5b14610e09576040517f08c379a0000000000000000000000000000000000000000000000000000000008152600401610e0090612fb9565b60405180910390fd5b6000600b8281548110610e45577f4e487b7100000000000000000000000000000000000000000000000000000000600052603260045260246000fd5b90600052602060002090600602019050600015158160050160009054906101000a900460ff16151514610ead576040517f08c379a0000000000000000000000000000000000000000000000000000000008152600401610ea490613019565b60405180910390fd5b6002600954610ebc91906131bf565b816003015410158015610ee357506001816003015414158015610ee157506001600954145b155b610f22576040517f08c379a0000000000000000000000000000000000000000000000000000000008152600401610f1990613059565b60405180910390fd5b610f3b8160000154600354611d0e90919063ffffffff16565b60038190555060006003541015610f87576040517f08c379a0000000000000000000000000000000000000000000000000000000008152600401610f7e90612fd9565b60405180910390fd5b60008160010160009054906101000a900473ffffffffffffffffffffffffffffffffffffffff1673ffffffffffffffffffffffffffffffffffffffff168260000154604051610fd590612d41565b60006040518083038185875af1925050503d8060008114611012576040519150601f19603f3d011682016040523d82523d6000602084013e611017565b606091505b505090508061105b576040517f08c379a000000000000000000000000000000000000000000000000000000000815260040161105290612f79565b60405180910390fd5b60018260050160006101000a81548160ff021916908315150217905550600060035414156110d5576002600860006101000a81548160ff021916908360028111156110cf577f4e487b7100000000000000000000000000000000000000000000000000000000600052602160045260246000fd5b02179055505b8160010160009054906101000a900473ffffffffffffffffffffffffffffffffffffffff1673ffffffffffffffffffffffffffffffffffffffff167f2089bb15d61bcd4b733abef2aeecdd97c9416dadbe007e9c4d8ce48dbec86c3483600001546040516111439190613099565b60405180910390a25050600160008190555050565b61116182610c37565b6111728161116d611d24565b611d2c565b61117c8383611dc9565b505050565b611189611d24565b73ffffffffffffffffffffffffffffffffffffffff168173ffffffffffffffffffffffffffffffffffffffff16146111f6576040517f08c379a00000000000000000000000000000000000000000000000000000000081526004016111ed90613039565b60405180910390fd5b6112008282611ea9565b5050565b600580546112119061337e565b80601f016020809104026020016040519081016040528092919081815260200182805461123d9061337e565b801561128a5780601f1061125f5761010080835404028352916020019161128a565b820191906000526020600020905b81548152906001019060200180831161126d57829003601f168201915b505050505081565b6000600760008373ffffffffffffffffffffffffffffffffffffffff1673ffffffffffffffffffffffffffffffffffffffff168152602001908152602001600020549050919050565b60076020528060005260406000206000915090505481565b7fb165298935924f540e4181c03493a5d686c54a0aaeb3f6216de85b7ffbba773881565b600b818154811061132757600080fd5b90600052602060002090600602016000915090508060000154908060010160009054906101000a900473ffffffffffffffffffffffffffffffffffffffff16908060020180546113769061337e565b80601f01602080910402602001604051908101604052809291908181526020018280546113a29061337e565b80156113ef5780601f106113c4576101008083540402835291602001916113ef565b820191906000526020600020905b8154815290600101906020018083116113d257829003601f168201915b5050505050908060030154908060050160009054906101000a900460ff16905085565b600460009054906101000a900473ffffffffffffffffffffffffffffffffffffffff1681565b60006001600084815260200190815260200160002060000160008373ffffffffffffffffffffffffffffffffffffffff1673ffffffffffffffffffffffffffffffffffffffff16815260200190815260200160002060009054906101000a900460ff16905092915050565b6000801b81565b60006114d67fb165298935924f540e4181c03493a5d686c54a0aaeb3f6216de85b7ffbba773833611438565b611515576040517f08c379a000000000000000000000000000000000000000000000000000000000815260040161150c90613079565b60405180910390fd5b600a5442101580156115a757506001600281111561155c577f4e487b7100000000000000000000000000000000000000000000000000000000600052602160045260246000fd5b600860009054906101000a900460ff1660028111156115a4577f4e487b7100000000000000000000000000000000000000000000000000000000600052602160045260246000fd5b14155b6115e6576040517f08c379a00000000000000000000000000000000000000000000000000000000081526004016115dd90612ef9565b60405180910390fd5b6002600054141561162c576040517f08c379a000000000000000000000000000000000000000000000000000000000815260040161162390612ff9565b60405180910390fd5b60026000819055506000600760003373ffffffffffffffffffffffffffffffffffffffff1673ffffffffffffffffffffffffffffffffffffffff168152602001908152602001600020549050600081141561168657600080fd5b6000600760003373ffffffffffffffffffffffffffffffffffffffff1673ffffffffffffffffffffffffffffffffffffffff1681526020019081526020016000208190555060003373ffffffffffffffffffffffffffffffffffffffff16826040516116f190612d41565b60006040518083038185875af1925050503d806000811461172e576040519150601f19603f3d011682016040523d82523d6000602084013e611733565b606091505b50509050801561175d5761175282600354611d0e90919063ffffffff16565b6003819055506117a2565b81600760003373ffffffffffffffffffffffffffffffffffffffff1673ffffffffffffffffffffffffffffffffffffffff168152602001908152602001600020819055505b8092505050600160008190555090565b600860009054906101000a900460ff1681565b6000606080600080600080600080600460009054906101000a900473ffffffffffffffffffffffffffffffffffffffff169850600580546118059061337e565b80601f01602080910402602001604051908101604052809291908181526020018280546118319061337e565b801561187e5780601f106118535761010080835404028352916020019161187e565b820191906000526020600020905b81548152906001019060200180831161186157829003601f168201915b50505050509750600860009054906101000a900460ff169550600680546118a49061337e565b80601f01602080910402602001604051908101604052809291908181526020018280546118d09061337e565b801561191d5780601f106118f25761010080835404028352916020019161191d565b820191906000526020600020905b81548152906001019060200180831161190057829003601f168201915b5050505050965060025494506003549350600a5492506009549150600c549050909192939495969798565b600680546119559061337e565b80601f01602080910402602001604051908101604052809291908181526020018280546119819061337e565b80156119ce5780601f106119a3576101008083540402835291602001916119ce565b820191906000526020600020905b8154815290600101906020018083116119b157829003601f168201915b505050505081565b6119df82610c37565b6119f0816119eb611d24565b611d2c565b6119fa8383611ea9565b505050565b600080600b8481548110611a3c577f4e487b7100000000000000000000000000000000000000000000000000000000600052603260045260246000fd5b906000526020600020906006020190508060040160008473ffffffffffffffffffffffffffffffffffffffff1673ffffffffffffffffffffffffffffffffffffffff16815260200190815260200160002060009054906101000a900460ff1691505092915050565b60006002811115611ade577f4e487b7100000000000000000000000000000000000000000000000000000000600052602160045260246000fd5b600860009054906101000a900460ff166002811115611b26577f4e487b7100000000000000000000000000000000000000000000000000000000600052602160045260246000fd5b148015611b345750600a5442105b611b73576040517f08c379a0000000000000000000000000000000000000000000000000000000008152600401611b6a90612f39565b60405180910390fd5b600460009054906101000a900473ffffffffffffffffffffffffffffffffffffffff1673ffffffffffffffffffffffffffffffffffffffff163373ffffffffffffffffffffffffffffffffffffffff161415611bce57600080fd5b611bd6611f8b565b611be0333461205d565b611bf5346003546120f690919063ffffffff16565b6003819055506002546003541115611c42576040517f08c379a0000000000000000000000000000000000000000000000000000000008152600401611c3990612f19565b60405180910390fd5b3373ffffffffffffffffffffffffffffffffffffffff167fcda619981924cb5cfd654b61cf0f4ef8299cee9f2f1e9cb23774af6f11a7f90534600354604051611c8c92919061310e565b60405180910390a2611c9c61210c565b565b60035481565b60007f01ffc9a7000000000000000000000000000000000000000000000000000000007bffffffffffffffffffffffffffffffffffffffffffffffffffffffff1916827bffffffffffffffffffffffffffffffffffffffffffffffffffffffff1916149050919050565b60008183611d1c919061324a565b905092915050565b600033905090565b611d368282611438565b611dc557611d5b8173ffffffffffffffffffffffffffffffffffffffff1660146121dd565b611d698360001c60206121dd565b604051602001611d7a929190612d56565b6040516020818303038152906040526040517f08c379a0000000000000000000000000000000000000000000000000000000008152600401611dbc9190612e97565b60405180910390fd5b5050565b611dd38282611438565b611ea557600180600084815260200190815260200160002060000160008373ffffffffffffffffffffffffffffffffffffffff1673ffffffffffffffffffffffffffffffffffffffff16815260200190815260200160002060006101000a81548160ff021916908315150217905550611e4a611d24565b73ffffffffffffffffffffffffffffffffffffffff168173ffffffffffffffffffffffffffffffffffffffff16837f2f8788117e7eff1d82e926ec794901d17c78024a50270940304540a733656f0d60405160405180910390a45b5050565b611eb38282611438565b15611f875760006001600084815260200190815260200160002060000160008373ffffffffffffffffffffffffffffffffffffffff1673ffffffffffffffffffffffffffffffffffffffff16815260200190815260200160002060006101000a81548160ff021916908315150217905550611f2c611d24565b73ffffffffffffffffffffffffffffffffffffffff168173ffffffffffffffffffffffffffffffffffffffff16837ff6391f5c32d9c69d2a47ea670b442974b53935d1edc7fd64eb21e047a839171b60405160405180910390a45b5050565b6000600760003373ffffffffffffffffffffffffffffffffffffffff1673ffffffffffffffffffffffffffffffffffffffff16815260200190815260200160002054141561205b57600160096000828254611fe69190613169565b925050819055506120177fb165298935924f540e4181c03493a5d686c54a0aaeb3f6216de85b7ffbba7738336124d7565b3373ffffffffffffffffffffffffffffffffffffffff167f62e6a5118be03f9bfedb79b0ed7ed75ee4a9e15fc4c69d2c4976acde26fa2d5f60405160405180910390a25b565b6120af81600760008573ffffffffffffffffffffffffffffffffffffffff1673ffffffffffffffffffffffffffffffffffffffff168152602001908152602001600020546120f690919063ffffffff16565b600760008473ffffffffffffffffffffffffffffffffffffffff1673ffffffffffffffffffffffffffffffffffffffff168152602001908152602001600020819055505050565b600081836121049190613169565b905092915050565b600254600354106121db576001600860006101000a81548160ff02191690836002811115612163577f4e487b7100000000000000000000000000000000000000000000000000000000600052602160045260246000fd5b0217905550600460009054906101000a900473ffffffffffffffffffffffffffffffffffffffff1673ffffffffffffffffffffffffffffffffffffffff167f5d69eee4b16dceba60f559d3c6b9f96c3f7c7342fb1d06c1d2f7e14f8120c4df6003546040516121d29190613099565b60405180910390a25b565b6060600060028360026121f091906131f0565b6121fa9190613169565b67ffffffffffffffff811115612239577f4e487b7100000000000000000000000000000000000000000000000000000000600052604160045260246000fd5b6040519080825280601f01601f19166020018201604052801561226b5781602001600182028036833780820191505090505b5090507f3000000000000000000000000000000000000000000000000000000000000000816000815181106122c9577f4e487b7100000000000000000000000000000000000000000000000000000000600052603260045260246000fd5b60200101907effffffffffffffffffffffffffffffffffffffffffffffffffffffffffffff1916908160001a9053507f780000000000000000000000000000000000000000000000000000000000000081600181518110612353577f4e487b7100000000000000000000000000000000000000000000000000000000600052603260045260246000fd5b60200101907effffffffffffffffffffffffffffffffffffffffffffffffffffffffffffff1916908160001a9053506000600184600261239391906131f0565b61239d9190613169565b90505b6001811115612489577f3031323334353637383961626364656600000000000000000000000000000000600f861660108110612405577f4e487b7100000000000000000000000000000000000000000000000000000000600052603260045260246000fd5b1a60f81b828281518110612442577f4e487b7100000000000000000000000000000000000000000000000000000000600052603260045260246000fd5b60200101907effffffffffffffffffffffffffffffffffffffffffffffffffffffffffffff1916908160001a905350600485901c94508061248290613354565b90506123a0565b50600084146124cd576040517f08c379a00000000000000000000000000000000000000000000000000000000081526004016124c490612eb9565b60405180910390fd5b8091505092915050565b6124e18282611dc9565b5050565b8280546124f19061337e565b90600052602060002090601f016020900481019282612513576000855561255a565b82601f1061252c57803560ff191683800117855561255a565b8280016001018555821561255a579182015b8281111561255957823582559160200191906001019061253e565b5b509050612567919061256b565b5090565b5b8082111561258457600081600090555060010161256c565b5090565b600081359050612597816134da565b92915050565b6000813590506125ac816134f1565b92915050565b6000813590506125c181613508565b92915050565b60008083601f8401126125d957600080fd5b8235905067ffffffffffffffff8111156125f257600080fd5b60208301915083600182028301111561260a57600080fd5b9250929050565b6000813590506126208161351f565b92915050565b60006020828403121561263857600080fd5b600061264684828501612588565b91505092915050565b60006020828403121561266157600080fd5b600061266f8482850161259d565b91505092915050565b6000806040838503121561268b57600080fd5b60006126998582860161259d565b92505060206126aa85828601612588565b9150509250929050565b6000602082840312156126c657600080fd5b60006126d4848285016125b2565b91505092915050565b6000602082840312156126ef57600080fd5b60006126fd84828501612611565b91505092915050565b6000806040838503121561271957600080fd5b600061272785828601612611565b925050602061273885828601612588565b9150509250929050565b60008060006040848603121561275757600080fd5b600061276586828701612611565b935050602084013567ffffffffffffffff81111561278257600080fd5b61278e868287016125c7565b92509250509250925092565b6127a38161327e565b82525050565b6127b281613290565b82525050565b6127c18161329c565b82525050565b6127d08161330f565b82525050565b60006127e182613137565b6127eb818561314d565b93506127fb818560208601613321565b612804816134b5565b840191505092915050565b600061281a82613137565b612824818561315e565b9350612834818560208601613321565b80840191505092915050565b600061284d60208361314d565b91507f537472696e67733a20686578206c656e67746820696e73756666696369656e746000830152602082019050919050565b600061288d60128361314d565b91507f5573657220616c726561647920766f74656400000000000000000000000000006000830152602082019050919050565b60006128cd60168361314d565b91507f566973696f6e20686173206e6f742065787069726564000000000000000000006000830152602082019050919050565b600061290d60268361314d565b91507f496e76657374656420616d6f756e74206578636565647320726571756573746560008301527f6420676f616c00000000000000000000000000000000000000000000000000006020830152604082019050919050565b6000612973601d8361314d565b91507f566973696f6e206973206e6f7420696e20496e766573742053746174650000006000830152602082019050919050565b60006129b360338361314d565b91507f52657175657374656420616d6f756e742069732067726561746572207468616e60008301527f2074686520617661696c61626c65206f6e652e000000000000000000000000006020830152604082019050919050565b6000612a1960158361314d565b91507f57697468647261776e20686173206661696c65642100000000000000000000006000830152602082019050919050565b6000612a5960238361314d565b91507f55736572206973206e6f7420746865206f776e6572206f66207468652056697360008301527f696f6e00000000000000000000000000000000000000000000000000000000006020830152604082019050919050565b6000612abf60188361314d565b91507f566973696f6e20686173206e6f7420656e6465642079657400000000000000006000830152602082019050919050565b6000612aff600083613142565b9150600082019050919050565b6000612b1960178361315e565b91507f416363657373436f6e74726f6c3a206163636f756e74200000000000000000006000830152601782019050919050565b6000612b5960148361314d565b91507f4e6f7420656e6f75676820616d6f756e742121210000000000000000000000006000830152602082019050919050565b6000612b99601f8361314d565b91507f5265656e7472616e637947756172643a207265656e7472616e742063616c6c006000830152602082019050919050565b6000612bd960188361314d565b91507f5769746864726177616c20616c726561647920646f6e652100000000000000006000830152602082019050919050565b6000612c1960118361315e565b91507f206973206d697373696e6720726f6c65200000000000000000000000000000006000830152601182019050919050565b6000612c59602f8361314d565b91507f416363657373436f6e74726f6c3a2063616e206f6e6c792072656e6f756e636560008301527f20726f6c657320666f722073656c6600000000000000000000000000000000006020830152604082019050919050565b6000612cbf60118361314d565b91507f4e6f7420656e6f75676820766f746573210000000000000000000000000000006000830152602082019050919050565b6000612cff601b8361314d565b91507f446f6573206e6f74206861766520696e766573746f7220726f6c6500000000006000830152602082019050919050565b612d3b81613305565b82525050565b6000612d4c82612af2565b9150819050919050565b6000612d6182612b0c565b9150612d6d828561280f565b9150612d7882612c0c565b9150612d84828461280f565b91508190509392505050565b6000602082019050612da5600083018461279a565b92915050565b600061012082019050612dc1600083018c61279a565b8181036020830152612dd3818b6127d6565b90508181036040830152612de7818a6127d6565b9050612df660608301896127c7565b612e036080830188612d32565b612e1060a0830187612d32565b612e1d60c0830186612d32565b612e2a60e0830185612d32565b612e38610100830184612d32565b9a9950505050505050505050565b6000602082019050612e5b60008301846127a9565b92915050565b6000602082019050612e7660008301846127b8565b92915050565b6000602082019050612e9160008301846127c7565b92915050565b60006020820190508181036000830152612eb181846127d6565b905092915050565b60006020820190508181036000830152612ed281612840565b9050919050565b60006020820190508181036000830152612ef281612880565b9050919050565b60006020820190508181036000830152612f12816128c0565b9050919050565b60006020820190508181036000830152612f3281612900565b9050919050565b60006020820190508181036000830152612f5281612966565b9050919050565b60006020820190508181036000830152612f72816129a6565b9050919050565b60006020820190508181036000830152612f9281612a0c565b9050919050565b60006020820190508181036000830152612fb281612a4c565b9050919050565b60006020820190508181036000830152612fd281612ab2565b9050919050565b60006020820190508181036000830152612ff281612b4c565b9050919050565b6000602082019050818103600083015261301281612b8c565b9050919050565b6000602082019050818103600083015261303281612bcc565b9050919050565b6000602082019050818103600083015261305281612c4c565b9050919050565b6000602082019050818103600083015261307281612cb2565b9050919050565b6000602082019050818103600083015261309281612cf2565b9050919050565b60006020820190506130ae6000830184612d32565b92915050565b600060a0820190506130c96000830188612d32565b6130d6602083018761279a565b81810360408301526130e881866127d6565b90506130f76060830185612d32565b61310460808301846127a9565b9695505050505050565b60006040820190506131236000830185612d32565b6131306020830184612d32565b9392505050565b600081519050919050565b600081905092915050565b600082825260208201905092915050565b600081905092915050565b600061317482613305565b915061317f83613305565b9250827fffffffffffffffffffffffffffffffffffffffffffffffffffffffffffffffff038211156131b4576131b36133f9565b5b828201905092915050565b60006131ca82613305565b91506131d583613305565b9250826131e5576131e4613428565b5b828204905092915050565b60006131fb82613305565b915061320683613305565b9250817fffffffffffffffffffffffffffffffffffffffffffffffffffffffffffffffff048311821515161561323f5761323e6133f9565b5b828202905092915050565b600061325582613305565b915061326083613305565b925082821015613273576132726133f9565b5b828203905092915050565b6000613289826132e5565b9050919050565b60008115159050919050565b6000819050919050565b60007fffffffff0000000000000000000000000000000000000000000000000000000082169050919050565b60008190506132e0826134c6565b919050565b600073ffffffffffffffffffffffffffffffffffffffff82169050919050565b6000819050919050565b600061331a826132d2565b9050919050565b60005b8381101561333f578082015181840152602081019050613324565b8381111561334e576000848401525b50505050565b600061335f82613305565b91506000821415613373576133726133f9565b5b600182039050919050565b6000600282049050600182168061339657607f821691505b602082108114156133aa576133a9613486565b5b50919050565b60006133bb82613305565b91507fffffffffffffffffffffffffffffffffffffffffffffffffffffffffffffffff8214156133ee576133ed6133f9565b5b600182019050919050565b7f4e487b7100000000000000000000000000000000000000000000000000000000600052601160045260246000fd5b7f4e487b7100000000000000000000000000000000000000000000000000000000600052601260045260246000fd5b7f4e487b7100000000000000000000000000000000000000000000000000000000600052602160045260246000fd5b7f4e487b7100000000000000000000000000000000000000000000000000000000600052602260045260246000fd5b6000601f19601f8301169050919050565b600381106134d7576134d6613457565b5b50565b6134e38161327e565b81146134ee57600080fd5b50565b6134fa8161329c565b811461350557600080fd5b50565b613511816132a6565b811461351c57600080fd5b50565b61352881613305565b811461353357600080fd5b5056fea2646970667358221220b3c7ae6ef7dc98d323aad4afeb7b10c0a3c8ab6a9b352311a317787679f1ab5664736f6c63430008000033",
  "immutableReferences": {},
  "source": "// SPDX-License-Identifier: MIT\r\npragma solidity 0.8.0;\r\n\r\nimport \"@openzeppelin/contracts/utils/math/SafeMath.sol\";\r\nimport \"@openzeppelin/contracts/access/AccessControl.sol\";\r\nimport \"@openzeppelin/contracts/security/ReentrancyGuard.sol\";\r\n\r\n/// @title A Contract for making Visions\r\n/// @author K. Koliopoulou\r\n/// @notice You can use this contract to construct new Visions\r\ncontract Etherpreneur {\r\n    address public owner = msg.sender;\r\n    Vision[] private visions;\r\n\r\n    event NewVisionCreated(\r\n        address _visionAddress,\r\n        address _owner,\r\n        string _type,\r\n        string _desciption,\r\n        uint _amountGoal\r\n    );\r\n\r\n    function createVision(string calldata visionType, string calldata visionDescr, uint amountGoal, uint deadline) external {\r\n\r\n        Vision vision = new Vision(msg.sender, amountGoal, visionType, visionDescr, deadline);\r\n\r\n        visions.push(vision);\r\n\r\n        emit NewVisionCreated(\r\n            address(vision),\r\n            msg.sender,\r\n            visionType,\r\n            visionDescr,\r\n            amountGoal\r\n        );\r\n    }\r\n\r\n    function getAllVisions() external view returns (Vision[] memory) {\r\n        return visions;\r\n    }\r\n}\r\n\r\n/// @title A Contract that depicts a Vision with its info and functions for investments, payments, votes etc\r\ncontract Vision is ReentrancyGuard, AccessControl {\r\n    using SafeMath for uint;\r\n    bytes32 public constant INVESTOR_ROLE = keccak256(\"INVESTOR_ROLE\");\r\n\r\n    enum State {\r\n        INVEST,\r\n        ENDED,\r\n        PAID\r\n    }\r\n    uint public amountGoal;\r\n    uint public currentAmount;\r\n    address public owner;\r\n    string public visionType;\r\n    string public visionDescr;\r\n    mapping(address => uint) public investors;\r\n    State public state = State.INVEST;\r\n    uint public sumOfInvestors;\r\n    uint public deadline;\r\n\r\n    struct WithdrawReq {\r\n        uint withdrawAmount;\r\n        address receiver;\r\n        string withdrawalReason;\r\n        uint votes;\r\n        mapping(address => bool) votedInvestors;\r\n        bool isDone;\r\n    }\r\n\r\n    WithdrawReq[] public requests;\r\n    uint public idxReq = 0;\r\n\r\n\r\n    modifier onlyOwner(){\r\n        require(msg.sender == owner, \"User is not the owner of the Vision\");\r\n        _;\r\n    }\r\n\r\n    modifier canInvest(){\r\n        require(state == State.INVEST && block.timestamp < deadline, \"Vision is not in Invest State\");\r\n        _;\r\n    }\r\n\r\n    modifier hasEnded(){\r\n        require(state == State.ENDED, \"Vision has not ended yet\");\r\n        _;\r\n    }\r\n\r\n    modifier hasExpired(){\r\n        require(block.timestamp >= deadline && state != State.ENDED, \"Vision has not expired\");\r\n        _;\r\n    }\r\n\r\n    modifier hasInvestorRole(){\r\n        require(hasRole(INVESTOR_ROLE, msg.sender), \"Does not have investor role\");\r\n        _;\r\n    }\r\n\r\n    event VisionCreated(address indexed owner, uint amountGoal, string visionType, string visionDescr);\r\n    event InvestorAdded(address indexed investor);\r\n    event AmountReceived(address indexed _from, uint receivedAmount, uint currentAmount);\r\n    event AmountSent(address indexed _from, uint _amount);\r\n    event WithdrawnSuccess(address indexed _from, uint _amount);\r\n    event GoalAchieved(address indexed owner, uint currentAmount);\r\n\r\n    constructor(address _owner, uint _amountGoal, string memory _type, string memory _descr, uint256 numOfDays) {\r\n        owner = _owner;\r\n        amountGoal = _amountGoal;\r\n        visionType = _type;\r\n        visionDescr = _descr;\r\n        deadline = block.timestamp + (numOfDays * 1 days);\r\n        emit VisionCreated(_owner, _amountGoal, _type, _descr);\r\n    }\r\n\r\n    /// @notice Invest amount to a Vision\r\n    function invest() external canInvest payable {\r\n        require(msg.sender != owner);\r\n        addInvestor();\r\n        allowForPull(msg.sender, msg.value);\r\n        currentAmount = currentAmount.add(msg.value);\r\n        require(currentAmount <= amountGoal, \"Invested amount exceeds requested goal\");\r\n        emit AmountReceived(msg.sender, msg.value, currentAmount);\r\n        checkVisionState();\r\n    }\r\n\r\n    /// @notice Checks if Vision's goal is reached\r\n    function checkVisionState() private {\r\n        if (currentAmount >= amountGoal) {\r\n            state = State.ENDED;\r\n            emit GoalAchieved(owner, currentAmount);\r\n        }\r\n    }\r\n\r\n    /// @notice Adds available amount per investor, pull over push pattern\r\n    /// @param receiver the investor address\r\n    /// @param amount the amount could be withdrawn\r\n    function allowForPull(address receiver, uint amount) private {\r\n        investors[receiver] = investors[receiver].add(amount);\r\n    }\r\n\r\n    /// @notice Investors can withdraw invested amount if the Vision is expired\r\n    function withdrawInvestedAmount() public hasInvestorRole hasExpired payable nonReentrant returns (bool){// TODO: Add\r\n        uint amount = investors[msg.sender];\r\n\r\n        require(amount != 0);\r\n        investors[msg.sender] = 0;\r\n\r\n        (bool success,) = msg.sender.call{value : amount}(\"\");\r\n        if (success) {\r\n            currentAmount = currentAmount.sub(amount);\r\n        } else {\r\n            investors[msg.sender] = amount;\r\n        }\r\n        return success;\r\n    }\r\n\r\n    /// @notice Returns the amount invested from the given address\r\n    /// @param investor the investor's address\r\n    function getInvestorAmount(address investor) public view returns (uint) {\r\n        return investors[investor];\r\n    }\r\n\r\n    /// @notice Add investor\r\n    /// @dev Before adding, checks if already investor exists\r\n    function addInvestor() private {\r\n        if (investors[msg.sender] == 0) {//TODO:Possible modifier\r\n            sumOfInvestors += 1;\r\n            _setupRole(INVESTOR_ROLE, msg.sender);\r\n            emit InvestorAdded(msg.sender);\r\n        }\r\n    }\r\n\r\n    /// @notice Creates a withdraw request\r\n    /// @param _withdrawAmount the amount to be withdrawn\r\n    /// @param _withdrawalReason the reason of the withdrawal\r\n    /// @dev Before adding the new request checks if there is enough amount to request for\r\n    function createWithdrawRequest(uint _withdrawAmount, string calldata _withdrawalReason) public onlyOwner hasEnded {\r\n        require(currentAmount >= _withdrawAmount, 'Requested amount is greater than the available one.');\r\n        WithdrawReq storage newReq = requests.push();\r\n        newReq.receiver = msg.sender;\r\n        newReq.withdrawAmount = _withdrawAmount;\r\n        newReq.withdrawalReason = _withdrawalReason;\r\n        newReq.votes = 0;\r\n        newReq.isDone = false;\r\n        idxReq++;\r\n    }\r\n\r\n    /// @notice Vote for a withdrawal request\r\n    /// @param idx the index of the request\r\n    /// @dev Before adding the vote, checks if the request is already done and if the investor has already voted\r\n    function vote(uint idx) public hasEnded hasInvestorRole {\r\n        WithdrawReq storage withdrawReq = requests[idx];\r\n        require(withdrawReq.isDone == false, \"Withdrawal already done!\");\r\n        require(withdrawReq.votedInvestors[msg.sender] == false, \"User already voted\");\r\n        withdrawReq.votedInvestors[msg.sender] = true;\r\n        withdrawReq.votes++;\r\n    }\r\n\r\n    /// @notice Send the amount requested to the receiver\r\n    /// @param idx the index of the request\r\n    /// @dev Before transferring the amount checks if the withdrawal is already done, if the votes are enough and if the\r\n    /// current amount is enough. The require given for the votes part, handles also the special case of having only\r\n    /// 1 investor.\r\n    function withdraw(uint idx) public onlyOwner payable nonReentrant hasEnded {\r\n        WithdrawReq storage req = requests[idx];\r\n        require(req.isDone == false, \"Withdrawal already done!\");\r\n        require(req.votes >= sumOfInvestors / 2 && !(req.votes != 1 && sumOfInvestors == 1), \"Not enough votes!\");\r\n        currentAmount = currentAmount.sub(req.withdrawAmount);\r\n        require(currentAmount >= 0, \"Not enough amount!!!\");\r\n        (bool success,) = req.receiver.call{value : req.withdrawAmount}(\"\");\r\n        require(success, \"Withdrawn has failed!\");\r\n        req.isDone = true;\r\n        if (currentAmount == 0) state = State.PAID;\r\n        emit WithdrawnSuccess(req.receiver, req.withdrawAmount);\r\n    }\r\n\r\n    /// @notice Returns if user has already voted\r\n    /// @param idx the index of the request\r\n    /// @dev Created in order to disable Vote button on the FE\r\n    function hasUserVoted(uint idx, address voter) public view returns (bool) {\r\n        WithdrawReq storage req = requests[idx];\r\n        return req.votedInvestors[voter];\r\n    }\r\n\r\n    // @notice Get vision data\r\n    function getVision() public view returns\r\n    (\r\n        address _owner,\r\n        string memory _type,\r\n        string memory _description,\r\n        State _currentState,\r\n        uint256 _goal,\r\n        uint256 _currentAmount,\r\n        uint256 _deadline,\r\n        uint _sumOfInvestors,\r\n        uint _idxReq\r\n    ) {\r\n        _owner = owner;\r\n        _type = visionType;\r\n        _currentState = state;\r\n        _description = visionDescr;\r\n        _goal = amountGoal;\r\n        _currentAmount = currentAmount;\r\n        _deadline = deadline;\r\n        _sumOfInvestors = sumOfInvestors;\r\n        _idxReq = idxReq;\r\n    }\r\n\r\n    receive() external payable {\r\n        revert();\r\n    }\r\n\r\n    fallback() external payable {\r\n        revert();\r\n    }\r\n}\r\n",
  "sourcePath": "/mnt/c/Users/kwnst/WebstormProjects/blockchain-developer-bootcamp-final-project_v2/contracts/Etherpreneur.sol",
  "compiler": {
    "name": "solc",
    "version": "0.8.0+commit.c7dfd78e.Emscripten.clang"
  },
  "schemaVersion": "3.4.3",
  "updatedAt": "2021-11-23T22:06:36.976Z",
  "devdoc": {
    "kind": "dev",
    "methods": {
      "createWithdrawRequest(uint256,string)": {
        "details": "Before adding the new request checks if there is enough amount to request for",
        "params": {
          "_withdrawAmount": "the amount to be withdrawn",
          "_withdrawalReason": "the reason of the withdrawal"
        }
      },
      "getInvestorAmount(address)": {
        "params": {
          "investor": "the investor's address"
        }
      },
      "getRoleAdmin(bytes32)": {
        "details": "Returns the admin role that controls `role`. See {grantRole} and {revokeRole}. To change a role's admin, use {_setRoleAdmin}."
      },
      "grantRole(bytes32,address)": {
        "details": "Grants `role` to `account`. If `account` had not been already granted `role`, emits a {RoleGranted} event. Requirements: - the caller must have ``role``'s admin role."
      },
      "hasRole(bytes32,address)": {
        "details": "Returns `true` if `account` has been granted `role`."
      },
      "hasUserVoted(uint256,address)": {
        "details": "Created in order to disable Vote button on the FE",
        "params": {
          "idx": "the index of the request"
        }
      },
      "renounceRole(bytes32,address)": {
        "details": "Revokes `role` from the calling account. Roles are often managed via {grantRole} and {revokeRole}: this function's purpose is to provide a mechanism for accounts to lose their privileges if they are compromised (such as when a trusted device is misplaced). If the calling account had been granted `role`, emits a {RoleRevoked} event. Requirements: - the caller must be `account`."
      },
      "revokeRole(bytes32,address)": {
        "details": "Revokes `role` from `account`. If `account` had been granted `role`, emits a {RoleRevoked} event. Requirements: - the caller must have ``role``'s admin role."
      },
      "supportsInterface(bytes4)": {
        "details": "See {IERC165-supportsInterface}."
      },
      "vote(uint256)": {
        "details": "Before adding the vote, checks if the request is already done and if the investor has already voted",
        "params": {
          "idx": "the index of the request"
        }
      },
      "withdraw(uint256)": {
        "details": "Before transferring the amount checks if the withdrawal is already done, if the votes are enough and if the current amount is enough. The require given for the votes part, handles also the special case of having only 1 investor.",
        "params": {
          "idx": "the index of the request"
        }
      }
    },
    "title": "A Contract that depicts a Vision with its info and functions for investments, payments, votes etc",
    "version": 1
  },
  "userdoc": {
    "kind": "user",
    "methods": {
      "createWithdrawRequest(uint256,string)": {
        "notice": "Creates a withdraw request"
      },
      "getInvestorAmount(address)": {
        "notice": "Returns the amount invested from the given address"
      },
      "hasUserVoted(uint256,address)": {
        "notice": "Returns if user has already voted"
      },
      "invest()": {
        "notice": "Invest amount to a Vision"
      },
      "vote(uint256)": {
        "notice": "Vote for a withdrawal request"
      },
      "withdraw(uint256)": {
        "notice": "Send the amount requested to the receiver"
      },
      "withdrawInvestedAmount()": {
        "notice": "Investors can withdraw invested amount if the Vision is expired"
      }
    },
    "version": 1
  }
}