{
  "contractName": "Vision",
  "abi": [
    {
      "inputs": [
        {
          "internalType": "address",
          "name": "_owner",
          "type": "address"
        },
        {
          "internalType": "uint256",
          "name": "_amountGoal",
          "type": "uint256"
        },
        {
          "internalType": "string",
          "name": "_type",
          "type": "string"
        },
        {
          "internalType": "string",
          "name": "_descr",
          "type": "string"
        },
        {
          "internalType": "uint256",
          "name": "numOfDays",
          "type": "uint256"
        }
      ],
      "stateMutability": "nonpayable",
      "type": "constructor"
    },
    {
      "anonymous": false,
      "inputs": [
        {
          "indexed": true,
          "internalType": "address",
          "name": "_from",
          "type": "address"
        },
        {
          "indexed": false,
          "internalType": "uint256",
          "name": "receivedAmount",
          "type": "uint256"
        },
        {
          "indexed": false,
          "internalType": "uint256",
          "name": "currentAmount",
          "type": "uint256"
        }
      ],
      "name": "AmountReceived",
      "type": "event"
    },
    {
      "anonymous": false,
      "inputs": [
        {
          "indexed": true,
          "internalType": "address",
          "name": "_from",
          "type": "address"
        },
        {
          "indexed": false,
          "internalType": "uint256",
          "name": "_amount",
          "type": "uint256"
        }
      ],
      "name": "AmountSent",
      "type": "event"
    },
    {
      "anonymous": false,
      "inputs": [
        {
          "indexed": true,
          "internalType": "address",
          "name": "owner",
          "type": "address"
        },
        {
          "indexed": false,
          "internalType": "uint256",
          "name": "currentAmount",
          "type": "uint256"
        }
      ],
      "name": "GoalAchieved",
      "type": "event"
    },
    {
      "anonymous": false,
      "inputs": [
        {
          "indexed": true,
          "internalType": "address",
          "name": "investor",
          "type": "address"
        }
      ],
      "name": "InvestorAdded",
      "type": "event"
    },
    {
      "anonymous": false,
      "inputs": [
        {
          "indexed": true,
          "internalType": "bytes32",
          "name": "role",
          "type": "bytes32"
        },
        {
          "indexed": true,
          "internalType": "bytes32",
          "name": "previousAdminRole",
          "type": "bytes32"
        },
        {
          "indexed": true,
          "internalType": "bytes32",
          "name": "newAdminRole",
          "type": "bytes32"
        }
      ],
      "name": "RoleAdminChanged",
      "type": "event"
    },
    {
      "anonymous": false,
      "inputs": [
        {
          "indexed": true,
          "internalType": "bytes32",
          "name": "role",
          "type": "bytes32"
        },
        {
          "indexed": true,
          "internalType": "address",
          "name": "account",
          "type": "address"
        },
        {
          "indexed": true,
          "internalType": "address",
          "name": "sender",
          "type": "address"
        }
      ],
      "name": "RoleGranted",
      "type": "event"
    },
    {
      "anonymous": false,
      "inputs": [
        {
          "indexed": true,
          "internalType": "bytes32",
          "name": "role",
          "type": "bytes32"
        },
        {
          "indexed": true,
          "internalType": "address",
          "name": "account",
          "type": "address"
        },
        {
          "indexed": true,
          "internalType": "address",
          "name": "sender",
          "type": "address"
        }
      ],
      "name": "RoleRevoked",
      "type": "event"
    },
    {
      "anonymous": false,
      "inputs": [
        {
          "indexed": true,
          "internalType": "address",
          "name": "owner",
          "type": "address"
        },
        {
          "indexed": false,
          "internalType": "uint256",
          "name": "amountGoal",
          "type": "uint256"
        },
        {
          "indexed": false,
          "internalType": "string",
          "name": "visionType",
          "type": "string"
        },
        {
          "indexed": false,
          "internalType": "string",
          "name": "visionDescr",
          "type": "string"
        }
      ],
      "name": "VisionCreated",
      "type": "event"
    },
    {
      "anonymous": false,
      "inputs": [
        {
          "indexed": true,
          "internalType": "address",
          "name": "owner",
          "type": "address"
        },
        {
          "indexed": false,
          "internalType": "uint256",
          "name": "deadline",
          "type": "uint256"
        }
      ],
      "name": "VisionExpired",
      "type": "event"
    },
    {
      "anonymous": false,
      "inputs": [
        {
          "indexed": true,
          "internalType": "address",
          "name": "_from",
          "type": "address"
        },
        {
          "indexed": false,
          "internalType": "uint256",
          "name": "_amount",
          "type": "uint256"
        }
      ],
      "name": "WithdrawnFailure",
      "type": "event"
    },
    {
      "anonymous": false,
      "inputs": [
        {
          "indexed": true,
          "internalType": "address",
          "name": "_from",
          "type": "address"
        },
        {
          "indexed": false,
          "internalType": "uint256",
          "name": "_amount",
          "type": "uint256"
        }
      ],
      "name": "WithdrawnSuccess",
      "type": "event"
    },
    {
      "stateMutability": "payable",
      "type": "fallback"
    },
    {
      "inputs": [],
      "name": "DEFAULT_ADMIN_ROLE",
      "outputs": [
        {
          "internalType": "bytes32",
          "name": "",
          "type": "bytes32"
        }
      ],
      "stateMutability": "view",
      "type": "function"
    },
    {
      "inputs": [],
      "name": "INVESTOR_ROLE",
      "outputs": [
        {
          "internalType": "bytes32",
          "name": "",
          "type": "bytes32"
        }
      ],
      "stateMutability": "view",
      "type": "function"
    },
    {
      "inputs": [],
      "name": "amountGoal",
      "outputs": [
        {
          "internalType": "uint256",
          "name": "",
          "type": "uint256"
        }
      ],
      "stateMutability": "view",
      "type": "function"
    },
    {
      "inputs": [],
      "name": "currentAmount",
      "outputs": [
        {
          "internalType": "uint256",
          "name": "",
          "type": "uint256"
        }
      ],
      "stateMutability": "view",
      "type": "function"
    },
    {
      "inputs": [],
      "name": "deadline",
      "outputs": [
        {
          "internalType": "uint256",
          "name": "",
          "type": "uint256"
        }
      ],
      "stateMutability": "view",
      "type": "function"
    },
    {
      "inputs": [
        {
          "internalType": "bytes32",
          "name": "role",
          "type": "bytes32"
        }
      ],
      "name": "getRoleAdmin",
      "outputs": [
        {
          "internalType": "bytes32",
          "name": "",
          "type": "bytes32"
        }
      ],
      "stateMutability": "view",
      "type": "function"
    },
    {
      "inputs": [
        {
          "internalType": "bytes32",
          "name": "role",
          "type": "bytes32"
        },
        {
          "internalType": "address",
          "name": "account",
          "type": "address"
        }
      ],
      "name": "grantRole",
      "outputs": [],
      "stateMutability": "nonpayable",
      "type": "function"
    },
    {
      "inputs": [
        {
          "internalType": "bytes32",
          "name": "role",
          "type": "bytes32"
        },
        {
          "internalType": "address",
          "name": "account",
          "type": "address"
        }
      ],
      "name": "hasRole",
      "outputs": [
        {
          "internalType": "bool",
          "name": "",
          "type": "bool"
        }
      ],
      "stateMutability": "view",
      "type": "function"
    },
    {
      "inputs": [],
      "name": "idxReq",
      "outputs": [
        {
          "internalType": "uint256",
          "name": "",
          "type": "uint256"
        }
      ],
      "stateMutability": "view",
      "type": "function"
    },
    {
      "inputs": [
        {
          "internalType": "address",
          "name": "",
          "type": "address"
        }
      ],
      "name": "investors",
      "outputs": [
        {
          "internalType": "uint256",
          "name": "",
          "type": "uint256"
        }
      ],
      "stateMutability": "view",
      "type": "function"
    },
    {
      "inputs": [],
      "name": "owner",
      "outputs": [
        {
          "internalType": "address",
          "name": "",
          "type": "address"
        }
      ],
      "stateMutability": "view",
      "type": "function"
    },
    {
      "inputs": [
        {
          "internalType": "bytes32",
          "name": "role",
          "type": "bytes32"
        },
        {
          "internalType": "address",
          "name": "account",
          "type": "address"
        }
      ],
      "name": "renounceRole",
      "outputs": [],
      "stateMutability": "nonpayable",
      "type": "function"
    },
    {
      "inputs": [
        {
          "internalType": "uint256",
          "name": "",
          "type": "uint256"
        }
      ],
      "name": "requests",
      "outputs": [
        {
          "internalType": "uint256",
          "name": "withdrawAmount",
          "type": "uint256"
        },
        {
          "internalType": "address",
          "name": "receiver",
          "type": "address"
        },
        {
          "internalType": "string",
          "name": "withdrawalReason",
          "type": "string"
        },
        {
          "internalType": "uint256",
          "name": "votes",
          "type": "uint256"
        },
        {
          "internalType": "bool",
          "name": "isDone",
          "type": "bool"
        }
      ],
      "stateMutability": "view",
      "type": "function"
    },
    {
      "inputs": [
        {
          "internalType": "bytes32",
          "name": "role",
          "type": "bytes32"
        },
        {
          "internalType": "address",
          "name": "account",
          "type": "address"
        }
      ],
      "name": "revokeRole",
      "outputs": [],
      "stateMutability": "nonpayable",
      "type": "function"
    },
    {
      "inputs": [],
      "name": "state",
      "outputs": [
        {
          "internalType": "enum Vision.State",
          "name": "",
          "type": "uint8"
        }
      ],
      "stateMutability": "view",
      "type": "function"
    },
    {
      "inputs": [],
      "name": "sumOfInvestors",
      "outputs": [
        {
          "internalType": "uint256",
          "name": "",
          "type": "uint256"
        }
      ],
      "stateMutability": "view",
      "type": "function"
    },
    {
      "inputs": [
        {
          "internalType": "bytes4",
          "name": "interfaceId",
          "type": "bytes4"
        }
      ],
      "name": "supportsInterface",
      "outputs": [
        {
          "internalType": "bool",
          "name": "",
          "type": "bool"
        }
      ],
      "stateMutability": "view",
      "type": "function"
    },
    {
      "inputs": [],
      "name": "visionDescr",
      "outputs": [
        {
          "internalType": "string",
          "name": "",
          "type": "string"
        }
      ],
      "stateMutability": "view",
      "type": "function"
    },
    {
      "inputs": [],
      "name": "visionType",
      "outputs": [
        {
          "internalType": "string",
          "name": "",
          "type": "string"
        }
      ],
      "stateMutability": "view",
      "type": "function"
    },
    {
      "stateMutability": "payable",
      "type": "receive"
    },
    {
      "inputs": [],
      "name": "invest",
      "outputs": [],
      "stateMutability": "payable",
      "type": "function"
    },
    {
      "inputs": [],
      "name": "withdrawInvestedAmount",
      "outputs": [
        {
          "internalType": "bool",
          "name": "",
          "type": "bool"
        }
      ],
      "stateMutability": "payable",
      "type": "function"
    },
    {
      "inputs": [
        {
          "internalType": "uint256",
          "name": "_withdrawAmount",
          "type": "uint256"
        },
        {
          "internalType": "string",
          "name": "_withdrawalReason",
          "type": "string"
        }
      ],
      "name": "createWithdrawRequest",
      "outputs": [],
      "stateMutability": "nonpayable",
      "type": "function"
    },
    {
      "inputs": [
        {
          "internalType": "uint256",
          "name": "idx",
          "type": "uint256"
        }
      ],
      "name": "vote",
      "outputs": [],
      "stateMutability": "nonpayable",
      "type": "function"
    },
    {
      "inputs": [
        {
          "internalType": "uint256",
          "name": "idx",
          "type": "uint256"
        }
      ],
      "name": "withdraw",
      "outputs": [],
      "stateMutability": "payable",
      "type": "function"
    },
    {
      "inputs": [],
      "name": "getVision",
      "outputs": [
        {
          "internalType": "address",
          "name": "_owner",
          "type": "address"
        },
        {
          "internalType": "string",
          "name": "_type",
          "type": "string"
        },
        {
          "internalType": "string",
          "name": "_description",
          "type": "string"
        },
        {
          "internalType": "enum Vision.State",
          "name": "_currentState",
          "type": "uint8"
        },
        {
          "internalType": "uint256",
          "name": "_goal",
          "type": "uint256"
        },
        {
          "internalType": "uint256",
          "name": "_currentAmount",
          "type": "uint256"
        },
        {
          "internalType": "uint256",
          "name": "_deadline",
          "type": "uint256"
        },
        {
          "internalType": "uint256",
          "name": "_sumOfInvestors",
          "type": "uint256"
        },
        {
          "internalType": "uint256",
          "name": "_idxReq",
          "type": "uint256"
        }
      ],
      "stateMutability": "view",
      "type": "function"
    }
  ],
  "bytecode": "0x60806040526000600860006101000a81548160ff0219169083600381111562000051577f4e487b7100000000000000000000000000000000000000000000000000000000600052602160045260246000fd5b02179055506000600c553480156200006857600080fd5b5060405162003a6638038062003a6683398181016040528101906200008e9190620002e3565b600160008190555084600460006101000a81548173ffffffffffffffffffffffffffffffffffffffff021916908373ffffffffffffffffffffffffffffffffffffffff160217905550836002819055508260059080519060200190620000f692919062000193565b5081600690805190602001906200010f92919062000193565b50620151808162000121919062000514565b426200012e9190620004b7565b600a819055508473ffffffffffffffffffffffffffffffffffffffff167f802850d1fc951145cd3466e518077f136692705e2164472cd89c3b1c9618cdf38585856040516200018093929190620003e9565b60405180910390a25050505050620006f1565b828054620001a190620005e9565b90600052602060002090601f016020900481019282620001c5576000855562000211565b82601f10620001e057805160ff191683800117855562000211565b8280016001018555821562000211579182015b8281111562000210578251825591602001919060010190620001f3565b5b50905062000220919062000224565b5090565b5b808211156200023f57600081600090555060010162000225565b5090565b60006200025a620002548462000468565b62000434565b9050828152602081018484840111156200027357600080fd5b62000280848285620005b3565b509392505050565b6000815190506200029981620006bd565b92915050565b600082601f830112620002b157600080fd5b8151620002c384826020860162000243565b91505092915050565b600081519050620002dd81620006d7565b92915050565b600080600080600060a08688031215620002fc57600080fd5b60006200030c8882890162000288565b95505060206200031f88828901620002cc565b945050604086015167ffffffffffffffff8111156200033d57600080fd5b6200034b888289016200029f565b935050606086015167ffffffffffffffff8111156200036957600080fd5b62000377888289016200029f565b92505060806200038a88828901620002cc565b9150509295509295909350565b6000620003a4826200049b565b620003b08185620004a6565b9350620003c2818560208601620005b3565b620003cd81620006ac565b840191505092915050565b620003e381620005a9565b82525050565b6000606082019050620004006000830186620003d8565b818103602083015262000414818562000397565b905081810360408301526200042a818462000397565b9050949350505050565b6000604051905081810181811067ffffffffffffffff821117156200045e576200045d6200067d565b5b8060405250919050565b600067ffffffffffffffff8211156200048657620004856200067d565b5b601f19601f8301169050602081019050919050565b600081519050919050565b600082825260208201905092915050565b6000620004c482620005a9565b9150620004d183620005a9565b9250827fffffffffffffffffffffffffffffffffffffffffffffffffffffffffffffffff038211156200050957620005086200061f565b5b828201905092915050565b60006200052182620005a9565b91506200052e83620005a9565b9250817fffffffffffffffffffffffffffffffffffffffffffffffffffffffffffffffff04831182151516156200056a57620005696200061f565b5b828202905092915050565b6000620005828262000589565b9050919050565b600073ffffffffffffffffffffffffffffffffffffffff82169050919050565b6000819050919050565b60005b83811015620005d3578082015181840152602081019050620005b6565b83811115620005e3576000848401525b50505050565b600060028204905060018216806200060257607f821691505b602082108114156200061957620006186200064e565b5b50919050565b7f4e487b7100000000000000000000000000000000000000000000000000000000600052601160045260246000fd5b7f4e487b7100000000000000000000000000000000000000000000000000000000600052602260045260246000fd5b7f4e487b7100000000000000000000000000000000000000000000000000000000600052604160045260246000fd5b6000601f19601f8301169050919050565b620006c88162000575565b8114620006d457600080fd5b50565b620006e281620005a9565b8114620006ee57600080fd5b50565b61336580620007016000396000f3fe60806040526004361061016a5760003560e01c80636f7bc9be116100d1578063b57410dc1161008a578063c962315911610064578063c962315914610542578063d547741f1461056d578063e8b5e51f14610596578063f441b1c8146105a057610174565b8063b57410dc146104c6578063c19d93fb146104e4578063c3726c3b1461050f57610174565b80636f7bc9be1461038a57806376082a5e146103c757806381d12c58146103f25780638da5cb5b1461043357806391d148541461045e578063a217fddf1461049b57610174565b806329dcb0cf1161012357806329dcb0cf1461029b5780632a646054146102c65780632e1a7d4d146102f15780632f2ff15d1461030d57806336568abe146103365780634a19b4301461035f57610174565b80630121b93f1461017957806301ffc9a7146101a25780630785001c146101df57806312205b2f1461020a578063248a9ca314610233578063298633be1461027057610174565b3661017457600080fd5b600080fd5b34801561018557600080fd5b506101a0600480360381019061019b91906125f8565b6105cb565b005b3480156101ae57600080fd5b506101c960048036038101906101c491906125cf565b6108a7565b6040516101d69190612c7f565b60405180910390f35b3480156101eb57600080fd5b506101f4610921565b6040516102019190612e92565b60405180910390f35b34801561021657600080fd5b50610231600480360381019061022c9190612621565b610927565b005b34801561023f57600080fd5b5061025a6004803603810190610255919061256a565b610b87565b6040516102679190612c9a565b60405180910390f35b34801561027c57600080fd5b50610285610ba7565b6040516102929190612e92565b60405180910390f35b3480156102a757600080fd5b506102b0610bad565b6040516102bd9190612e92565b60405180910390f35b3480156102d257600080fd5b506102db610bb3565b6040516102e89190612e92565b60405180910390f35b61030b600480360381019061030691906125f8565b610bb9565b005b34801561031957600080fd5b50610334600480360381019061032f9190612593565b6110ea565b005b34801561034257600080fd5b5061035d60048036038101906103589190612593565b611113565b005b34801561036b57600080fd5b50610374611196565b6040516103819190612cd0565b60405180910390f35b34801561039657600080fd5b506103b160048036038101906103ac9190612541565b611224565b6040516103be9190612e92565b60405180910390f35b3480156103d357600080fd5b506103dc61123c565b6040516103e99190612c9a565b60405180910390f35b3480156103fe57600080fd5b50610419600480360381019061041491906125f8565b611260565b60405161042a959493929190612ead565b60405180910390f35b34801561043f57600080fd5b5061044861135b565b6040516104559190612bc9565b60405180910390f35b34801561046a57600080fd5b5061048560048036038101906104809190612593565b611381565b6040516104929190612c7f565b60405180910390f35b3480156104a757600080fd5b506104b06113ec565b6040516104bd9190612c9a565b60405180910390f35b6104ce6113f3565b6040516104db9190612c7f565b60405180910390f35b3480156104f057600080fd5b506104f96116eb565b6040516105069190612cb5565b60405180910390f35b34801561051b57600080fd5b506105246116fe565b60405161053999989796959493929190612be4565b60405180910390f35b34801561054e57600080fd5b50610557611881565b6040516105649190612cd0565b60405180910390f35b34801561057957600080fd5b50610594600480360381019061058f9190612593565b61190f565b005b61059e611938565b005b3480156105ac57600080fd5b506105b5611aeb565b6040516105c29190612e92565b60405180910390f35b60016003811115610605577f4e487b7100000000000000000000000000000000000000000000000000000000600052602160045260246000fd5b600860009054906101000a900460ff16600381111561064d577f4e487b7100000000000000000000000000000000000000000000000000000000600052602160045260246000fd5b1461068d576040517f08c379a000000000000000000000000000000000000000000000000000000000815260040161068490612db2565b60405180910390fd5b6106b77fb165298935924f540e4181c03493a5d686c54a0aaeb3f6216de85b7ffbba773833611381565b6106f6576040517f08c379a00000000000000000000000000000000000000000000000000000000081526004016106ed90612e72565b60405180910390fd5b6000600b8281548110610732577f4e487b7100000000000000000000000000000000000000000000000000000000600052603260045260246000fd5b90600052602060002090600602019050600015158160050160009054906101000a900460ff1615151461079a576040517f08c379a000000000000000000000000000000000000000000000000000000000815260040161079190612e12565b60405180910390fd5b600015158160040160003373ffffffffffffffffffffffffffffffffffffffff1673ffffffffffffffffffffffffffffffffffffffff16815260200190815260200160002060009054906101000a900460ff1615151461082f576040517f08c379a000000000000000000000000000000000000000000000000000000000815260040161082690612d12565b60405180910390fd5b60018160040160003373ffffffffffffffffffffffffffffffffffffffff1673ffffffffffffffffffffffffffffffffffffffff16815260200190815260200160002060006101000a81548160ff02191690831515021790555080600301600081548092919061089e906131a9565b91905055505050565b60007f7965db0b000000000000000000000000000000000000000000000000000000007bffffffffffffffffffffffffffffffffffffffffffffffffffffffff1916827bffffffffffffffffffffffffffffffffffffffffffffffffffffffff1916148061091a575061091982611af1565b5b9050919050565b60025481565b600460009054906101000a900473ffffffffffffffffffffffffffffffffffffffff1673ffffffffffffffffffffffffffffffffffffffff163373ffffffffffffffffffffffffffffffffffffffff16146109b7576040517f08c379a00000000000000000000000000000000000000000000000000000000081526004016109ae90612d92565b60405180910390fd5b600160038111156109f1577f4e487b7100000000000000000000000000000000000000000000000000000000600052602160045260246000fd5b600860009054906101000a900460ff166003811115610a39577f4e487b7100000000000000000000000000000000000000000000000000000000600052602160045260246000fd5b14610a79576040517f08c379a0000000000000000000000000000000000000000000000000000000008152600401610a7090612db2565b60405180910390fd5b826003541015610abe576040517f08c379a0000000000000000000000000000000000000000000000000000000008152600401610ab590612d72565b60405180910390fd5b6000600b6001816001815401808255809150500390600052602060002090600602019050338160010160006101000a81548173ffffffffffffffffffffffffffffffffffffffff021916908373ffffffffffffffffffffffffffffffffffffffff1602179055508381600001819055508282826002019190610b41929190612400565b506000816003018190555060008160050160006101000a81548160ff021916908315150217905550600c6000815480929190610b7c906131a9565b919050555050505050565b600060016000838152602001908152602001600020600101549050919050565b60095481565b600a5481565b600c5481565b600460009054906101000a900473ffffffffffffffffffffffffffffffffffffffff1673ffffffffffffffffffffffffffffffffffffffff163373ffffffffffffffffffffffffffffffffffffffff1614610c49576040517f08c379a0000000000000000000000000000000000000000000000000000000008152600401610c4090612d92565b60405180910390fd5b60026000541415610c8f576040517f08c379a0000000000000000000000000000000000000000000000000000000008152600401610c8690612df2565b60405180910390fd5b600260008190555060016003811115610cd1577f4e487b7100000000000000000000000000000000000000000000000000000000600052602160045260246000fd5b600860009054906101000a900460ff166003811115610d19577f4e487b7100000000000000000000000000000000000000000000000000000000600052602160045260246000fd5b14610d59576040517f08c379a0000000000000000000000000000000000000000000000000000000008152600401610d5090612db2565b60405180910390fd5b6000600b8281548110610d95577f4e487b7100000000000000000000000000000000000000000000000000000000600052603260045260246000fd5b90600052602060002090600602019050600015158160050160009054906101000a900460ff16151514610dfd576040517f08c379a0000000000000000000000000000000000000000000000000000000008152600401610df490612e12565b60405180910390fd5b6002600954610e0c9190612fb8565b816003015410158015610e3357506001816003015414158015610e3157506001600954145b155b610e72576040517f08c379a0000000000000000000000000000000000000000000000000000000008152600401610e6990612e52565b60405180910390fd5b610e8b8160000154600354611b5b90919063ffffffff16565b60038190555060006003541015610ed7576040517f08c379a0000000000000000000000000000000000000000000000000000000008152600401610ece90612dd2565b60405180910390fd5b60008160010160009054906101000a900473ffffffffffffffffffffffffffffffffffffffff1673ffffffffffffffffffffffffffffffffffffffff168260000154604051610f2590612b7a565b60006040518083038185875af1925050503d8060008114610f62576040519150601f19603f3d011682016040523d82523d6000602084013e610f67565b606091505b5050905080156110665760018260050160006101000a81548160ff02191690831515021790555060006003541415610feb576002600860006101000a81548160ff02191690836003811115610fe5577f4e487b7100000000000000000000000000000000000000000000000000000000600052602160045260246000fd5b02179055505b8160010160009054906101000a900473ffffffffffffffffffffffffffffffffffffffff1673ffffffffffffffffffffffffffffffffffffffff167f2089bb15d61bcd4b733abef2aeecdd97c9416dadbe007e9c4d8ce48dbec86c3483600001546040516110599190612e92565b60405180910390a26110dd565b8160010160009054906101000a900473ffffffffffffffffffffffffffffffffffffffff1673ffffffffffffffffffffffffffffffffffffffff167f1e785bb9ea2aeb7fbabd75760c432d8ed0dae945fdf84477ca59a88306680b9f83600001546040516110d49190612e92565b60405180910390a25b5050600160008190555050565b6110f382610b87565b611104816110ff611b71565b611b79565b61110e8383611c16565b505050565b61111b611b71565b73ffffffffffffffffffffffffffffffffffffffff168173ffffffffffffffffffffffffffffffffffffffff1614611188576040517f08c379a000000000000000000000000000000000000000000000000000000000815260040161117f90612e32565b60405180910390fd5b6111928282611cf6565b5050565b600580546111a390613177565b80601f01602080910402602001604051908101604052809291908181526020018280546111cf90613177565b801561121c5780601f106111f15761010080835404028352916020019161121c565b820191906000526020600020905b8154815290600101906020018083116111ff57829003601f168201915b505050505081565b60076020528060005260406000206000915090505481565b7fb165298935924f540e4181c03493a5d686c54a0aaeb3f6216de85b7ffbba773881565b600b818154811061127057600080fd5b90600052602060002090600602016000915090508060000154908060010160009054906101000a900473ffffffffffffffffffffffffffffffffffffffff16908060020180546112bf90613177565b80601f01602080910402602001604051908101604052809291908181526020018280546112eb90613177565b80156113385780601f1061130d57610100808354040283529160200191611338565b820191906000526020600020905b81548152906001019060200180831161131b57829003601f168201915b5050505050908060030154908060050160009054906101000a900460ff16905085565b600460009054906101000a900473ffffffffffffffffffffffffffffffffffffffff1681565b60006001600084815260200190815260200160002060000160008373ffffffffffffffffffffffffffffffffffffffff1673ffffffffffffffffffffffffffffffffffffffff16815260200190815260200160002060009054906101000a900460ff16905092915050565b6000801b81565b600061141f7fb165298935924f540e4181c03493a5d686c54a0aaeb3f6216de85b7ffbba773833611381565b61145e576040517f08c379a000000000000000000000000000000000000000000000000000000000815260040161145590612e72565b60405180910390fd5b600380811115611497577f4e487b7100000000000000000000000000000000000000000000000000000000600052602160045260246000fd5b600860009054906101000a900460ff1660038111156114df577f4e487b7100000000000000000000000000000000000000000000000000000000600052602160045260246000fd5b1461151f576040517f08c379a000000000000000000000000000000000000000000000000000000000815260040161151690612d32565b60405180910390fd5b60026000541415611565576040517f08c379a000000000000000000000000000000000000000000000000000000000815260040161155c90612df2565b60405180910390fd5b60026000819055506000600760003373ffffffffffffffffffffffffffffffffffffffff1673ffffffffffffffffffffffffffffffffffffffff16815260200190815260200160002054905060008114156115bf57600080fd5b6000600760003373ffffffffffffffffffffffffffffffffffffffff1673ffffffffffffffffffffffffffffffffffffffff1681526020019081526020016000208190555060003373ffffffffffffffffffffffffffffffffffffffff168260405161162a90612b7a565b60006040518083038185875af1925050503d8060008114611667576040519150601f19603f3d011682016040523d82523d6000602084013e61166c565b606091505b5050905080156116965761168b82600354611b5b90919063ffffffff16565b6003819055506116db565b81600760003373ffffffffffffffffffffffffffffffffffffffff1673ffffffffffffffffffffffffffffffffffffffff168152602001908152602001600020819055505b8092505050600160008190555090565b600860009054906101000a900460ff1681565b6000606080600080600080600080600460009054906101000a900473ffffffffffffffffffffffffffffffffffffffff1698506005805461173e90613177565b80601f016020809104026020016040519081016040528092919081815260200182805461176a90613177565b80156117b75780601f1061178c576101008083540402835291602001916117b7565b820191906000526020600020905b81548152906001019060200180831161179a57829003601f168201915b50505050509750600860009054906101000a900460ff169550600680546117dd90613177565b80601f016020809104026020016040519081016040528092919081815260200182805461180990613177565b80156118565780601f1061182b57610100808354040283529160200191611856565b820191906000526020600020905b81548152906001019060200180831161183957829003601f168201915b5050505050965060025494506003549350600a5492506009549150600c549050909192939495969798565b6006805461188e90613177565b80601f01602080910402602001604051908101604052809291908181526020018280546118ba90613177565b80156119075780601f106118dc57610100808354040283529160200191611907565b820191906000526020600020905b8154815290600101906020018083116118ea57829003601f168201915b505050505081565b61191882610b87565b61192981611924611b71565b611b79565b6119338383611cf6565b505050565b60006003811115611972577f4e487b7100000000000000000000000000000000000000000000000000000000600052602160045260246000fd5b600860009054906101000a900460ff1660038111156119ba577f4e487b7100000000000000000000000000000000000000000000000000000000600052602160045260246000fd5b1480156119c85750600a5442105b611a07576040517f08c379a00000000000000000000000000000000000000000000000000000000081526004016119fe90612d52565b60405180910390fd5b600460009054906101000a900473ffffffffffffffffffffffffffffffffffffffff1673ffffffffffffffffffffffffffffffffffffffff163373ffffffffffffffffffffffffffffffffffffffff161415611a6257600080fd5b611a6a611dd8565b611a743334611eaa565b611a8934600354611f4390919063ffffffff16565b6003819055503373ffffffffffffffffffffffffffffffffffffffff167fcda619981924cb5cfd654b61cf0f4ef8299cee9f2f1e9cb23774af6f11a7f90534600354604051611ad9929190612f07565b60405180910390a2611ae9611f59565b565b60035481565b60007f01ffc9a7000000000000000000000000000000000000000000000000000000007bffffffffffffffffffffffffffffffffffffffffffffffffffffffff1916827bffffffffffffffffffffffffffffffffffffffffffffffffffffffff1916149050919050565b60008183611b699190613043565b905092915050565b600033905090565b611b838282611381565b611c1257611ba88173ffffffffffffffffffffffffffffffffffffffff1660146120f8565b611bb68360001c60206120f8565b604051602001611bc7929190612b8f565b6040516020818303038152906040526040517f08c379a0000000000000000000000000000000000000000000000000000000008152600401611c099190612cd0565b60405180910390fd5b5050565b611c208282611381565b611cf257600180600084815260200190815260200160002060000160008373ffffffffffffffffffffffffffffffffffffffff1673ffffffffffffffffffffffffffffffffffffffff16815260200190815260200160002060006101000a81548160ff021916908315150217905550611c97611b71565b73ffffffffffffffffffffffffffffffffffffffff168173ffffffffffffffffffffffffffffffffffffffff16837f2f8788117e7eff1d82e926ec794901d17c78024a50270940304540a733656f0d60405160405180910390a45b5050565b611d008282611381565b15611dd45760006001600084815260200190815260200160002060000160008373ffffffffffffffffffffffffffffffffffffffff1673ffffffffffffffffffffffffffffffffffffffff16815260200190815260200160002060006101000a81548160ff021916908315150217905550611d79611b71565b73ffffffffffffffffffffffffffffffffffffffff168173ffffffffffffffffffffffffffffffffffffffff16837ff6391f5c32d9c69d2a47ea670b442974b53935d1edc7fd64eb21e047a839171b60405160405180910390a45b5050565b6000600760003373ffffffffffffffffffffffffffffffffffffffff1673ffffffffffffffffffffffffffffffffffffffff168152602001908152602001600020541415611ea857600160096000828254611e339190612f62565b92505081905550611e647fb165298935924f540e4181c03493a5d686c54a0aaeb3f6216de85b7ffbba7738336123f2565b3373ffffffffffffffffffffffffffffffffffffffff167f62e6a5118be03f9bfedb79b0ed7ed75ee4a9e15fc4c69d2c4976acde26fa2d5f60405160405180910390a25b565b611efc81600760008573ffffffffffffffffffffffffffffffffffffffff1673ffffffffffffffffffffffffffffffffffffffff16815260200190815260200160002054611f4390919063ffffffff16565b600760008473ffffffffffffffffffffffffffffffffffffffff1673ffffffffffffffffffffffffffffffffffffffff168152602001908152602001600020819055505050565b60008183611f519190612f62565b905092915050565b60025460035410612028576001600860006101000a81548160ff02191690836003811115611fb0577f4e487b7100000000000000000000000000000000000000000000000000000000600052602160045260246000fd5b0217905550600460009054906101000a900473ffffffffffffffffffffffffffffffffffffffff1673ffffffffffffffffffffffffffffffffffffffff167f5d69eee4b16dceba60f559d3c6b9f96c3f7c7342fb1d06c1d2f7e14f8120c4df60035460405161201f9190612e92565b60405180910390a25b600a544211156120f6576003600860006101000a81548160ff0219169083600381111561207e577f4e487b7100000000000000000000000000000000000000000000000000000000600052602160045260246000fd5b0217905550600460009054906101000a900473ffffffffffffffffffffffffffffffffffffffff1673ffffffffffffffffffffffffffffffffffffffff167fd0c836b5eda6a7bc4e27d71ecabd755f556824dc8831baed46f5ab97b0a30c65600a546040516120ed9190612e92565b60405180910390a25b565b60606000600283600261210b9190612fe9565b6121159190612f62565b67ffffffffffffffff811115612154577f4e487b7100000000000000000000000000000000000000000000000000000000600052604160045260246000fd5b6040519080825280601f01601f1916602001820160405280156121865781602001600182028036833780820191505090505b5090507f3000000000000000000000000000000000000000000000000000000000000000816000815181106121e4577f4e487b7100000000000000000000000000000000000000000000000000000000600052603260045260246000fd5b60200101907effffffffffffffffffffffffffffffffffffffffffffffffffffffffffffff1916908160001a9053507f78000000000000000000000000000000000000000000000000000000000000008160018151811061226e577f4e487b7100000000000000000000000000000000000000000000000000000000600052603260045260246000fd5b60200101907effffffffffffffffffffffffffffffffffffffffffffffffffffffffffffff1916908160001a905350600060018460026122ae9190612fe9565b6122b89190612f62565b90505b60018111156123a4577f3031323334353637383961626364656600000000000000000000000000000000600f861660108110612320577f4e487b7100000000000000000000000000000000000000000000000000000000600052603260045260246000fd5b1a60f81b82828151811061235d577f4e487b7100000000000000000000000000000000000000000000000000000000600052603260045260246000fd5b60200101907effffffffffffffffffffffffffffffffffffffffffffffffffffffffffffff1916908160001a905350600485901c94508061239d9061314d565b90506122bb565b50600084146123e8576040517f08c379a00000000000000000000000000000000000000000000000000000000081526004016123df90612cf2565b60405180910390fd5b8091505092915050565b6123fc8282611c16565b5050565b82805461240c90613177565b90600052602060002090601f01602090048101928261242e5760008555612475565b82601f1061244757803560ff1916838001178555612475565b82800160010185558215612475579182015b82811115612474578235825591602001919060010190612459565b5b5090506124829190612486565b5090565b5b8082111561249f576000816000905550600101612487565b5090565b6000813590506124b2816132d3565b92915050565b6000813590506124c7816132ea565b92915050565b6000813590506124dc81613301565b92915050565b60008083601f8401126124f457600080fd5b8235905067ffffffffffffffff81111561250d57600080fd5b60208301915083600182028301111561252557600080fd5b9250929050565b60008135905061253b81613318565b92915050565b60006020828403121561255357600080fd5b6000612561848285016124a3565b91505092915050565b60006020828403121561257c57600080fd5b600061258a848285016124b8565b91505092915050565b600080604083850312156125a657600080fd5b60006125b4858286016124b8565b92505060206125c5858286016124a3565b9150509250929050565b6000602082840312156125e157600080fd5b60006125ef848285016124cd565b91505092915050565b60006020828403121561260a57600080fd5b60006126188482850161252c565b91505092915050565b60008060006040848603121561263657600080fd5b60006126448682870161252c565b935050602084013567ffffffffffffffff81111561266157600080fd5b61266d868287016124e2565b92509250509250925092565b61268281613077565b82525050565b61269181613089565b82525050565b6126a081613095565b82525050565b6126af81613108565b82525050565b60006126c082612f30565b6126ca8185612f46565b93506126da81856020860161311a565b6126e3816132ae565b840191505092915050565b60006126f982612f30565b6127038185612f57565b935061271381856020860161311a565b80840191505092915050565b600061272c602083612f46565b91507f537472696e67733a20686578206c656e67746820696e73756666696369656e746000830152602082019050919050565b600061276c601283612f46565b91507f5573657220616c726561647920766f74656400000000000000000000000000006000830152602082019050919050565b60006127ac601683612f46565b91507f566973696f6e20686173206e6f742065787069726564000000000000000000006000830152602082019050919050565b60006127ec601d83612f46565b91507f566973696f6e206973206e6f7420696e20496e766573742053746174650000006000830152602082019050919050565b600061282c603383612f46565b91507f52657175657374656420616d6f756e742069732067726561746572207468616e60008301527f2074686520617661696c61626c65206f6e652e000000000000000000000000006020830152604082019050919050565b6000612892602383612f46565b91507f55736572206973206e6f7420746865206f776e6572206f66207468652056697360008301527f696f6e00000000000000000000000000000000000000000000000000000000006020830152604082019050919050565b60006128f8601883612f46565b91507f566973696f6e20686173206e6f7420656e6465642079657400000000000000006000830152602082019050919050565b6000612938600083612f3b565b9150600082019050919050565b6000612952601783612f57565b91507f416363657373436f6e74726f6c3a206163636f756e74200000000000000000006000830152601782019050919050565b6000612992601483612f46565b91507f4e6f7420656e6f75676820616d6f756e742121210000000000000000000000006000830152602082019050919050565b60006129d2601f83612f46565b91507f5265656e7472616e637947756172643a207265656e7472616e742063616c6c006000830152602082019050919050565b6000612a12601883612f46565b91507f5769746864726177616c20616c726561647920646f6e652100000000000000006000830152602082019050919050565b6000612a52601183612f57565b91507f206973206d697373696e6720726f6c65200000000000000000000000000000006000830152601182019050919050565b6000612a92602f83612f46565b91507f416363657373436f6e74726f6c3a2063616e206f6e6c792072656e6f756e636560008301527f20726f6c657320666f722073656c6600000000000000000000000000000000006020830152604082019050919050565b6000612af8601183612f46565b91507f4e6f7420656e6f75676820766f746573210000000000000000000000000000006000830152602082019050919050565b6000612b38601b83612f46565b91507f446f6573206e6f74206861766520696e766573746f7220726f6c6500000000006000830152602082019050919050565b612b74816130fe565b82525050565b6000612b858261292b565b9150819050919050565b6000612b9a82612945565b9150612ba682856126ee565b9150612bb182612a45565b9150612bbd82846126ee565b91508190509392505050565b6000602082019050612bde6000830184612679565b92915050565b600061012082019050612bfa600083018c612679565b8181036020830152612c0c818b6126b5565b90508181036040830152612c20818a6126b5565b9050612c2f60608301896126a6565b612c3c6080830188612b6b565b612c4960a0830187612b6b565b612c5660c0830186612b6b565b612c6360e0830185612b6b565b612c71610100830184612b6b565b9a9950505050505050505050565b6000602082019050612c946000830184612688565b92915050565b6000602082019050612caf6000830184612697565b92915050565b6000602082019050612cca60008301846126a6565b92915050565b60006020820190508181036000830152612cea81846126b5565b905092915050565b60006020820190508181036000830152612d0b8161271f565b9050919050565b60006020820190508181036000830152612d2b8161275f565b9050919050565b60006020820190508181036000830152612d4b8161279f565b9050919050565b60006020820190508181036000830152612d6b816127df565b9050919050565b60006020820190508181036000830152612d8b8161281f565b9050919050565b60006020820190508181036000830152612dab81612885565b9050919050565b60006020820190508181036000830152612dcb816128eb565b9050919050565b60006020820190508181036000830152612deb81612985565b9050919050565b60006020820190508181036000830152612e0b816129c5565b9050919050565b60006020820190508181036000830152612e2b81612a05565b9050919050565b60006020820190508181036000830152612e4b81612a85565b9050919050565b60006020820190508181036000830152612e6b81612aeb565b9050919050565b60006020820190508181036000830152612e8b81612b2b565b9050919050565b6000602082019050612ea76000830184612b6b565b92915050565b600060a082019050612ec26000830188612b6b565b612ecf6020830187612679565b8181036040830152612ee181866126b5565b9050612ef06060830185612b6b565b612efd6080830184612688565b9695505050505050565b6000604082019050612f1c6000830185612b6b565b612f296020830184612b6b565b9392505050565b600081519050919050565b600081905092915050565b600082825260208201905092915050565b600081905092915050565b6000612f6d826130fe565b9150612f78836130fe565b9250827fffffffffffffffffffffffffffffffffffffffffffffffffffffffffffffffff03821115612fad57612fac6131f2565b5b828201905092915050565b6000612fc3826130fe565b9150612fce836130fe565b925082612fde57612fdd613221565b5b828204905092915050565b6000612ff4826130fe565b9150612fff836130fe565b9250817fffffffffffffffffffffffffffffffffffffffffffffffffffffffffffffffff0483118215151615613038576130376131f2565b5b828202905092915050565b600061304e826130fe565b9150613059836130fe565b92508282101561306c5761306b6131f2565b5b828203905092915050565b6000613082826130de565b9050919050565b60008115159050919050565b6000819050919050565b60007fffffffff0000000000000000000000000000000000000000000000000000000082169050919050565b60008190506130d9826132bf565b919050565b600073ffffffffffffffffffffffffffffffffffffffff82169050919050565b6000819050919050565b6000613113826130cb565b9050919050565b60005b8381101561313857808201518184015260208101905061311d565b83811115613147576000848401525b50505050565b6000613158826130fe565b9150600082141561316c5761316b6131f2565b5b600182039050919050565b6000600282049050600182168061318f57607f821691505b602082108114156131a3576131a261327f565b5b50919050565b60006131b4826130fe565b91507fffffffffffffffffffffffffffffffffffffffffffffffffffffffffffffffff8214156131e7576131e66131f2565b5b600182019050919050565b7f4e487b7100000000000000000000000000000000000000000000000000000000600052601160045260246000fd5b7f4e487b7100000000000000000000000000000000000000000000000000000000600052601260045260246000fd5b7f4e487b7100000000000000000000000000000000000000000000000000000000600052602160045260246000fd5b7f4e487b7100000000000000000000000000000000000000000000000000000000600052602260045260246000fd5b6000601f19601f8301169050919050565b600481106132d0576132cf613250565b5b50565b6132dc81613077565b81146132e757600080fd5b50565b6132f381613095565b81146132fe57600080fd5b50565b61330a8161309f565b811461331557600080fd5b50565b613321816130fe565b811461332c57600080fd5b5056fea2646970667358221220ba79da27a607bea2677a621ea52fe096ecfde788a8e10bfdcc31e7482292ab6b64736f6c63430008000033",
  "immutableReferences": {},
  "source": "// SPDX-License-Identifier: MIT\r\npragma solidity 0.8.0;\r\n\r\nimport \"@openzeppelin/contracts/utils/math/SafeMath.sol\";\r\nimport \"@openzeppelin/contracts/access/AccessControl.sol\";\r\nimport \"@openzeppelin/contracts/security/ReentrancyGuard.sol\";\r\n\r\n/// @title A Contract for making Visions\r\n/// @author K. Koliopoulou\r\n/// @notice You can use this contract to construct new Visions\r\ncontract Etherpreneur {\r\n    address public owner = msg.sender;\r\n    Vision[] private visions;\r\n\r\n    event NewVisionCreated(\r\n        address _visionAddress,\r\n        address _owner,\r\n        string _type,\r\n        string _desciption,\r\n        uint _amountGoal\r\n    );\r\n\r\n    function createVision(string calldata visionType, string calldata visionDescr, uint amountGoal, uint deadline) external {\r\n\r\n        Vision vision = new Vision(msg.sender, amountGoal, visionType, visionDescr, deadline);\r\n\r\n        visions.push(vision);\r\n\r\n        emit NewVisionCreated(\r\n            address(vision),\r\n            msg.sender,\r\n            visionType,\r\n            visionDescr,\r\n            amountGoal\r\n        );\r\n    }\r\n\r\n    function getAllVisions() external view returns (Vision[] memory) {\r\n        return visions;\r\n    }\r\n}\r\n\r\n/// @title A Contract that depicts a Vision with its info and functions for investments, payments, votes etc\r\ncontract Vision is ReentrancyGuard, AccessControl {\r\n    using SafeMath for uint;\r\n    bytes32 public constant INVESTOR_ROLE = keccak256(\"INVESTOR_ROLE\");\r\n\r\n    enum State {\r\n        INVEST,\r\n        ENDED,\r\n        PAID,\r\n        EXPIRED\r\n    }\r\n    uint public amountGoal;\r\n    uint public currentAmount;\r\n    address public owner;\r\n    string public visionType;\r\n    string public visionDescr;\r\n    mapping(address => uint) public investors;\r\n    State public state = State.INVEST;\r\n    uint public sumOfInvestors;\r\n    uint public deadline;\r\n\r\n    struct WithdrawReq {\r\n        uint withdrawAmount;\r\n        address receiver;\r\n        string withdrawalReason;\r\n        uint votes;\r\n        mapping(address => bool) votedInvestors;\r\n        bool isDone;\r\n    }\r\n\r\n    WithdrawReq[] public requests;\r\n    uint public idxReq = 0;\r\n\r\n\r\n    modifier onlyOwner(){\r\n        require(msg.sender == owner, \"User is not the owner of the Vision\");\r\n        _;\r\n    }\r\n\r\n    modifier canInvest(){\r\n        require(state == State.INVEST && block.timestamp < deadline, \"Vision is not in Invest State\");\r\n        _;\r\n    }\r\n\r\n    modifier hasEnded(){\r\n        require(state == State.ENDED, \"Vision has not ended yet\");\r\n        _;\r\n    }\r\n\r\n    modifier hasExpired(){\r\n        require(state == State.EXPIRED, \"Vision has not expired\");\r\n        _;\r\n    }\r\n\r\n    modifier goalReached(){\r\n        require(currentAmount >= amountGoal, \"Goal has not been reached\");\r\n        _;\r\n    }\r\n\r\n    modifier hasInvestorRole(){\r\n        require(hasRole(INVESTOR_ROLE, msg.sender), \"Does not have investor role\");\r\n        _;\r\n    }\r\n\r\n    event VisionCreated(address indexed owner, uint amountGoal, string visionType, string visionDescr);\r\n    event InvestorAdded(address indexed investor);\r\n    event AmountReceived(address indexed _from, uint receivedAmount, uint currentAmount);\r\n    event AmountSent(address indexed _from, uint _amount);\r\n    event WithdrawnSuccess(address indexed _from, uint _amount);\r\n    event WithdrawnFailure(address indexed _from, uint _amount);\r\n    event GoalAchieved(address indexed owner, uint currentAmount);\r\n    event VisionExpired(address indexed owner, uint deadline);\r\n\r\n\r\n    constructor(address _owner, uint _amountGoal, string memory _type, string memory _descr, uint256 numOfDays) {\r\n        owner = _owner;\r\n        amountGoal = _amountGoal;\r\n        visionType = _type;\r\n        visionDescr = _descr;\r\n        deadline = block.timestamp + (numOfDays * 1 days);\r\n        //TODO: revisit this assignment\r\n        emit VisionCreated(_owner, _amountGoal, _type, _descr);\r\n    }\r\n\r\n    /// @notice Invest amount to a Vision\r\n    function invest() external canInvest payable {\r\n        require(msg.sender != owner);\r\n        addInvestor();\r\n        allowForPull(msg.sender, msg.value);\r\n        currentAmount = currentAmount.add(msg.value);\r\n        emit AmountReceived(msg.sender, msg.value, currentAmount);\r\n        checkVisionState();\r\n    }\r\n\r\n    /// @notice Checks if Vision's goal is reached, or Vision is expired\r\n    function checkVisionState() private {\r\n        if (currentAmount >= amountGoal) {\r\n            state = State.ENDED;\r\n            emit GoalAchieved(owner, currentAmount);\r\n        }\r\n        if (block.timestamp > deadline) {// TODO: Need to be checked!\r\n            state = State.EXPIRED;\r\n            emit VisionExpired(owner, deadline);\r\n        }\r\n    }\r\n\r\n    /// @notice Adds available amount per investor, pull over push pattern\r\n    /// @param receiver the investor address, amount the amount could be withdrawn\r\n    function allowForPull(address receiver, uint amount) private {\r\n        investors[receiver] = investors[receiver].add(amount);\r\n    }\r\n\r\n    /// @notice Investors can withdraw invested amount if the Vision is expired\r\n    function withdrawInvestedAmount() public hasInvestorRole hasExpired payable nonReentrant returns (bool){// TODO: Need to be checked.\r\n        uint amount = investors[msg.sender];\r\n\r\n        require(amount != 0);\r\n        investors[msg.sender] = 0;\r\n\r\n        (bool success,) = msg.sender.call{value : amount}(\"\");\r\n        if (success) {\r\n            currentAmount = currentAmount.sub(amount);\r\n        } else {\r\n            investors[msg.sender] = amount;\r\n        }\r\n        return success;\r\n    }\r\n\r\n    /// @notice Add investor\r\n    /// @dev Before adding, checks if already investor exists\r\n    function addInvestor() private {\r\n        if (investors[msg.sender] == 0) {//TODO:Possible modifier\r\n            sumOfInvestors += 1;\r\n            _setupRole(INVESTOR_ROLE, msg.sender);\r\n            emit InvestorAdded(msg.sender);\r\n        }\r\n    }\r\n\r\n    /// @notice Creates a withdraw request\r\n    /// @param _withdrawAmount the amount to be withdrawn, _receiver the address of the receiver, _withdrawalReason the reason of the withdrawal\r\n    function createWithdrawRequest(uint _withdrawAmount, string calldata _withdrawalReason) public onlyOwner hasEnded {\r\n        require(currentAmount >= _withdrawAmount, 'Requested amount is greater than the available one.');\r\n        //TODO:Possible modifier\r\n        WithdrawReq storage newReq = requests.push();\r\n        newReq.receiver = msg.sender;\r\n        newReq.withdrawAmount = _withdrawAmount;\r\n        newReq.withdrawalReason = _withdrawalReason;\r\n        newReq.votes = 0;\r\n        newReq.isDone = false;\r\n        idxReq++;\r\n    }\r\n\r\n    /// @notice Vote for a withdrawal request\r\n    /// @param idx the index of the request\r\n    function vote(uint idx) public hasEnded hasInvestorRole {\r\n        WithdrawReq storage withdrawReq = requests[idx];\r\n        require(withdrawReq.isDone == false, \"Withdrawal already done!\");\r\n        require(withdrawReq.votedInvestors[msg.sender] == false, \"User already voted\");\r\n        withdrawReq.votedInvestors[msg.sender] = true;\r\n        withdrawReq.votes++;\r\n    }\r\n\r\n    /// @notice Send the amount requested to the receiver\r\n    /// @param idx the index of the request\r\n    function withdraw(uint idx) public onlyOwner payable nonReentrant hasEnded {\r\n        WithdrawReq storage req = requests[idx];\r\n        require(req.isDone == false, \"Withdrawal already done!\");\r\n        require(req.votes >= sumOfInvestors / 2 && !(req.votes != 1 && sumOfInvestors == 1), \"Not enough votes!\");\r\n        currentAmount = currentAmount.sub(req.withdrawAmount);\r\n        require(currentAmount >= 0, \"Not enough amount!!!\");\r\n        (bool success,) = req.receiver.call{value : req.withdrawAmount}(\"\");\r\n        if (success) {\r\n            req.isDone = true;\r\n            if (currentAmount == 0) state = State.PAID;\r\n            emit WithdrawnSuccess(req.receiver, req.withdrawAmount);\r\n        } else {\r\n            emit WithdrawnFailure(req.receiver, req.withdrawAmount);\r\n        }\r\n    }\r\n    //////////////\r\n    function getVision() public view returns\r\n    (\r\n        address _owner,\r\n        string memory _type,\r\n        string memory _description,\r\n        State _currentState,\r\n        uint256 _goal,\r\n        uint256 _currentAmount,\r\n        uint256 _deadline,\r\n        uint _sumOfInvestors,\r\n        uint _idxReq\r\n    ) {\r\n        _owner = owner;\r\n        _type = visionType;\r\n        _currentState = state;\r\n        _description = visionDescr;\r\n        _goal = amountGoal;\r\n        _currentAmount = currentAmount;\r\n        _deadline = deadline;\r\n        _sumOfInvestors = sumOfInvestors;\r\n        _idxReq = idxReq;\r\n    }\r\n\r\n    //TODO:Revisit\r\n    receive() external payable {\r\n        revert();\r\n    }\r\n\r\n    fallback() external payable {\r\n        revert();\r\n    }\r\n}\r\n",
  "sourcePath": "/mnt/c/Users/kwnst/WebstormProjects/blockchain-developer-bootcamp-final-project_v2/contracts/Etherpreneur.sol",
  "compiler": {
    "name": "solc",
    "version": "0.8.0+commit.c7dfd78e.Emscripten.clang"
  },
  "schemaVersion": "3.4.3",
  "updatedAt": "2021-11-17T20:21:44.826Z",
  "devdoc": {
    "kind": "dev",
    "methods": {
      "createWithdrawRequest(uint256,string)": {
        "params": {
          "_withdrawAmount": "the amount to be withdrawn, _receiver the address of the receiver, _withdrawalReason the reason of the withdrawal"
        }
      },
      "getRoleAdmin(bytes32)": {
        "details": "Returns the admin role that controls `role`. See {grantRole} and {revokeRole}. To change a role's admin, use {_setRoleAdmin}."
      },
      "grantRole(bytes32,address)": {
        "details": "Grants `role` to `account`. If `account` had not been already granted `role`, emits a {RoleGranted} event. Requirements: - the caller must have ``role``'s admin role."
      },
      "hasRole(bytes32,address)": {
        "details": "Returns `true` if `account` has been granted `role`."
      },
      "renounceRole(bytes32,address)": {
        "details": "Revokes `role` from the calling account. Roles are often managed via {grantRole} and {revokeRole}: this function's purpose is to provide a mechanism for accounts to lose their privileges if they are compromised (such as when a trusted device is misplaced). If the calling account had been granted `role`, emits a {RoleRevoked} event. Requirements: - the caller must be `account`."
      },
      "revokeRole(bytes32,address)": {
        "details": "Revokes `role` from `account`. If `account` had been granted `role`, emits a {RoleRevoked} event. Requirements: - the caller must have ``role``'s admin role."
      },
      "supportsInterface(bytes4)": {
        "details": "See {IERC165-supportsInterface}."
      },
      "vote(uint256)": {
        "params": {
          "idx": "the index of the request"
        }
      },
      "withdraw(uint256)": {
        "params": {
          "idx": "the index of the request"
        }
      }
    },
    "title": "A Contract that depicts a Vision with its info and functions for investments, payments, votes etc",
    "version": 1
  },
  "userdoc": {
    "kind": "user",
    "methods": {
      "createWithdrawRequest(uint256,string)": {
        "notice": "Creates a withdraw request"
      },
      "invest()": {
        "notice": "Invest amount to a Vision"
      },
      "vote(uint256)": {
        "notice": "Vote for a withdrawal request"
      },
      "withdraw(uint256)": {
        "notice": "Send the amount requested to the receiver"
      },
      "withdrawInvestedAmount()": {
        "notice": "Investors can withdraw invested amount if the Vision is expired"
      }
    },
    "version": 1
  }
}