{
  "contractName": "Vision",
  "abi": [
    {
      "inputs": [
        {
          "internalType": "address",
          "name": "_owner",
          "type": "address"
        },
        {
          "internalType": "uint256",
          "name": "_amountGoal",
          "type": "uint256"
        },
        {
          "internalType": "string",
          "name": "_type",
          "type": "string"
        },
        {
          "internalType": "string",
          "name": "_descr",
          "type": "string"
        },
        {
          "internalType": "uint256",
          "name": "numOfDays",
          "type": "uint256"
        }
      ],
      "stateMutability": "nonpayable",
      "type": "constructor"
    },
    {
      "anonymous": false,
      "inputs": [
        {
          "indexed": true,
          "internalType": "address",
          "name": "_from",
          "type": "address"
        },
        {
          "indexed": false,
          "internalType": "uint256",
          "name": "receivedAmount",
          "type": "uint256"
        },
        {
          "indexed": false,
          "internalType": "uint256",
          "name": "currentAmount",
          "type": "uint256"
        }
      ],
      "name": "AmountReceived",
      "type": "event"
    },
    {
      "anonymous": false,
      "inputs": [
        {
          "indexed": true,
          "internalType": "address",
          "name": "_from",
          "type": "address"
        },
        {
          "indexed": false,
          "internalType": "uint256",
          "name": "_amount",
          "type": "uint256"
        }
      ],
      "name": "AmountSent",
      "type": "event"
    },
    {
      "anonymous": false,
      "inputs": [
        {
          "indexed": true,
          "internalType": "address",
          "name": "owner",
          "type": "address"
        },
        {
          "indexed": false,
          "internalType": "uint256",
          "name": "currentAmount",
          "type": "uint256"
        }
      ],
      "name": "GoalAchieved",
      "type": "event"
    },
    {
      "anonymous": false,
      "inputs": [
        {
          "indexed": true,
          "internalType": "address",
          "name": "investor",
          "type": "address"
        }
      ],
      "name": "InvestorAdded",
      "type": "event"
    },
    {
      "anonymous": false,
      "inputs": [
        {
          "indexed": true,
          "internalType": "address",
          "name": "owner",
          "type": "address"
        },
        {
          "indexed": false,
          "internalType": "uint256",
          "name": "amountGoal",
          "type": "uint256"
        },
        {
          "indexed": false,
          "internalType": "string",
          "name": "visionType",
          "type": "string"
        },
        {
          "indexed": false,
          "internalType": "string",
          "name": "visionDescr",
          "type": "string"
        }
      ],
      "name": "VisionCreated",
      "type": "event"
    },
    {
      "anonymous": false,
      "inputs": [
        {
          "indexed": true,
          "internalType": "address",
          "name": "_from",
          "type": "address"
        },
        {
          "indexed": false,
          "internalType": "uint256",
          "name": "_amount",
          "type": "uint256"
        }
      ],
      "name": "WithdrawnFailure",
      "type": "event"
    },
    {
      "anonymous": false,
      "inputs": [
        {
          "indexed": true,
          "internalType": "address",
          "name": "_from",
          "type": "address"
        },
        {
          "indexed": false,
          "internalType": "uint256",
          "name": "_amount",
          "type": "uint256"
        }
      ],
      "name": "WithdrawnSuccess",
      "type": "event"
    },
    {
      "stateMutability": "payable",
      "type": "fallback"
    },
    {
      "inputs": [],
      "name": "amountGoal",
      "outputs": [
        {
          "internalType": "uint256",
          "name": "",
          "type": "uint256"
        }
      ],
      "stateMutability": "view",
      "type": "function"
    },
    {
      "inputs": [],
      "name": "currentAmount",
      "outputs": [
        {
          "internalType": "uint256",
          "name": "",
          "type": "uint256"
        }
      ],
      "stateMutability": "view",
      "type": "function"
    },
    {
      "inputs": [],
      "name": "deadline",
      "outputs": [
        {
          "internalType": "uint256",
          "name": "",
          "type": "uint256"
        }
      ],
      "stateMutability": "view",
      "type": "function"
    },
    {
      "inputs": [],
      "name": "idxReq",
      "outputs": [
        {
          "internalType": "uint256",
          "name": "",
          "type": "uint256"
        }
      ],
      "stateMutability": "view",
      "type": "function"
    },
    {
      "inputs": [
        {
          "internalType": "address",
          "name": "",
          "type": "address"
        }
      ],
      "name": "investors",
      "outputs": [
        {
          "internalType": "uint256",
          "name": "",
          "type": "uint256"
        }
      ],
      "stateMutability": "view",
      "type": "function"
    },
    {
      "inputs": [],
      "name": "owner",
      "outputs": [
        {
          "internalType": "address",
          "name": "",
          "type": "address"
        }
      ],
      "stateMutability": "view",
      "type": "function"
    },
    {
      "inputs": [
        {
          "internalType": "uint256",
          "name": "",
          "type": "uint256"
        }
      ],
      "name": "requests",
      "outputs": [
        {
          "internalType": "uint256",
          "name": "withdrawAmount",
          "type": "uint256"
        },
        {
          "internalType": "address",
          "name": "receiver",
          "type": "address"
        },
        {
          "internalType": "string",
          "name": "withdrawalReason",
          "type": "string"
        },
        {
          "internalType": "uint256",
          "name": "votes",
          "type": "uint256"
        },
        {
          "internalType": "bool",
          "name": "isDone",
          "type": "bool"
        }
      ],
      "stateMutability": "view",
      "type": "function"
    },
    {
      "inputs": [],
      "name": "state",
      "outputs": [
        {
          "internalType": "enum Vision.State",
          "name": "",
          "type": "uint8"
        }
      ],
      "stateMutability": "view",
      "type": "function"
    },
    {
      "inputs": [],
      "name": "sumOfInvestors",
      "outputs": [
        {
          "internalType": "uint256",
          "name": "",
          "type": "uint256"
        }
      ],
      "stateMutability": "view",
      "type": "function"
    },
    {
      "inputs": [],
      "name": "visionDescr",
      "outputs": [
        {
          "internalType": "string",
          "name": "",
          "type": "string"
        }
      ],
      "stateMutability": "view",
      "type": "function"
    },
    {
      "inputs": [],
      "name": "visionType",
      "outputs": [
        {
          "internalType": "string",
          "name": "",
          "type": "string"
        }
      ],
      "stateMutability": "view",
      "type": "function"
    },
    {
      "stateMutability": "payable",
      "type": "receive"
    },
    {
      "inputs": [],
      "name": "invest",
      "outputs": [],
      "stateMutability": "payable",
      "type": "function"
    },
    {
      "inputs": [
        {
          "internalType": "uint256",
          "name": "amount",
          "type": "uint256"
        }
      ],
      "name": "makePayment",
      "outputs": [],
      "stateMutability": "payable",
      "type": "function"
    },
    {
      "inputs": [
        {
          "internalType": "uint256",
          "name": "_withdrawAmount",
          "type": "uint256"
        },
        {
          "internalType": "string",
          "name": "_withdrawalReason",
          "type": "string"
        }
      ],
      "name": "createWithdrawRequest",
      "outputs": [],
      "stateMutability": "nonpayable",
      "type": "function"
    },
    {
      "inputs": [
        {
          "internalType": "uint256",
          "name": "idx",
          "type": "uint256"
        }
      ],
      "name": "vote",
      "outputs": [],
      "stateMutability": "nonpayable",
      "type": "function"
    },
    {
      "inputs": [
        {
          "internalType": "uint256",
          "name": "idx",
          "type": "uint256"
        }
      ],
      "name": "withdraw",
      "outputs": [],
      "stateMutability": "payable",
      "type": "function"
    },
    {
      "inputs": [],
      "name": "getVision",
      "outputs": [
        {
          "internalType": "address",
          "name": "_owner",
          "type": "address"
        },
        {
          "internalType": "string",
          "name": "_type",
          "type": "string"
        },
        {
          "internalType": "string",
          "name": "_description",
          "type": "string"
        },
        {
          "internalType": "enum Vision.State",
          "name": "_currentState",
          "type": "uint8"
        },
        {
          "internalType": "uint256",
          "name": "_goal",
          "type": "uint256"
        },
        {
          "internalType": "uint256",
          "name": "_currentAmount",
          "type": "uint256"
        },
        {
          "internalType": "uint256",
          "name": "_deadline",
          "type": "uint256"
        },
        {
          "internalType": "uint256",
          "name": "_idxReq",
          "type": "uint256"
        }
      ],
      "stateMutability": "view",
      "type": "function"
    }
  ],
  "bytecode": "0x60806040526000600760006101000a81548160ff0219169083600281111562000051577f4e487b7100000000000000000000000000000000000000000000000000000000600052602160045260246000fd5b02179055506000600b553480156200006857600080fd5b50604051620028d6380380620028d683398181016040528101906200008e9190620002e3565b600160008190555084600360006101000a81548173ffffffffffffffffffffffffffffffffffffffff021916908373ffffffffffffffffffffffffffffffffffffffff160217905550836001819055508260049080519060200190620000f692919062000193565b5081600590805190602001906200010f92919062000193565b50620151808162000121919062000514565b426200012e9190620004b7565b6009819055508473ffffffffffffffffffffffffffffffffffffffff167f802850d1fc951145cd3466e518077f136692705e2164472cd89c3b1c9618cdf38585856040516200018093929190620003e9565b60405180910390a25050505050620006f1565b828054620001a190620005e9565b90600052602060002090601f016020900481019282620001c5576000855562000211565b82601f10620001e057805160ff191683800117855562000211565b8280016001018555821562000211579182015b8281111562000210578251825591602001919060010190620001f3565b5b50905062000220919062000224565b5090565b5b808211156200023f57600081600090555060010162000225565b5090565b60006200025a620002548462000468565b62000434565b9050828152602081018484840111156200027357600080fd5b62000280848285620005b3565b509392505050565b6000815190506200029981620006bd565b92915050565b600082601f830112620002b157600080fd5b8151620002c384826020860162000243565b91505092915050565b600081519050620002dd81620006d7565b92915050565b600080600080600060a08688031215620002fc57600080fd5b60006200030c8882890162000288565b95505060206200031f88828901620002cc565b945050604086015167ffffffffffffffff8111156200033d57600080fd5b6200034b888289016200029f565b935050606086015167ffffffffffffffff8111156200036957600080fd5b62000377888289016200029f565b92505060806200038a88828901620002cc565b9150509295509295909350565b6000620003a4826200049b565b620003b08185620004a6565b9350620003c2818560208601620005b3565b620003cd81620006ac565b840191505092915050565b620003e381620005a9565b82525050565b6000606082019050620004006000830186620003d8565b818103602083015262000414818562000397565b905081810360408301526200042a818462000397565b9050949350505050565b6000604051905081810181811067ffffffffffffffff821117156200045e576200045d6200067d565b5b8060405250919050565b600067ffffffffffffffff8211156200048657620004856200067d565b5b601f19601f8301169050602081019050919050565b600081519050919050565b600082825260208201905092915050565b6000620004c482620005a9565b9150620004d183620005a9565b9250827fffffffffffffffffffffffffffffffffffffffffffffffffffffffffffffffff038211156200050957620005086200061f565b5b828201905092915050565b60006200052182620005a9565b91506200052e83620005a9565b9250817fffffffffffffffffffffffffffffffffffffffffffffffffffffffffffffffff04831182151516156200056a57620005696200061f565b5b828202905092915050565b6000620005828262000589565b9050919050565b600073ffffffffffffffffffffffffffffffffffffffff82169050919050565b6000819050919050565b60005b83811015620005d3578082015181840152602081019050620005b6565b83811115620005e3576000848401525b50505050565b600060028204905060018216806200060257607f821691505b602082108114156200061957620006186200064e565b5b50919050565b7f4e487b7100000000000000000000000000000000000000000000000000000000600052601160045260246000fd5b7f4e487b7100000000000000000000000000000000000000000000000000000000600052602260045260246000fd5b7f4e487b7100000000000000000000000000000000000000000000000000000000600052604160045260246000fd5b6000601f19601f8301169050919050565b620006c88162000575565b8114620006d457600080fd5b50565b620006e281620005a9565b8114620006ee57600080fd5b50565b6121d580620007016000396000f3fe6080604052600436106101025760003560e01c80635114cb5211610095578063c19d93fb11610064578063c19d93fb1461031b578063c3726c3b14610346578063c962315914610378578063e8b5e51f146103a3578063f441b1c8146103ad5761010c565b80635114cb52146102565780636f7bc9be1461027257806381d12c58146102af5780638da5cb5b146102f05761010c565b806329dcb0cf116100d157806329dcb0cf146101b95780632a646054146101e45780632e1a7d4d1461020f5780634a19b4301461022b5761010c565b80630121b93f146101115780630785001c1461013a57806312205b2f14610165578063298633be1461018e5761010c565b3661010c57600080fd5b600080fd5b34801561011d57600080fd5b50610138600480360381019061013391906117e0565b6103d8565b005b34801561014657600080fd5b5061014f6105fa565b60405161015c9190611df5565b60405180910390f35b34801561017157600080fd5b5061018c60048036038101906101879190611809565b610600565b005b34801561019a57600080fd5b506101a36107e5565b6040516101b09190611df5565b60405180910390f35b3480156101c557600080fd5b506101ce6107eb565b6040516101db9190611df5565b60405180910390f35b3480156101f057600080fd5b506101f96107f1565b6040516102069190611df5565b60405180910390f35b610229600480360381019061022491906117e0565b6107f7565b005b34801561023757600080fd5b50610240610ba3565b60405161024d9190611c93565b60405180910390f35b610270600480360381019061026b91906117e0565b610c31565b005b34801561027e57600080fd5b50610299600480360381019061029491906117b7565b610f6b565b6040516102a69190611df5565b60405180910390f35b3480156102bb57600080fd5b506102d660048036038101906102d191906117e0565b610f83565b6040516102e7959493929190611e10565b60405180910390f35b3480156102fc57600080fd5b5061030561107e565b6040516103129190611bd1565b60405180910390f35b34801561032757600080fd5b506103306110a4565b60405161033d9190611c78565b60405180910390f35b34801561035257600080fd5b5061035b6110b7565b60405161036f989796959493929190611bec565b60405180910390f35b34801561038457600080fd5b5061038d611233565b60405161039a9190611c93565b60405180910390f35b6103ab6112c1565b005b3480156103b957600080fd5b506103c26115c6565b6040516103cf9190611df5565b60405180910390f35b600154600254101561041f576040517f08c379a000000000000000000000000000000000000000000000000000000000815260040161041690611db5565b60405180910390fd5b6000600660003373ffffffffffffffffffffffffffffffffffffffff1673ffffffffffffffffffffffffffffffffffffffff16815260200190815260200160002054116104a1576040517f08c379a000000000000000000000000000000000000000000000000000000000815260040161049890611d15565b60405180910390fd5b6000600a82815481106104dd577f4e487b7100000000000000000000000000000000000000000000000000000000600052603260045260246000fd5b90600052602060002090600602019050600015158160040160003373ffffffffffffffffffffffffffffffffffffffff1673ffffffffffffffffffffffffffffffffffffffff16815260200190815260200160002060009054906101000a900460ff16151514610582576040517f08c379a000000000000000000000000000000000000000000000000000000000815260040161057990611cb5565b60405180910390fd5b60018160040160003373ffffffffffffffffffffffffffffffffffffffff1673ffffffffffffffffffffffffffffffffffffffff16815260200190815260200160002060006101000a81548160ff0219169083151502179055508060030160008154809291906105f190612047565b91905055505050565b60015481565b600360009054906101000a900473ffffffffffffffffffffffffffffffffffffffff1673ffffffffffffffffffffffffffffffffffffffff163373ffffffffffffffffffffffffffffffffffffffff1614610690576040517f08c379a000000000000000000000000000000000000000000000000000000000815260040161068790611d55565b60405180910390fd5b60015460025410156106d7576040517f08c379a00000000000000000000000000000000000000000000000000000000081526004016106ce90611db5565b60405180910390fd5b82600254101561071c576040517f08c379a000000000000000000000000000000000000000000000000000000000815260040161071390611cf5565b60405180910390fd5b6000600a6001816001815401808255809150500390600052602060002090600602019050338160010160006101000a81548173ffffffffffffffffffffffffffffffffffffffff021916908373ffffffffffffffffffffffffffffffffffffffff160217905550838160000181905550828282600201919061079f9291906116a0565b506000816003018190555060008160050160006101000a81548160ff021916908315150217905550600b60008154809291906107da90612047565b919050555050505050565b60085481565b60095481565b600b5481565b600360009054906101000a900473ffffffffffffffffffffffffffffffffffffffff1673ffffffffffffffffffffffffffffffffffffffff163373ffffffffffffffffffffffffffffffffffffffff1614610887576040517f08c379a000000000000000000000000000000000000000000000000000000000815260040161087e90611d55565b60405180910390fd5b600260005414156108cd576040517f08c379a00000000000000000000000000000000000000000000000000000000081526004016108c490611d75565b60405180910390fd5b60026000819055506000600a8281548110610911577f4e487b7100000000000000000000000000000000000000000000000000000000600052603260045260246000fd5b90600052602060002090600602019050600015158160050160009054906101000a900460ff16151514610979576040517f08c379a000000000000000000000000000000000000000000000000000000000815260040161097090611d95565b60405180910390fd5b60026008546109889190611f10565b816003015410156109ce576040517f08c379a00000000000000000000000000000000000000000000000000000000081526004016109c590611dd5565b60405180910390fd5b6109e781600001546002546115cc90919063ffffffff16565b60028190555060008160010160009054906101000a900473ffffffffffffffffffffffffffffffffffffffff1673ffffffffffffffffffffffffffffffffffffffff168260000154604051610a3b90611bbc565b60006040518083038185875af1925050503d8060008114610a78576040519150601f19603f3d011682016040523d82523d6000602084013e610a7d565b606091505b505090508015610b1f5760018260050160006101000a81548160ff0219169083151502179055508160010160009054906101000a900473ffffffffffffffffffffffffffffffffffffffff1673ffffffffffffffffffffffffffffffffffffffff167f2089bb15d61bcd4b733abef2aeecdd97c9416dadbe007e9c4d8ce48dbec86c348360000154604051610b129190611df5565b60405180910390a2610b96565b8160010160009054906101000a900473ffffffffffffffffffffffffffffffffffffffff1673ffffffffffffffffffffffffffffffffffffffff167f1e785bb9ea2aeb7fbabd75760c432d8ed0dae945fdf84477ca59a88306680b9f8360000154604051610b8d9190611df5565b60405180910390a25b5050600160008190555050565b60048054610bb090612015565b80601f0160208091040260200160405190810160405280929190818152602001828054610bdc90612015565b8015610c295780601f10610bfe57610100808354040283529160200191610c29565b820191906000526020600020905b815481529060010190602001808311610c0c57829003601f168201915b505050505081565b60016002811115610c6b577f4e487b7100000000000000000000000000000000000000000000000000000000600052602160045260246000fd5b600760009054906101000a900460ff166002811115610cb3577f4e487b7100000000000000000000000000000000000000000000000000000000600052602160045260246000fd5b14610cf3576040517f08c379a0000000000000000000000000000000000000000000000000000000008152600401610cea90611cd5565b60405180910390fd5b6001546002541015610d3a576040517f08c379a0000000000000000000000000000000000000000000000000000000008152600401610d3190611db5565b60405180910390fd5b60026000541415610d80576040517f08c379a0000000000000000000000000000000000000000000000000000000008152600401610d7790611d75565b60405180910390fd5b600260008190555060006002819055506000600360009054906101000a900473ffffffffffffffffffffffffffffffffffffffff1673ffffffffffffffffffffffffffffffffffffffff1682604051610dd890611bbc565b60006040518083038185875af1925050503d8060008114610e15576040519150601f19603f3d011682016040523d82523d6000602084013e610e1a565b606091505b505090508015610eec576002600760006101000a81548160ff02191690836002811115610e70577f4e487b7100000000000000000000000000000000000000000000000000000000600052602160045260246000fd5b0217905550600360009054906101000a900473ffffffffffffffffffffffffffffffffffffffff1673ffffffffffffffffffffffffffffffffffffffff167f2089bb15d61bcd4b733abef2aeecdd97c9416dadbe007e9c4d8ce48dbec86c34600254604051610edf9190611df5565b60405180910390a2610f5f565b600360009054906101000a900473ffffffffffffffffffffffffffffffffffffffff1673ffffffffffffffffffffffffffffffffffffffff167f1e785bb9ea2aeb7fbabd75760c432d8ed0dae945fdf84477ca59a88306680b9f600254604051610f569190611df5565b60405180910390a25b50600160008190555050565b60066020528060005260406000206000915090505481565b600a8181548110610f9357600080fd5b90600052602060002090600602016000915090508060000154908060010160009054906101000a900473ffffffffffffffffffffffffffffffffffffffff1690806002018054610fe290612015565b80601f016020809104026020016040519081016040528092919081815260200182805461100e90612015565b801561105b5780601f106110305761010080835404028352916020019161105b565b820191906000526020600020905b81548152906001019060200180831161103e57829003601f168201915b5050505050908060030154908060050160009054906101000a900460ff16905085565b600360009054906101000a900473ffffffffffffffffffffffffffffffffffffffff1681565b600760009054906101000a900460ff1681565b60006060806000806000806000600360009054906101000a900473ffffffffffffffffffffffffffffffffffffffff169750600480546110f690612015565b80601f016020809104026020016040519081016040528092919081815260200182805461112290612015565b801561116f5780601f106111445761010080835404028352916020019161116f565b820191906000526020600020905b81548152906001019060200180831161115257829003601f168201915b50505050509650600760009054906101000a900460ff1694506005805461119590612015565b80601f01602080910402602001604051908101604052809291908181526020018280546111c190612015565b801561120e5780601f106111e35761010080835404028352916020019161120e565b820191906000526020600020905b8154815290600101906020018083116111f157829003601f168201915b50505050509550600154935060025492506009549150600b5490509091929394959697565b6005805461124090612015565b80601f016020809104026020016040519081016040528092919081815260200182805461126c90612015565b80156112b95780601f1061128e576101008083540402835291602001916112b9565b820191906000526020600020905b81548152906001019060200180831161129c57829003601f168201915b505050505081565b600060028111156112fb577f4e487b7100000000000000000000000000000000000000000000000000000000600052602160045260246000fd5b600760009054906101000a900460ff166002811115611343577f4e487b7100000000000000000000000000000000000000000000000000000000600052602160045260246000fd5b148015611351575060095442105b611390576040517f08c379a000000000000000000000000000000000000000000000000000000000815260040161138790611d35565b60405180910390fd5b600360009054906101000a900473ffffffffffffffffffffffffffffffffffffffff1673ffffffffffffffffffffffffffffffffffffffff163373ffffffffffffffffffffffffffffffffffffffff1614156113eb57600080fd5b6113f36115e2565b61144534600660003373ffffffffffffffffffffffffffffffffffffffff1673ffffffffffffffffffffffffffffffffffffffff1681526020019081526020016000205461168a90919063ffffffff16565b600660003373ffffffffffffffffffffffffffffffffffffffff1673ffffffffffffffffffffffffffffffffffffffff1681526020019081526020016000208190555061149d3460025461168a90919063ffffffff16565b6002819055503373ffffffffffffffffffffffffffffffffffffffff167fcda619981924cb5cfd654b61cf0f4ef8299cee9f2f1e9cb23774af6f11a7f905346002546040516114ed929190611e6a565b60405180910390a2600154600254106115c4576001600760006101000a81548160ff0219169083600281111561154c577f4e487b7100000000000000000000000000000000000000000000000000000000600052602160045260246000fd5b0217905550600360009054906101000a900473ffffffffffffffffffffffffffffffffffffffff1673ffffffffffffffffffffffffffffffffffffffff167f5d69eee4b16dceba60f559d3c6b9f96c3f7c7342fb1d06c1d2f7e14f8120c4df6002546040516115bb9190611df5565b60405180910390a25b565b60025481565b600081836115da9190611f41565b905092915050565b6000600660003373ffffffffffffffffffffffffffffffffffffffff1673ffffffffffffffffffffffffffffffffffffffff1681526020019081526020016000205414156116885760016008600082825461163d9190611eba565b925050819055503373ffffffffffffffffffffffffffffffffffffffff167f62e6a5118be03f9bfedb79b0ed7ed75ee4a9e15fc4c69d2c4976acde26fa2d5f60405160405180910390a25b565b600081836116989190611eba565b905092915050565b8280546116ac90612015565b90600052602060002090601f0160209004810192826116ce5760008555611715565b82601f106116e757803560ff1916838001178555611715565b82800160010185558215611715579182015b828111156117145782358255916020019190600101906116f9565b5b5090506117229190611726565b5090565b5b8082111561173f576000816000905550600101611727565b5090565b60008135905061175281612171565b92915050565b60008083601f84011261176a57600080fd5b8235905067ffffffffffffffff81111561178357600080fd5b60208301915083600182028301111561179b57600080fd5b9250929050565b6000813590506117b181612188565b92915050565b6000602082840312156117c957600080fd5b60006117d784828501611743565b91505092915050565b6000602082840312156117f257600080fd5b6000611800848285016117a2565b91505092915050565b60008060006040848603121561181e57600080fd5b600061182c868287016117a2565b935050602084013567ffffffffffffffff81111561184957600080fd5b61185586828701611758565b92509250509250925092565b61186a81611f75565b82525050565b61187981611f87565b82525050565b61188881611fd0565b82525050565b600061189982611e93565b6118a38185611ea9565b93506118b3818560208601611fe2565b6118bc8161214c565b840191505092915050565b60006118d4601283611ea9565b91507f5573657220616c726561647920766f74656400000000000000000000000000006000830152602082019050919050565b6000611914601983611ea9565b91507f50726f6a65637420686173206e6f7420656e64656420796574000000000000006000830152602082019050919050565b6000611954603383611ea9565b91507f52657175657374656420616d6f756e742069732067726561746572207468616e60008301527f2074686520617661696c61626c65206f6e652e000000000000000000000000006020830152604082019050919050565b60006119ba601683611ea9565b91507f4e6f20616d6f756e742077617320696e766573746564000000000000000000006000830152602082019050919050565b60006119fa601e83611ea9565b91507f50726f6a656374206973206e6f7420696e20496e7665737420537461746500006000830152602082019050919050565b6000611a3a600083611e9e565b9150600082019050919050565b6000611a54602483611ea9565b91507f55736572206973206e6f7420746865206f776e6572206f66207468652050726f60008301527f6a656374000000000000000000000000000000000000000000000000000000006020830152604082019050919050565b6000611aba601f83611ea9565b91507f5265656e7472616e637947756172643a207265656e7472616e742063616c6c006000830152602082019050919050565b6000611afa601883611ea9565b91507f5769746864726177616c20616c726561647920646f6e652100000000000000006000830152602082019050919050565b6000611b3a601983611ea9565b91507f476f616c20686173206e6f74206265656e2072656163686564000000000000006000830152602082019050919050565b6000611b7a601183611ea9565b91507f4e6f7420656e6f75676820766f746573210000000000000000000000000000006000830152602082019050919050565b611bb681611fc6565b82525050565b6000611bc782611a2d565b9150819050919050565b6000602082019050611be66000830184611861565b92915050565b600061010082019050611c02600083018b611861565b8181036020830152611c14818a61188e565b90508181036040830152611c28818961188e565b9050611c37606083018861187f565b611c446080830187611bad565b611c5160a0830186611bad565b611c5e60c0830185611bad565b611c6b60e0830184611bad565b9998505050505050505050565b6000602082019050611c8d600083018461187f565b92915050565b60006020820190508181036000830152611cad818461188e565b905092915050565b60006020820190508181036000830152611cce816118c7565b9050919050565b60006020820190508181036000830152611cee81611907565b9050919050565b60006020820190508181036000830152611d0e81611947565b9050919050565b60006020820190508181036000830152611d2e816119ad565b9050919050565b60006020820190508181036000830152611d4e816119ed565b9050919050565b60006020820190508181036000830152611d6e81611a47565b9050919050565b60006020820190508181036000830152611d8e81611aad565b9050919050565b60006020820190508181036000830152611dae81611aed565b9050919050565b60006020820190508181036000830152611dce81611b2d565b9050919050565b60006020820190508181036000830152611dee81611b6d565b9050919050565b6000602082019050611e0a6000830184611bad565b92915050565b600060a082019050611e256000830188611bad565b611e326020830187611861565b8181036040830152611e44818661188e565b9050611e536060830185611bad565b611e606080830184611870565b9695505050505050565b6000604082019050611e7f6000830185611bad565b611e8c6020830184611bad565b9392505050565b600081519050919050565b600081905092915050565b600082825260208201905092915050565b6000611ec582611fc6565b9150611ed083611fc6565b9250827fffffffffffffffffffffffffffffffffffffffffffffffffffffffffffffffff03821115611f0557611f04612090565b5b828201905092915050565b6000611f1b82611fc6565b9150611f2683611fc6565b925082611f3657611f356120bf565b5b828204905092915050565b6000611f4c82611fc6565b9150611f5783611fc6565b925082821015611f6a57611f69612090565b5b828203905092915050565b6000611f8082611fa6565b9050919050565b60008115159050919050565b6000819050611fa18261215d565b919050565b600073ffffffffffffffffffffffffffffffffffffffff82169050919050565b6000819050919050565b6000611fdb82611f93565b9050919050565b60005b83811015612000578082015181840152602081019050611fe5565b8381111561200f576000848401525b50505050565b6000600282049050600182168061202d57607f821691505b602082108114156120415761204061211d565b5b50919050565b600061205282611fc6565b91507fffffffffffffffffffffffffffffffffffffffffffffffffffffffffffffffff82141561208557612084612090565b5b600182019050919050565b7f4e487b7100000000000000000000000000000000000000000000000000000000600052601160045260246000fd5b7f4e487b7100000000000000000000000000000000000000000000000000000000600052601260045260246000fd5b7f4e487b7100000000000000000000000000000000000000000000000000000000600052602160045260246000fd5b7f4e487b7100000000000000000000000000000000000000000000000000000000600052602260045260246000fd5b6000601f19601f8301169050919050565b6003811061216e5761216d6120ee565b5b50565b61217a81611f75565b811461218557600080fd5b50565b61219181611fc6565b811461219c57600080fd5b5056fea26469706673582212208c85d63b8afa807117626c383bda00105ab93f8f85f94129e1bd3aabd3e5cc2264736f6c63430008000033",
  "immutableReferences": {},
  "source": "// SPDX-License-Identifier: MIT\r\npragma solidity ^0.8.0;\r\n\r\nimport \"@openzeppelin/contracts/utils/math/SafeMath.sol\";\r\nimport \"@openzeppelin/contracts/security/ReentrancyGuard.sol\";\r\n\r\n/// @title A Contract for making Visions\r\n/// @author K. Koliopoulou\r\n/// @notice You can use this contract to construct new Visions\r\ncontract Etherpreneur {\r\n    address public owner = msg.sender;\r\n    Vision[] private visions;\r\n\r\n    event NewVisionCreated(\r\n        address _visionAddress,\r\n        address _owner,\r\n        string _type,\r\n        string _desciption,\r\n        uint _amountGoal\r\n    );\r\n\r\n    function createVision(string calldata visionType, string calldata visionDescr, uint amountGoal, uint deadline) external {\r\n\r\n        Vision vision = new Vision(msg.sender, amountGoal, visionType, visionDescr, deadline);\r\n\r\n        visions.push(vision);\r\n\r\n        emit NewVisionCreated(\r\n            address(vision),\r\n            msg.sender,\r\n            visionType,\r\n            visionDescr,\r\n            amountGoal\r\n        );\r\n    }\r\n\r\n    function getAllVisions() external view returns (Vision[] memory) {\r\n        return visions;\r\n    }\r\n}\r\n\r\n/// @title A Contract that depicts a Vision with its info and functions for investments, payments, votes etc\r\ncontract Vision is ReentrancyGuard {\r\n    using SafeMath for uint;\r\n\r\n    enum State {\r\n        INVEST,\r\n        ENDED,\r\n        PAID\r\n    }\r\n    uint public amountGoal;\r\n    uint public currentAmount;\r\n    address public owner;\r\n    string public visionType;\r\n    string public visionDescr;\r\n    mapping(address => uint) public investors;\r\n    State public state = State.INVEST;\r\n    uint public sumOfInvestors;\r\n    uint public deadline;\r\n\r\n    struct WithdrawReq {\r\n        uint withdrawAmount;\r\n        address receiver;\r\n        string withdrawalReason;\r\n        uint votes;\r\n        mapping(address => bool) votedInvestors;\r\n        bool isDone;\r\n    }\r\n\r\n    WithdrawReq[] public requests;\r\n    uint public idxReq = 0;\r\n\r\n\r\n    modifier onlyOwner(){\r\n        require(msg.sender == owner, \"User is not the owner of the Project\");\r\n        _;\r\n    }\r\n\r\n    modifier canInvest(){\r\n        require(state == State.INVEST && block.timestamp < deadline, \"Project is not in Invest State\");\r\n        _;\r\n    }\r\n\r\n    modifier hasEnded(){\r\n        require(state == State.ENDED, \"Project has not ended yet\");\r\n        _;\r\n    }\r\n\r\n    modifier goalReached(){\r\n        require(currentAmount >= amountGoal, \"Goal has not been reached\");\r\n        _;\r\n    }\r\n\r\n    modifier isInvestor(){\r\n        require(investors[msg.sender] > 0, \"No amount was invested\");\r\n        _;\r\n    }\r\n\r\n    event VisionCreated(address indexed owner, uint amountGoal, string visionType, string visionDescr);\r\n    event InvestorAdded(address indexed investor);\r\n    event AmountReceived(address indexed _from, uint receivedAmount, uint currentAmount);\r\n    event AmountSent(address indexed _from, uint _amount);\r\n    event WithdrawnSuccess(address indexed _from, uint _amount);\r\n    event WithdrawnFailure(address indexed _from, uint _amount);\r\n    event GoalAchieved(address indexed owner, uint currentAmount);\r\n\r\n\r\n    constructor(address _owner, uint _amountGoal, string memory _type, string memory _descr, uint256 numOfDays) {\r\n        owner = _owner;\r\n        amountGoal = _amountGoal;\r\n        visionType = _type;\r\n        visionDescr = _descr;\r\n        deadline = block.timestamp + (numOfDays * 1 days);\r\n        //TODO: revisit this assignment\r\n        emit VisionCreated(_owner, _amountGoal, _type, _descr);\r\n    }\r\n\r\n    /// @notice Invest amount to a Vision\r\n    function invest() external canInvest payable {\r\n        require(msg.sender != owner);\r\n        addInvestor();\r\n        investors[msg.sender] = investors[msg.sender].add(msg.value);\r\n        currentAmount = currentAmount.add(msg.value);\r\n        emit AmountReceived(msg.sender, msg.value, currentAmount);\r\n        if (currentAmount >= amountGoal) {\r\n            state = State.ENDED;\r\n            emit GoalAchieved(owner, currentAmount);\r\n        }\r\n    }\r\n\r\n    /// @notice Add investor\r\n    /// @dev Before adding checks if already investor exists\r\n    function addInvestor() internal {\r\n        if (investors[msg.sender] == 0) {//TODO:Possible modifier\r\n            sumOfInvestors += 1;\r\n            emit InvestorAdded(msg.sender);\r\n        }\r\n    }\r\n\r\n    /// @notice Sends the amount to the owner of the Vision\r\n    /// @param amount the amount to be sent\r\n    function makePayment(uint amount) public payable hasEnded goalReached nonReentrant {\r\n        currentAmount = 0;\r\n        (bool success,) = owner.call{value : amount}(\"\");\r\n        if (success) {\r\n            state = State.PAID;\r\n            emit WithdrawnSuccess(owner, currentAmount);\r\n        } else {\r\n            emit WithdrawnFailure(owner, currentAmount);\r\n        }\r\n    }\r\n\r\n    /// @notice Creates a withdraw request\r\n    /// @param _withdrawAmount the amount to be withdrawn, _receiver the address of the receiver, _withdrawalReason the reason of the withdrawal\r\n    function createWithdrawRequest(uint _withdrawAmount, string calldata _withdrawalReason) public onlyOwner goalReached {\r\n        require(currentAmount >= _withdrawAmount, 'Requested amount is greater than the available one.');\r\n        //TODO:Possible modifier\r\n        WithdrawReq storage newReq = requests.push();\r\n        newReq.receiver = msg.sender;\r\n        newReq.withdrawAmount = _withdrawAmount;\r\n        newReq.withdrawalReason = _withdrawalReason;\r\n        newReq.votes = 0;\r\n        newReq.isDone = false;\r\n        idxReq++;\r\n    }\r\n\r\n    /// @notice Vote for a withdrawal request\r\n    /// @param idx the index of the request\r\n    function vote(uint idx) public goalReached isInvestor {\r\n        WithdrawReq storage withdrawReq = requests[idx];\r\n        require(withdrawReq.votedInvestors[msg.sender] == false, \"User already voted\");\r\n        withdrawReq.votedInvestors[msg.sender] = true;\r\n        withdrawReq.votes++;\r\n    }\r\n\r\n    /// @notice Send the amount requested to the receiver\r\n    /// @param idx the index of the request\r\n    function withdraw(uint idx) public onlyOwner payable nonReentrant {\r\n        WithdrawReq storage req = requests[idx];\r\n        require(req.isDone == false, \"Withdrawal already done!\");\r\n        require(req.votes >= sumOfInvestors / 2, \"Not enough votes!\");\r\n        currentAmount = currentAmount.sub(req.withdrawAmount);\r\n        (bool success,) = req.receiver.call{value : req.withdrawAmount}(\"\");\r\n        if (success) {\r\n            req.isDone = true;\r\n            emit WithdrawnSuccess(req.receiver, req.withdrawAmount);\r\n        } else {\r\n            emit WithdrawnFailure(req.receiver, req.withdrawAmount);\r\n        }\r\n    }\r\n    //////////////\r\n    function getVision() public view returns\r\n    (\r\n        address _owner,\r\n        string memory _type,\r\n        string memory _description,\r\n        State _currentState,\r\n        uint256 _goal,\r\n        uint256 _currentAmount,\r\n        uint256 _deadline,\r\n        uint _idxReq\r\n    ) {\r\n        _owner = owner;\r\n        _type = visionType;\r\n        _currentState = state;\r\n        _description = visionDescr;\r\n        _goal = amountGoal;\r\n        _currentAmount = currentAmount;\r\n        _deadline = deadline;\r\n        _idxReq = idxReq;\r\n    }\r\n\r\n    //TODO:Revisit\r\n    receive() external payable {\r\n        revert();\r\n    }\r\n\r\n    fallback() external payable {\r\n        revert();\r\n    }\r\n}\r\n",
  "sourcePath": "/mnt/c/Users/kwnst/WebstormProjects/blockchain-developer-bootcamp-final-project_v2/contracts/Etherpreneur.sol",
  "compiler": {
    "name": "solc",
    "version": "0.8.0+commit.c7dfd78e.Emscripten.clang"
  },
  "schemaVersion": "3.4.3",
  "updatedAt": "2021-11-09T23:07:32.175Z",
  "devdoc": {
    "kind": "dev",
    "methods": {
      "createWithdrawRequest(uint256,string)": {
        "params": {
          "_withdrawAmount": "the amount to be withdrawn, _receiver the address of the receiver, _withdrawalReason the reason of the withdrawal"
        }
      },
      "makePayment(uint256)": {
        "params": {
          "amount": "the amount to be sent"
        }
      },
      "vote(uint256)": {
        "params": {
          "idx": "the index of the request"
        }
      },
      "withdraw(uint256)": {
        "params": {
          "idx": "the index of the request"
        }
      }
    },
    "title": "A Contract that depicts a Vision with its info and functions for investments, payments, votes etc",
    "version": 1
  },
  "userdoc": {
    "kind": "user",
    "methods": {
      "createWithdrawRequest(uint256,string)": {
        "notice": "Creates a withdraw request"
      },
      "invest()": {
        "notice": "Invest amount to a Vision"
      },
      "makePayment(uint256)": {
        "notice": "Sends the amount to the owner of the Vision"
      },
      "vote(uint256)": {
        "notice": "Vote for a withdrawal request"
      },
      "withdraw(uint256)": {
        "notice": "Send the amount requested to the receiver"
      }
    },
    "version": 1
  }
}