{
  "contractName": "Vision",
  "abi": [
    {
      "inputs": [
        {
          "internalType": "address",
          "name": "_owner",
          "type": "address"
        },
        {
          "internalType": "uint256",
          "name": "_amountGoal",
          "type": "uint256"
        },
        {
          "internalType": "string",
          "name": "_type",
          "type": "string"
        },
        {
          "internalType": "string",
          "name": "_descr",
          "type": "string"
        },
        {
          "internalType": "uint256",
          "name": "numOfDays",
          "type": "uint256"
        }
      ],
      "stateMutability": "nonpayable",
      "type": "constructor"
    },
    {
      "anonymous": false,
      "inputs": [
        {
          "indexed": true,
          "internalType": "address",
          "name": "_from",
          "type": "address"
        },
        {
          "indexed": false,
          "internalType": "uint256",
          "name": "receivedAmount",
          "type": "uint256"
        },
        {
          "indexed": false,
          "internalType": "uint256",
          "name": "currentAmount",
          "type": "uint256"
        }
      ],
      "name": "AmountReceived",
      "type": "event"
    },
    {
      "anonymous": false,
      "inputs": [
        {
          "indexed": true,
          "internalType": "address",
          "name": "_from",
          "type": "address"
        },
        {
          "indexed": false,
          "internalType": "uint256",
          "name": "_amount",
          "type": "uint256"
        }
      ],
      "name": "AmountSent",
      "type": "event"
    },
    {
      "anonymous": false,
      "inputs": [
        {
          "indexed": true,
          "internalType": "address",
          "name": "owner",
          "type": "address"
        },
        {
          "indexed": false,
          "internalType": "uint256",
          "name": "currentAmount",
          "type": "uint256"
        }
      ],
      "name": "GoalAchieved",
      "type": "event"
    },
    {
      "anonymous": false,
      "inputs": [
        {
          "indexed": true,
          "internalType": "address",
          "name": "investor",
          "type": "address"
        }
      ],
      "name": "InvestorAdded",
      "type": "event"
    },
    {
      "anonymous": false,
      "inputs": [
        {
          "indexed": true,
          "internalType": "bytes32",
          "name": "role",
          "type": "bytes32"
        },
        {
          "indexed": true,
          "internalType": "bytes32",
          "name": "previousAdminRole",
          "type": "bytes32"
        },
        {
          "indexed": true,
          "internalType": "bytes32",
          "name": "newAdminRole",
          "type": "bytes32"
        }
      ],
      "name": "RoleAdminChanged",
      "type": "event"
    },
    {
      "anonymous": false,
      "inputs": [
        {
          "indexed": true,
          "internalType": "bytes32",
          "name": "role",
          "type": "bytes32"
        },
        {
          "indexed": true,
          "internalType": "address",
          "name": "account",
          "type": "address"
        },
        {
          "indexed": true,
          "internalType": "address",
          "name": "sender",
          "type": "address"
        }
      ],
      "name": "RoleGranted",
      "type": "event"
    },
    {
      "anonymous": false,
      "inputs": [
        {
          "indexed": true,
          "internalType": "bytes32",
          "name": "role",
          "type": "bytes32"
        },
        {
          "indexed": true,
          "internalType": "address",
          "name": "account",
          "type": "address"
        },
        {
          "indexed": true,
          "internalType": "address",
          "name": "sender",
          "type": "address"
        }
      ],
      "name": "RoleRevoked",
      "type": "event"
    },
    {
      "anonymous": false,
      "inputs": [
        {
          "indexed": true,
          "internalType": "address",
          "name": "owner",
          "type": "address"
        },
        {
          "indexed": false,
          "internalType": "uint256",
          "name": "amountGoal",
          "type": "uint256"
        },
        {
          "indexed": false,
          "internalType": "string",
          "name": "visionType",
          "type": "string"
        },
        {
          "indexed": false,
          "internalType": "string",
          "name": "visionDescr",
          "type": "string"
        }
      ],
      "name": "VisionCreated",
      "type": "event"
    },
    {
      "anonymous": false,
      "inputs": [
        {
          "indexed": true,
          "internalType": "address",
          "name": "owner",
          "type": "address"
        },
        {
          "indexed": false,
          "internalType": "uint256",
          "name": "deadline",
          "type": "uint256"
        }
      ],
      "name": "VisionExpired",
      "type": "event"
    },
    {
      "anonymous": false,
      "inputs": [
        {
          "indexed": true,
          "internalType": "address",
          "name": "_from",
          "type": "address"
        },
        {
          "indexed": false,
          "internalType": "uint256",
          "name": "_amount",
          "type": "uint256"
        }
      ],
      "name": "WithdrawnSuccess",
      "type": "event"
    },
    {
      "stateMutability": "payable",
      "type": "fallback"
    },
    {
      "inputs": [],
      "name": "DEFAULT_ADMIN_ROLE",
      "outputs": [
        {
          "internalType": "bytes32",
          "name": "",
          "type": "bytes32"
        }
      ],
      "stateMutability": "view",
      "type": "function"
    },
    {
      "inputs": [],
      "name": "INVESTOR_ROLE",
      "outputs": [
        {
          "internalType": "bytes32",
          "name": "",
          "type": "bytes32"
        }
      ],
      "stateMutability": "view",
      "type": "function"
    },
    {
      "inputs": [],
      "name": "amountGoal",
      "outputs": [
        {
          "internalType": "uint256",
          "name": "",
          "type": "uint256"
        }
      ],
      "stateMutability": "view",
      "type": "function"
    },
    {
      "inputs": [],
      "name": "currentAmount",
      "outputs": [
        {
          "internalType": "uint256",
          "name": "",
          "type": "uint256"
        }
      ],
      "stateMutability": "view",
      "type": "function"
    },
    {
      "inputs": [],
      "name": "deadline",
      "outputs": [
        {
          "internalType": "uint256",
          "name": "",
          "type": "uint256"
        }
      ],
      "stateMutability": "view",
      "type": "function"
    },
    {
      "inputs": [
        {
          "internalType": "bytes32",
          "name": "role",
          "type": "bytes32"
        }
      ],
      "name": "getRoleAdmin",
      "outputs": [
        {
          "internalType": "bytes32",
          "name": "",
          "type": "bytes32"
        }
      ],
      "stateMutability": "view",
      "type": "function"
    },
    {
      "inputs": [
        {
          "internalType": "bytes32",
          "name": "role",
          "type": "bytes32"
        },
        {
          "internalType": "address",
          "name": "account",
          "type": "address"
        }
      ],
      "name": "grantRole",
      "outputs": [],
      "stateMutability": "nonpayable",
      "type": "function"
    },
    {
      "inputs": [
        {
          "internalType": "bytes32",
          "name": "role",
          "type": "bytes32"
        },
        {
          "internalType": "address",
          "name": "account",
          "type": "address"
        }
      ],
      "name": "hasRole",
      "outputs": [
        {
          "internalType": "bool",
          "name": "",
          "type": "bool"
        }
      ],
      "stateMutability": "view",
      "type": "function"
    },
    {
      "inputs": [],
      "name": "idxReq",
      "outputs": [
        {
          "internalType": "uint256",
          "name": "",
          "type": "uint256"
        }
      ],
      "stateMutability": "view",
      "type": "function"
    },
    {
      "inputs": [
        {
          "internalType": "address",
          "name": "",
          "type": "address"
        }
      ],
      "name": "investors",
      "outputs": [
        {
          "internalType": "uint256",
          "name": "",
          "type": "uint256"
        }
      ],
      "stateMutability": "view",
      "type": "function"
    },
    {
      "inputs": [],
      "name": "owner",
      "outputs": [
        {
          "internalType": "address",
          "name": "",
          "type": "address"
        }
      ],
      "stateMutability": "view",
      "type": "function"
    },
    {
      "inputs": [
        {
          "internalType": "bytes32",
          "name": "role",
          "type": "bytes32"
        },
        {
          "internalType": "address",
          "name": "account",
          "type": "address"
        }
      ],
      "name": "renounceRole",
      "outputs": [],
      "stateMutability": "nonpayable",
      "type": "function"
    },
    {
      "inputs": [
        {
          "internalType": "uint256",
          "name": "",
          "type": "uint256"
        }
      ],
      "name": "requests",
      "outputs": [
        {
          "internalType": "uint256",
          "name": "withdrawAmount",
          "type": "uint256"
        },
        {
          "internalType": "address",
          "name": "receiver",
          "type": "address"
        },
        {
          "internalType": "string",
          "name": "withdrawalReason",
          "type": "string"
        },
        {
          "internalType": "uint256",
          "name": "votes",
          "type": "uint256"
        },
        {
          "internalType": "bool",
          "name": "isDone",
          "type": "bool"
        }
      ],
      "stateMutability": "view",
      "type": "function"
    },
    {
      "inputs": [
        {
          "internalType": "bytes32",
          "name": "role",
          "type": "bytes32"
        },
        {
          "internalType": "address",
          "name": "account",
          "type": "address"
        }
      ],
      "name": "revokeRole",
      "outputs": [],
      "stateMutability": "nonpayable",
      "type": "function"
    },
    {
      "inputs": [],
      "name": "state",
      "outputs": [
        {
          "internalType": "enum Vision.State",
          "name": "",
          "type": "uint8"
        }
      ],
      "stateMutability": "view",
      "type": "function"
    },
    {
      "inputs": [],
      "name": "sumOfInvestors",
      "outputs": [
        {
          "internalType": "uint256",
          "name": "",
          "type": "uint256"
        }
      ],
      "stateMutability": "view",
      "type": "function"
    },
    {
      "inputs": [
        {
          "internalType": "bytes4",
          "name": "interfaceId",
          "type": "bytes4"
        }
      ],
      "name": "supportsInterface",
      "outputs": [
        {
          "internalType": "bool",
          "name": "",
          "type": "bool"
        }
      ],
      "stateMutability": "view",
      "type": "function"
    },
    {
      "inputs": [],
      "name": "visionDescr",
      "outputs": [
        {
          "internalType": "string",
          "name": "",
          "type": "string"
        }
      ],
      "stateMutability": "view",
      "type": "function"
    },
    {
      "inputs": [],
      "name": "visionType",
      "outputs": [
        {
          "internalType": "string",
          "name": "",
          "type": "string"
        }
      ],
      "stateMutability": "view",
      "type": "function"
    },
    {
      "stateMutability": "payable",
      "type": "receive"
    },
    {
      "inputs": [],
      "name": "invest",
      "outputs": [],
      "stateMutability": "payable",
      "type": "function"
    },
    {
      "inputs": [],
      "name": "withdrawInvestedAmount",
      "outputs": [
        {
          "internalType": "bool",
          "name": "",
          "type": "bool"
        }
      ],
      "stateMutability": "payable",
      "type": "function"
    },
    {
      "inputs": [
        {
          "internalType": "address",
          "name": "investor",
          "type": "address"
        }
      ],
      "name": "getInvestorAmount",
      "outputs": [
        {
          "internalType": "uint256",
          "name": "",
          "type": "uint256"
        }
      ],
      "stateMutability": "view",
      "type": "function"
    },
    {
      "inputs": [
        {
          "internalType": "uint256",
          "name": "_withdrawAmount",
          "type": "uint256"
        },
        {
          "internalType": "string",
          "name": "_withdrawalReason",
          "type": "string"
        }
      ],
      "name": "createWithdrawRequest",
      "outputs": [],
      "stateMutability": "nonpayable",
      "type": "function"
    },
    {
      "inputs": [
        {
          "internalType": "uint256",
          "name": "idx",
          "type": "uint256"
        }
      ],
      "name": "vote",
      "outputs": [],
      "stateMutability": "nonpayable",
      "type": "function"
    },
    {
      "inputs": [
        {
          "internalType": "uint256",
          "name": "idx",
          "type": "uint256"
        }
      ],
      "name": "withdraw",
      "outputs": [],
      "stateMutability": "payable",
      "type": "function"
    },
    {
      "inputs": [],
      "name": "getVision",
      "outputs": [
        {
          "internalType": "address",
          "name": "_owner",
          "type": "address"
        },
        {
          "internalType": "string",
          "name": "_type",
          "type": "string"
        },
        {
          "internalType": "string",
          "name": "_description",
          "type": "string"
        },
        {
          "internalType": "enum Vision.State",
          "name": "_currentState",
          "type": "uint8"
        },
        {
          "internalType": "uint256",
          "name": "_goal",
          "type": "uint256"
        },
        {
          "internalType": "uint256",
          "name": "_currentAmount",
          "type": "uint256"
        },
        {
          "internalType": "uint256",
          "name": "_deadline",
          "type": "uint256"
        },
        {
          "internalType": "uint256",
          "name": "_sumOfInvestors",
          "type": "uint256"
        },
        {
          "internalType": "uint256",
          "name": "_idxReq",
          "type": "uint256"
        }
      ],
      "stateMutability": "view",
      "type": "function"
    }
  ],
  "bytecode": "0x60806040526000600860006101000a81548160ff0219169083600381111562000051577f4e487b7100000000000000000000000000000000000000000000000000000000600052602160045260246000fd5b02179055506000600c553480156200006857600080fd5b5060405162003ad138038062003ad183398181016040528101906200008e9190620002e3565b600160008190555084600460006101000a81548173ffffffffffffffffffffffffffffffffffffffff021916908373ffffffffffffffffffffffffffffffffffffffff160217905550836002819055508260059080519060200190620000f692919062000193565b5081600690805190602001906200010f92919062000193565b50620151808162000121919062000514565b426200012e9190620004b7565b600a819055508473ffffffffffffffffffffffffffffffffffffffff167f802850d1fc951145cd3466e518077f136692705e2164472cd89c3b1c9618cdf38585856040516200018093929190620003e9565b60405180910390a25050505050620006f1565b828054620001a190620005e9565b90600052602060002090601f016020900481019282620001c5576000855562000211565b82601f10620001e057805160ff191683800117855562000211565b8280016001018555821562000211579182015b8281111562000210578251825591602001919060010190620001f3565b5b50905062000220919062000224565b5090565b5b808211156200023f57600081600090555060010162000225565b5090565b60006200025a620002548462000468565b62000434565b9050828152602081018484840111156200027357600080fd5b62000280848285620005b3565b509392505050565b6000815190506200029981620006bd565b92915050565b600082601f830112620002b157600080fd5b8151620002c384826020860162000243565b91505092915050565b600081519050620002dd81620006d7565b92915050565b600080600080600060a08688031215620002fc57600080fd5b60006200030c8882890162000288565b95505060206200031f88828901620002cc565b945050604086015167ffffffffffffffff8111156200033d57600080fd5b6200034b888289016200029f565b935050606086015167ffffffffffffffff8111156200036957600080fd5b62000377888289016200029f565b92505060806200038a88828901620002cc565b9150509295509295909350565b6000620003a4826200049b565b620003b08185620004a6565b9350620003c2818560208601620005b3565b620003cd81620006ac565b840191505092915050565b620003e381620005a9565b82525050565b6000606082019050620004006000830186620003d8565b818103602083015262000414818562000397565b905081810360408301526200042a818462000397565b9050949350505050565b6000604051905081810181811067ffffffffffffffff821117156200045e576200045d6200067d565b5b8060405250919050565b600067ffffffffffffffff8211156200048657620004856200067d565b5b601f19601f8301169050602081019050919050565b600081519050919050565b600082825260208201905092915050565b6000620004c482620005a9565b9150620004d183620005a9565b9250827fffffffffffffffffffffffffffffffffffffffffffffffffffffffffffffffff038211156200050957620005086200061f565b5b828201905092915050565b60006200052182620005a9565b91506200052e83620005a9565b9250817fffffffffffffffffffffffffffffffffffffffffffffffffffffffffffffffff04831182151516156200056a57620005696200061f565b5b828202905092915050565b6000620005828262000589565b9050919050565b600073ffffffffffffffffffffffffffffffffffffffff82169050919050565b6000819050919050565b60005b83811015620005d3578082015181840152602081019050620005b6565b83811115620005e3576000848401525b50505050565b600060028204905060018216806200060257607f821691505b602082108114156200061957620006186200064e565b5b50919050565b7f4e487b7100000000000000000000000000000000000000000000000000000000600052601160045260246000fd5b7f4e487b7100000000000000000000000000000000000000000000000000000000600052602260045260246000fd5b7f4e487b7100000000000000000000000000000000000000000000000000000000600052604160045260246000fd5b6000601f19601f8301169050919050565b620006c88162000575565b8114620006d457600080fd5b50565b620006e281620005a9565b8114620006ee57600080fd5b50565b6133d080620007016000396000f3fe6080604052600436106101855760003560e01c80636f7bc9be116100d1578063b57410dc1161008a578063c962315911610064578063c96231591461059a578063d547741f146105c5578063e8b5e51f146105ee578063f441b1c8146105f85761018f565b8063b57410dc1461051e578063c19d93fb1461053c578063c3726c3b146105675761018f565b80636f7bc9be146103e257806376082a5e1461041f57806381d12c581461044a5780638da5cb5b1461048b57806391d14854146104b6578063a217fddf146104f35761018f565b806329dcb0cf1161013e5780632f2ff15d116101185780632f2ff15d1461032857806336568abe146103515780634a19b4301461037a5780635f75fae9146103a55761018f565b806329dcb0cf146102b65780632a646054146102e15780632e1a7d4d1461030c5761018f565b80630121b93f1461019457806301ffc9a7146101bd5780630785001c146101fa57806312205b2f14610225578063248a9ca31461024e578063298633be1461028b5761018f565b3661018f57600080fd5b600080fd5b3480156101a057600080fd5b506101bb60048036038101906101b691906125dd565b610623565b005b3480156101c957600080fd5b506101e460048036038101906101df91906125b4565b6108ff565b6040516101f19190612cca565b60405180910390f35b34801561020657600080fd5b5061020f610979565b60405161021c9190612efd565b60405180910390f35b34801561023157600080fd5b5061024c60048036038101906102479190612606565b61097f565b005b34801561025a57600080fd5b506102756004803603810190610270919061254f565b610bdf565b6040516102829190612ce5565b60405180910390f35b34801561029757600080fd5b506102a0610bff565b6040516102ad9190612efd565b60405180910390f35b3480156102c257600080fd5b506102cb610c05565b6040516102d89190612efd565b60405180910390f35b3480156102ed57600080fd5b506102f6610c0b565b6040516103039190612efd565b60405180910390f35b610326600480360381019061032191906125dd565b610c11565b005b34801561033457600080fd5b5061034f600480360381019061034a9190612578565b611100565b005b34801561035d57600080fd5b5061037860048036038101906103739190612578565b611129565b005b34801561038657600080fd5b5061038f6111ac565b60405161039c9190612d1b565b60405180910390f35b3480156103b157600080fd5b506103cc60048036038101906103c79190612526565b61123a565b6040516103d99190612efd565b60405180910390f35b3480156103ee57600080fd5b5061040960048036038101906104049190612526565b611283565b6040516104169190612efd565b60405180910390f35b34801561042b57600080fd5b5061043461129b565b6040516104419190612ce5565b60405180910390f35b34801561045657600080fd5b50610471600480360381019061046c91906125dd565b6112bf565b604051610482959493929190612f18565b60405180910390f35b34801561049757600080fd5b506104a06113ba565b6040516104ad9190612c14565b60405180910390f35b3480156104c257600080fd5b506104dd60048036038101906104d89190612578565b6113e0565b6040516104ea9190612cca565b60405180910390f35b3480156104ff57600080fd5b5061050861144b565b6040516105159190612ce5565b60405180910390f35b610526611452565b6040516105339190612cca565b60405180910390f35b34801561054857600080fd5b50610551611689565b60405161055e9190612d00565b60405180910390f35b34801561057357600080fd5b5061057c61169c565b60405161059199989796959493929190612c2f565b60405180910390f35b3480156105a657600080fd5b506105af61181f565b6040516105bc9190612d1b565b60405180910390f35b3480156105d157600080fd5b506105ec60048036038101906105e79190612578565b6118ad565b005b6105f66118d6565b005b34801561060457600080fd5b5061060d611ad0565b60405161061a9190612efd565b60405180910390f35b6001600381111561065d577f4e487b7100000000000000000000000000000000000000000000000000000000600052602160045260246000fd5b600860009054906101000a900460ff1660038111156106a5577f4e487b7100000000000000000000000000000000000000000000000000000000600052602160045260246000fd5b146106e5576040517f08c379a00000000000000000000000000000000000000000000000000000000081526004016106dc90612e1d565b60405180910390fd5b61070f7fb165298935924f540e4181c03493a5d686c54a0aaeb3f6216de85b7ffbba7738336113e0565b61074e576040517f08c379a000000000000000000000000000000000000000000000000000000000815260040161074590612edd565b60405180910390fd5b6000600b828154811061078a577f4e487b7100000000000000000000000000000000000000000000000000000000600052603260045260246000fd5b90600052602060002090600602019050600015158160050160009054906101000a900460ff161515146107f2576040517f08c379a00000000000000000000000000000000000000000000000000000000081526004016107e990612e7d565b60405180910390fd5b600015158160040160003373ffffffffffffffffffffffffffffffffffffffff1673ffffffffffffffffffffffffffffffffffffffff16815260200190815260200160002060009054906101000a900460ff16151514610887576040517f08c379a000000000000000000000000000000000000000000000000000000000815260040161087e90612d5d565b60405180910390fd5b60018160040160003373ffffffffffffffffffffffffffffffffffffffff1673ffffffffffffffffffffffffffffffffffffffff16815260200190815260200160002060006101000a81548160ff0219169083151502179055508060030160008154809291906108f690613214565b91905055505050565b60007f7965db0b000000000000000000000000000000000000000000000000000000007bffffffffffffffffffffffffffffffffffffffffffffffffffffffff1916827bffffffffffffffffffffffffffffffffffffffffffffffffffffffff19161480610972575061097182611ad6565b5b9050919050565b60025481565b600460009054906101000a900473ffffffffffffffffffffffffffffffffffffffff1673ffffffffffffffffffffffffffffffffffffffff163373ffffffffffffffffffffffffffffffffffffffff1614610a0f576040517f08c379a0000000000000000000000000000000000000000000000000000000008152600401610a0690612dfd565b60405180910390fd5b60016003811115610a49577f4e487b7100000000000000000000000000000000000000000000000000000000600052602160045260246000fd5b600860009054906101000a900460ff166003811115610a91577f4e487b7100000000000000000000000000000000000000000000000000000000600052602160045260246000fd5b14610ad1576040517f08c379a0000000000000000000000000000000000000000000000000000000008152600401610ac890612e1d565b60405180910390fd5b826003541015610b16576040517f08c379a0000000000000000000000000000000000000000000000000000000008152600401610b0d90612dbd565b60405180910390fd5b6000600b6001816001815401808255809150500390600052602060002090600602019050338160010160006101000a81548173ffffffffffffffffffffffffffffffffffffffff021916908373ffffffffffffffffffffffffffffffffffffffff1602179055508381600001819055508282826002019190610b999291906123e5565b506000816003018190555060008160050160006101000a81548160ff021916908315150217905550600c6000815480929190610bd490613214565b919050555050505050565b600060016000838152602001908152602001600020600101549050919050565b60095481565b600a5481565b600c5481565b600460009054906101000a900473ffffffffffffffffffffffffffffffffffffffff1673ffffffffffffffffffffffffffffffffffffffff163373ffffffffffffffffffffffffffffffffffffffff1614610ca1576040517f08c379a0000000000000000000000000000000000000000000000000000000008152600401610c9890612dfd565b60405180910390fd5b60026000541415610ce7576040517f08c379a0000000000000000000000000000000000000000000000000000000008152600401610cde90612e5d565b60405180910390fd5b600260008190555060016003811115610d29577f4e487b7100000000000000000000000000000000000000000000000000000000600052602160045260246000fd5b600860009054906101000a900460ff166003811115610d71577f4e487b7100000000000000000000000000000000000000000000000000000000600052602160045260246000fd5b14610db1576040517f08c379a0000000000000000000000000000000000000000000000000000000008152600401610da890612e1d565b60405180910390fd5b6000600b8281548110610ded577f4e487b7100000000000000000000000000000000000000000000000000000000600052603260045260246000fd5b90600052602060002090600602019050600015158160050160009054906101000a900460ff16151514610e55576040517f08c379a0000000000000000000000000000000000000000000000000000000008152600401610e4c90612e7d565b60405180910390fd5b6002600954610e649190613023565b816003015410158015610e8b57506001816003015414158015610e8957506001600954145b155b610eca576040517f08c379a0000000000000000000000000000000000000000000000000000000008152600401610ec190612ebd565b60405180910390fd5b610ee38160000154600354611b4090919063ffffffff16565b60038190555060006003541015610f2f576040517f08c379a0000000000000000000000000000000000000000000000000000000008152600401610f2690612e3d565b60405180910390fd5b60008160010160009054906101000a900473ffffffffffffffffffffffffffffffffffffffff1673ffffffffffffffffffffffffffffffffffffffff168260000154604051610f7d90612bc5565b60006040518083038185875af1925050503d8060008114610fba576040519150601f19603f3d011682016040523d82523d6000602084013e610fbf565b606091505b5050905080611003576040517f08c379a0000000000000000000000000000000000000000000000000000000008152600401610ffa90612ddd565b60405180910390fd5b60018260050160006101000a81548160ff0219169083151502179055506000600354141561107d576002600860006101000a81548160ff02191690836003811115611077577f4e487b7100000000000000000000000000000000000000000000000000000000600052602160045260246000fd5b02179055505b8160010160009054906101000a900473ffffffffffffffffffffffffffffffffffffffff1673ffffffffffffffffffffffffffffffffffffffff167f2089bb15d61bcd4b733abef2aeecdd97c9416dadbe007e9c4d8ce48dbec86c3483600001546040516110eb9190612efd565b60405180910390a25050600160008190555050565b61110982610bdf565b61111a81611115611b56565b611b5e565b6111248383611bfb565b505050565b611131611b56565b73ffffffffffffffffffffffffffffffffffffffff168173ffffffffffffffffffffffffffffffffffffffff161461119e576040517f08c379a000000000000000000000000000000000000000000000000000000000815260040161119590612e9d565b60405180910390fd5b6111a88282611cdb565b5050565b600580546111b9906131e2565b80601f01602080910402602001604051908101604052809291908181526020018280546111e5906131e2565b80156112325780601f1061120757610100808354040283529160200191611232565b820191906000526020600020905b81548152906001019060200180831161121557829003601f168201915b505050505081565b6000600760008373ffffffffffffffffffffffffffffffffffffffff1673ffffffffffffffffffffffffffffffffffffffff168152602001908152602001600020549050919050565b60076020528060005260406000206000915090505481565b7fb165298935924f540e4181c03493a5d686c54a0aaeb3f6216de85b7ffbba773881565b600b81815481106112cf57600080fd5b90600052602060002090600602016000915090508060000154908060010160009054906101000a900473ffffffffffffffffffffffffffffffffffffffff169080600201805461131e906131e2565b80601f016020809104026020016040519081016040528092919081815260200182805461134a906131e2565b80156113975780601f1061136c57610100808354040283529160200191611397565b820191906000526020600020905b81548152906001019060200180831161137a57829003601f168201915b5050505050908060030154908060050160009054906101000a900460ff16905085565b600460009054906101000a900473ffffffffffffffffffffffffffffffffffffffff1681565b60006001600084815260200190815260200160002060000160008373ffffffffffffffffffffffffffffffffffffffff1673ffffffffffffffffffffffffffffffffffffffff16815260200190815260200160002060009054906101000a900460ff16905092915050565b6000801b81565b600061147e7fb165298935924f540e4181c03493a5d686c54a0aaeb3f6216de85b7ffbba7738336113e0565b6114bd576040517f08c379a00000000000000000000000000000000000000000000000000000000081526004016114b490612edd565b60405180910390fd5b60026000541415611503576040517f08c379a00000000000000000000000000000000000000000000000000000000081526004016114fa90612e5d565b60405180910390fd5b60026000819055506000600760003373ffffffffffffffffffffffffffffffffffffffff1673ffffffffffffffffffffffffffffffffffffffff168152602001908152602001600020549050600081141561155d57600080fd5b6000600760003373ffffffffffffffffffffffffffffffffffffffff1673ffffffffffffffffffffffffffffffffffffffff1681526020019081526020016000208190555060003373ffffffffffffffffffffffffffffffffffffffff16826040516115c890612bc5565b60006040518083038185875af1925050503d8060008114611605576040519150601f19603f3d011682016040523d82523d6000602084013e61160a565b606091505b5050905080156116345761162982600354611b4090919063ffffffff16565b600381905550611679565b81600760003373ffffffffffffffffffffffffffffffffffffffff1673ffffffffffffffffffffffffffffffffffffffff168152602001908152602001600020819055505b8092505050600160008190555090565b600860009054906101000a900460ff1681565b6000606080600080600080600080600460009054906101000a900473ffffffffffffffffffffffffffffffffffffffff169850600580546116dc906131e2565b80601f0160208091040260200160405190810160405280929190818152602001828054611708906131e2565b80156117555780601f1061172a57610100808354040283529160200191611755565b820191906000526020600020905b81548152906001019060200180831161173857829003601f168201915b50505050509750600860009054906101000a900460ff1695506006805461177b906131e2565b80601f01602080910402602001604051908101604052809291908181526020018280546117a7906131e2565b80156117f45780601f106117c9576101008083540402835291602001916117f4565b820191906000526020600020905b8154815290600101906020018083116117d757829003601f168201915b5050505050965060025494506003549350600a5492506009549150600c549050909192939495969798565b6006805461182c906131e2565b80601f0160208091040260200160405190810160405280929190818152602001828054611858906131e2565b80156118a55780601f1061187a576101008083540402835291602001916118a5565b820191906000526020600020905b81548152906001019060200180831161188857829003601f168201915b505050505081565b6118b682610bdf565b6118c7816118c2611b56565b611b5e565b6118d18383611cdb565b505050565b60006003811115611910577f4e487b7100000000000000000000000000000000000000000000000000000000600052602160045260246000fd5b600860009054906101000a900460ff166003811115611958577f4e487b7100000000000000000000000000000000000000000000000000000000600052602160045260246000fd5b1480156119665750600a5442105b6119a5576040517f08c379a000000000000000000000000000000000000000000000000000000000815260040161199c90612d9d565b60405180910390fd5b600460009054906101000a900473ffffffffffffffffffffffffffffffffffffffff1673ffffffffffffffffffffffffffffffffffffffff163373ffffffffffffffffffffffffffffffffffffffff161415611a0057600080fd5b611a08611dbd565b611a123334611e8f565b611a2734600354611f2890919063ffffffff16565b6003819055506002546003541115611a74576040517f08c379a0000000000000000000000000000000000000000000000000000000008152600401611a6b90612d7d565b60405180910390fd5b3373ffffffffffffffffffffffffffffffffffffffff167fcda619981924cb5cfd654b61cf0f4ef8299cee9f2f1e9cb23774af6f11a7f90534600354604051611abe929190612f72565b60405180910390a2611ace611f3e565b565b60035481565b60007f01ffc9a7000000000000000000000000000000000000000000000000000000007bffffffffffffffffffffffffffffffffffffffffffffffffffffffff1916827bffffffffffffffffffffffffffffffffffffffffffffffffffffffff1916149050919050565b60008183611b4e91906130ae565b905092915050565b600033905090565b611b6882826113e0565b611bf757611b8d8173ffffffffffffffffffffffffffffffffffffffff1660146120dd565b611b9b8360001c60206120dd565b604051602001611bac929190612bda565b6040516020818303038152906040526040517f08c379a0000000000000000000000000000000000000000000000000000000008152600401611bee9190612d1b565b60405180910390fd5b5050565b611c0582826113e0565b611cd757600180600084815260200190815260200160002060000160008373ffffffffffffffffffffffffffffffffffffffff1673ffffffffffffffffffffffffffffffffffffffff16815260200190815260200160002060006101000a81548160ff021916908315150217905550611c7c611b56565b73ffffffffffffffffffffffffffffffffffffffff168173ffffffffffffffffffffffffffffffffffffffff16837f2f8788117e7eff1d82e926ec794901d17c78024a50270940304540a733656f0d60405160405180910390a45b5050565b611ce582826113e0565b15611db95760006001600084815260200190815260200160002060000160008373ffffffffffffffffffffffffffffffffffffffff1673ffffffffffffffffffffffffffffffffffffffff16815260200190815260200160002060006101000a81548160ff021916908315150217905550611d5e611b56565b73ffffffffffffffffffffffffffffffffffffffff168173ffffffffffffffffffffffffffffffffffffffff16837ff6391f5c32d9c69d2a47ea670b442974b53935d1edc7fd64eb21e047a839171b60405160405180910390a45b5050565b6000600760003373ffffffffffffffffffffffffffffffffffffffff1673ffffffffffffffffffffffffffffffffffffffff168152602001908152602001600020541415611e8d57600160096000828254611e189190612fcd565b92505081905550611e497fb165298935924f540e4181c03493a5d686c54a0aaeb3f6216de85b7ffbba7738336123d7565b3373ffffffffffffffffffffffffffffffffffffffff167f62e6a5118be03f9bfedb79b0ed7ed75ee4a9e15fc4c69d2c4976acde26fa2d5f60405160405180910390a25b565b611ee181600760008573ffffffffffffffffffffffffffffffffffffffff1673ffffffffffffffffffffffffffffffffffffffff16815260200190815260200160002054611f2890919063ffffffff16565b600760008473ffffffffffffffffffffffffffffffffffffffff1673ffffffffffffffffffffffffffffffffffffffff168152602001908152602001600020819055505050565b60008183611f369190612fcd565b905092915050565b6002546003541061200d576001600860006101000a81548160ff02191690836003811115611f95577f4e487b7100000000000000000000000000000000000000000000000000000000600052602160045260246000fd5b0217905550600460009054906101000a900473ffffffffffffffffffffffffffffffffffffffff1673ffffffffffffffffffffffffffffffffffffffff167f5d69eee4b16dceba60f559d3c6b9f96c3f7c7342fb1d06c1d2f7e14f8120c4df6003546040516120049190612efd565b60405180910390a25b600a544211156120db576003600860006101000a81548160ff02191690836003811115612063577f4e487b7100000000000000000000000000000000000000000000000000000000600052602160045260246000fd5b0217905550600460009054906101000a900473ffffffffffffffffffffffffffffffffffffffff1673ffffffffffffffffffffffffffffffffffffffff167fd0c836b5eda6a7bc4e27d71ecabd755f556824dc8831baed46f5ab97b0a30c65600a546040516120d29190612efd565b60405180910390a25b565b6060600060028360026120f09190613054565b6120fa9190612fcd565b67ffffffffffffffff811115612139577f4e487b7100000000000000000000000000000000000000000000000000000000600052604160045260246000fd5b6040519080825280601f01601f19166020018201604052801561216b5781602001600182028036833780820191505090505b5090507f3000000000000000000000000000000000000000000000000000000000000000816000815181106121c9577f4e487b7100000000000000000000000000000000000000000000000000000000600052603260045260246000fd5b60200101907effffffffffffffffffffffffffffffffffffffffffffffffffffffffffffff1916908160001a9053507f780000000000000000000000000000000000000000000000000000000000000081600181518110612253577f4e487b7100000000000000000000000000000000000000000000000000000000600052603260045260246000fd5b60200101907effffffffffffffffffffffffffffffffffffffffffffffffffffffffffffff1916908160001a905350600060018460026122939190613054565b61229d9190612fcd565b90505b6001811115612389577f3031323334353637383961626364656600000000000000000000000000000000600f861660108110612305577f4e487b7100000000000000000000000000000000000000000000000000000000600052603260045260246000fd5b1a60f81b828281518110612342577f4e487b7100000000000000000000000000000000000000000000000000000000600052603260045260246000fd5b60200101907effffffffffffffffffffffffffffffffffffffffffffffffffffffffffffff1916908160001a905350600485901c945080612382906131b8565b90506122a0565b50600084146123cd576040517f08c379a00000000000000000000000000000000000000000000000000000000081526004016123c490612d3d565b60405180910390fd5b8091505092915050565b6123e18282611bfb565b5050565b8280546123f1906131e2565b90600052602060002090601f016020900481019282612413576000855561245a565b82601f1061242c57803560ff191683800117855561245a565b8280016001018555821561245a579182015b8281111561245957823582559160200191906001019061243e565b5b509050612467919061246b565b5090565b5b8082111561248457600081600090555060010161246c565b5090565b6000813590506124978161333e565b92915050565b6000813590506124ac81613355565b92915050565b6000813590506124c18161336c565b92915050565b60008083601f8401126124d957600080fd5b8235905067ffffffffffffffff8111156124f257600080fd5b60208301915083600182028301111561250a57600080fd5b9250929050565b60008135905061252081613383565b92915050565b60006020828403121561253857600080fd5b600061254684828501612488565b91505092915050565b60006020828403121561256157600080fd5b600061256f8482850161249d565b91505092915050565b6000806040838503121561258b57600080fd5b60006125998582860161249d565b92505060206125aa85828601612488565b9150509250929050565b6000602082840312156125c657600080fd5b60006125d4848285016124b2565b91505092915050565b6000602082840312156125ef57600080fd5b60006125fd84828501612511565b91505092915050565b60008060006040848603121561261b57600080fd5b600061262986828701612511565b935050602084013567ffffffffffffffff81111561264657600080fd5b612652868287016124c7565b92509250509250925092565b612667816130e2565b82525050565b612676816130f4565b82525050565b61268581613100565b82525050565b61269481613173565b82525050565b60006126a582612f9b565b6126af8185612fb1565b93506126bf818560208601613185565b6126c881613319565b840191505092915050565b60006126de82612f9b565b6126e88185612fc2565b93506126f8818560208601613185565b80840191505092915050565b6000612711602083612fb1565b91507f537472696e67733a20686578206c656e67746820696e73756666696369656e746000830152602082019050919050565b6000612751601283612fb1565b91507f5573657220616c726561647920766f74656400000000000000000000000000006000830152602082019050919050565b6000612791602683612fb1565b91507f496e76657374656420616d6f756e74206578636565647320726571756573746560008301527f6420676f616c00000000000000000000000000000000000000000000000000006020830152604082019050919050565b60006127f7601d83612fb1565b91507f566973696f6e206973206e6f7420696e20496e766573742053746174650000006000830152602082019050919050565b6000612837603383612fb1565b91507f52657175657374656420616d6f756e742069732067726561746572207468616e60008301527f2074686520617661696c61626c65206f6e652e000000000000000000000000006020830152604082019050919050565b600061289d601583612fb1565b91507f57697468647261776e20686173206661696c65642100000000000000000000006000830152602082019050919050565b60006128dd602383612fb1565b91507f55736572206973206e6f7420746865206f776e6572206f66207468652056697360008301527f696f6e00000000000000000000000000000000000000000000000000000000006020830152604082019050919050565b6000612943601883612fb1565b91507f566973696f6e20686173206e6f7420656e6465642079657400000000000000006000830152602082019050919050565b6000612983600083612fa6565b9150600082019050919050565b600061299d601783612fc2565b91507f416363657373436f6e74726f6c3a206163636f756e74200000000000000000006000830152601782019050919050565b60006129dd601483612fb1565b91507f4e6f7420656e6f75676820616d6f756e742121210000000000000000000000006000830152602082019050919050565b6000612a1d601f83612fb1565b91507f5265656e7472616e637947756172643a207265656e7472616e742063616c6c006000830152602082019050919050565b6000612a5d601883612fb1565b91507f5769746864726177616c20616c726561647920646f6e652100000000000000006000830152602082019050919050565b6000612a9d601183612fc2565b91507f206973206d697373696e6720726f6c65200000000000000000000000000000006000830152601182019050919050565b6000612add602f83612fb1565b91507f416363657373436f6e74726f6c3a2063616e206f6e6c792072656e6f756e636560008301527f20726f6c657320666f722073656c6600000000000000000000000000000000006020830152604082019050919050565b6000612b43601183612fb1565b91507f4e6f7420656e6f75676820766f746573210000000000000000000000000000006000830152602082019050919050565b6000612b83601b83612fb1565b91507f446f6573206e6f74206861766520696e766573746f7220726f6c6500000000006000830152602082019050919050565b612bbf81613169565b82525050565b6000612bd082612976565b9150819050919050565b6000612be582612990565b9150612bf182856126d3565b9150612bfc82612a90565b9150612c0882846126d3565b91508190509392505050565b6000602082019050612c29600083018461265e565b92915050565b600061012082019050612c45600083018c61265e565b8181036020830152612c57818b61269a565b90508181036040830152612c6b818a61269a565b9050612c7a606083018961268b565b612c876080830188612bb6565b612c9460a0830187612bb6565b612ca160c0830186612bb6565b612cae60e0830185612bb6565b612cbc610100830184612bb6565b9a9950505050505050505050565b6000602082019050612cdf600083018461266d565b92915050565b6000602082019050612cfa600083018461267c565b92915050565b6000602082019050612d15600083018461268b565b92915050565b60006020820190508181036000830152612d35818461269a565b905092915050565b60006020820190508181036000830152612d5681612704565b9050919050565b60006020820190508181036000830152612d7681612744565b9050919050565b60006020820190508181036000830152612d9681612784565b9050919050565b60006020820190508181036000830152612db6816127ea565b9050919050565b60006020820190508181036000830152612dd68161282a565b9050919050565b60006020820190508181036000830152612df681612890565b9050919050565b60006020820190508181036000830152612e16816128d0565b9050919050565b60006020820190508181036000830152612e3681612936565b9050919050565b60006020820190508181036000830152612e56816129d0565b9050919050565b60006020820190508181036000830152612e7681612a10565b9050919050565b60006020820190508181036000830152612e9681612a50565b9050919050565b60006020820190508181036000830152612eb681612ad0565b9050919050565b60006020820190508181036000830152612ed681612b36565b9050919050565b60006020820190508181036000830152612ef681612b76565b9050919050565b6000602082019050612f126000830184612bb6565b92915050565b600060a082019050612f2d6000830188612bb6565b612f3a602083018761265e565b8181036040830152612f4c818661269a565b9050612f5b6060830185612bb6565b612f68608083018461266d565b9695505050505050565b6000604082019050612f876000830185612bb6565b612f946020830184612bb6565b9392505050565b600081519050919050565b600081905092915050565b600082825260208201905092915050565b600081905092915050565b6000612fd882613169565b9150612fe383613169565b9250827fffffffffffffffffffffffffffffffffffffffffffffffffffffffffffffffff038211156130185761301761325d565b5b828201905092915050565b600061302e82613169565b915061303983613169565b9250826130495761304861328c565b5b828204905092915050565b600061305f82613169565b915061306a83613169565b9250817fffffffffffffffffffffffffffffffffffffffffffffffffffffffffffffffff04831182151516156130a3576130a261325d565b5b828202905092915050565b60006130b982613169565b91506130c483613169565b9250828210156130d7576130d661325d565b5b828203905092915050565b60006130ed82613149565b9050919050565b60008115159050919050565b6000819050919050565b60007fffffffff0000000000000000000000000000000000000000000000000000000082169050919050565b60008190506131448261332a565b919050565b600073ffffffffffffffffffffffffffffffffffffffff82169050919050565b6000819050919050565b600061317e82613136565b9050919050565b60005b838110156131a3578082015181840152602081019050613188565b838111156131b2576000848401525b50505050565b60006131c382613169565b915060008214156131d7576131d661325d565b5b600182039050919050565b600060028204905060018216806131fa57607f821691505b6020821081141561320e5761320d6132ea565b5b50919050565b600061321f82613169565b91507fffffffffffffffffffffffffffffffffffffffffffffffffffffffffffffffff8214156132525761325161325d565b5b600182019050919050565b7f4e487b7100000000000000000000000000000000000000000000000000000000600052601160045260246000fd5b7f4e487b7100000000000000000000000000000000000000000000000000000000600052601260045260246000fd5b7f4e487b7100000000000000000000000000000000000000000000000000000000600052602160045260246000fd5b7f4e487b7100000000000000000000000000000000000000000000000000000000600052602260045260246000fd5b6000601f19601f8301169050919050565b6004811061333b5761333a6132bb565b5b50565b613347816130e2565b811461335257600080fd5b50565b61335e81613100565b811461336957600080fd5b50565b6133758161310a565b811461338057600080fd5b50565b61338c81613169565b811461339757600080fd5b5056fea2646970667358221220286abc0592e8b1a45057f48c23f86ef5003193c04ebffd0821a326177b3a6f0164736f6c63430008000033",
  "immutableReferences": {},
  "source": "// SPDX-License-Identifier: MIT\r\npragma solidity 0.8.0;\r\n\r\nimport \"@openzeppelin/contracts/utils/math/SafeMath.sol\";\r\nimport \"@openzeppelin/contracts/access/AccessControl.sol\";\r\nimport \"@openzeppelin/contracts/security/ReentrancyGuard.sol\";\r\n\r\n/// @title A Contract for making Visions\r\n/// @author K. Koliopoulou\r\n/// @notice You can use this contract to construct new Visions\r\ncontract Etherpreneur {\r\n    address public owner = msg.sender;\r\n    Vision[] private visions;\r\n\r\n    event NewVisionCreated(\r\n        address _visionAddress,\r\n        address _owner,\r\n        string _type,\r\n        string _desciption,\r\n        uint _amountGoal\r\n    );\r\n\r\n    function createVision(string calldata visionType, string calldata visionDescr, uint amountGoal, uint deadline) external {\r\n\r\n        Vision vision = new Vision(msg.sender, amountGoal, visionType, visionDescr, deadline);\r\n\r\n        visions.push(vision);\r\n\r\n        emit NewVisionCreated(\r\n            address(vision),\r\n            msg.sender,\r\n            visionType,\r\n            visionDescr,\r\n            amountGoal\r\n        );\r\n    }\r\n\r\n    function getAllVisions() external view returns (Vision[] memory) {\r\n        return visions;\r\n    }\r\n}\r\n\r\n/// @title A Contract that depicts a Vision with its info and functions for investments, payments, votes etc\r\ncontract Vision is ReentrancyGuard, AccessControl {\r\n    using SafeMath for uint;\r\n    bytes32 public constant INVESTOR_ROLE = keccak256(\"INVESTOR_ROLE\");\r\n\r\n    enum State {\r\n        INVEST,\r\n        ENDED,\r\n        PAID,\r\n        EXPIRED\r\n    }\r\n    uint public amountGoal;\r\n    uint public currentAmount;\r\n    address public owner;\r\n    string public visionType;\r\n    string public visionDescr;\r\n    mapping(address => uint) public investors;\r\n    State public state = State.INVEST;\r\n    uint public sumOfInvestors;\r\n    uint public deadline;\r\n\r\n    struct WithdrawReq {\r\n        uint withdrawAmount;\r\n        address receiver;\r\n        string withdrawalReason;\r\n        uint votes;\r\n        mapping(address => bool) votedInvestors;\r\n        bool isDone;\r\n    }\r\n\r\n    WithdrawReq[] public requests;\r\n    uint public idxReq = 0;\r\n\r\n\r\n    modifier onlyOwner(){\r\n        require(msg.sender == owner, \"User is not the owner of the Vision\");\r\n        _;\r\n    }\r\n\r\n    modifier canInvest(){\r\n        require(state == State.INVEST && block.timestamp < deadline, \"Vision is not in Invest State\");\r\n        _;\r\n    }\r\n\r\n    modifier hasEnded(){\r\n        require(state == State.ENDED, \"Vision has not ended yet\");\r\n        _;\r\n    }\r\n\r\n    modifier hasExpired(){\r\n        require(state == State.EXPIRED, \"Vision has not expired\");\r\n        _;\r\n    }\r\n\r\n    modifier goalReached(){\r\n        require(currentAmount >= amountGoal, \"Goal has not been reached\");\r\n        _;\r\n    }\r\n\r\n    modifier hasInvestorRole(){\r\n        require(hasRole(INVESTOR_ROLE, msg.sender), \"Does not have investor role\");\r\n        _;\r\n    }\r\n\r\n    event VisionCreated(address indexed owner, uint amountGoal, string visionType, string visionDescr);\r\n    event InvestorAdded(address indexed investor);\r\n    event AmountReceived(address indexed _from, uint receivedAmount, uint currentAmount);\r\n    event AmountSent(address indexed _from, uint _amount);\r\n    event WithdrawnSuccess(address indexed _from, uint _amount);\r\n    event GoalAchieved(address indexed owner, uint currentAmount);\r\n    event VisionExpired(address indexed owner, uint deadline);\r\n\r\n\r\n    constructor(address _owner, uint _amountGoal, string memory _type, string memory _descr, uint256 numOfDays) {\r\n        owner = _owner;\r\n        amountGoal = _amountGoal;\r\n        visionType = _type;\r\n        visionDescr = _descr;\r\n        deadline = block.timestamp + (numOfDays * 1 days);\r\n        emit VisionCreated(_owner, _amountGoal, _type, _descr);\r\n    }\r\n\r\n    /// @notice Invest amount to a Vision\r\n    function invest() external canInvest payable {\r\n        require(msg.sender != owner);\r\n        addInvestor();\r\n        allowForPull(msg.sender, msg.value);\r\n        currentAmount = currentAmount.add(msg.value);\r\n        require(currentAmount <= amountGoal, \"Invested amount exceeds requested goal\");\r\n        emit AmountReceived(msg.sender, msg.value, currentAmount);\r\n        checkVisionState();\r\n    }\r\n\r\n    /// @notice Checks if Vision's goal is reached, or Vision is expired\r\n    function checkVisionState() private {\r\n        if (currentAmount >= amountGoal) {\r\n            state = State.ENDED;\r\n            emit GoalAchieved(owner, currentAmount);\r\n        }\r\n        if (block.timestamp > deadline) {// TODO: Need to be checked!\r\n            state = State.EXPIRED;\r\n            emit VisionExpired(owner, deadline);\r\n        }\r\n    }\r\n\r\n    /// @notice Adds available amount per investor, pull over push pattern\r\n    /// @param receiver the investor address\r\n    /// @param amount the amount could be withdrawn\r\n    function allowForPull(address receiver, uint amount) private {\r\n        investors[receiver] = investors[receiver].add(amount);\r\n    }\r\n\r\n    /// @notice Investors can withdraw invested amount if the Vision is expired\r\n    function withdrawInvestedAmount() public hasInvestorRole payable nonReentrant returns (bool){// TODO: Add hasExpired\r\n        uint amount = investors[msg.sender];\r\n\r\n        require(amount != 0);\r\n        investors[msg.sender] = 0;\r\n\r\n        (bool success,) = msg.sender.call{value : amount}(\"\");\r\n        if (success) {\r\n            currentAmount = currentAmount.sub(amount);\r\n        } else {\r\n            investors[msg.sender] = amount;\r\n        }\r\n        return success;\r\n    }\r\n\r\n    /// @notice Returns the amount invested from the given address\r\n    /// @param investor the investor's address\r\n    function getInvestorAmount(address investor) public view returns (uint) {\r\n        return investors[investor];\r\n    }\r\n\r\n    /// @notice Add investor\r\n    /// @dev Before adding, checks if already investor exists\r\n    function addInvestor() private {\r\n        if (investors[msg.sender] == 0) {//TODO:Possible modifier\r\n            sumOfInvestors += 1;\r\n            _setupRole(INVESTOR_ROLE, msg.sender);\r\n            emit InvestorAdded(msg.sender);\r\n        }\r\n    }\r\n\r\n    /// @notice Creates a withdraw request\r\n    /// @param _withdrawAmount the amount to be withdrawn\r\n    /// @param _withdrawalReason the reason of the withdrawal\r\n    /// @dev Before adding the new request checks if there is enough amount to request for\r\n    function createWithdrawRequest(uint _withdrawAmount, string calldata _withdrawalReason) public onlyOwner hasEnded {\r\n        require(currentAmount >= _withdrawAmount, 'Requested amount is greater than the available one.');\r\n        WithdrawReq storage newReq = requests.push();\r\n        newReq.receiver = msg.sender;\r\n        newReq.withdrawAmount = _withdrawAmount;\r\n        newReq.withdrawalReason = _withdrawalReason;\r\n        newReq.votes = 0;\r\n        newReq.isDone = false;\r\n        idxReq++;\r\n    }\r\n\r\n    /// @notice Vote for a withdrawal request\r\n    /// @param idx the index of the request\r\n    /// @dev Before adding the vote, checks if the request is already done and if the investor has already voted\r\n    function vote(uint idx) public hasEnded hasInvestorRole {\r\n        WithdrawReq storage withdrawReq = requests[idx];\r\n        require(withdrawReq.isDone == false, \"Withdrawal already done!\");\r\n        require(withdrawReq.votedInvestors[msg.sender] == false, \"User already voted\");\r\n        withdrawReq.votedInvestors[msg.sender] = true;\r\n        withdrawReq.votes++;\r\n    }\r\n\r\n    /// @notice Send the amount requested to the receiver\r\n    /// @param idx the index of the request\r\n    /// @dev Before transferring the amount checks if the withdrawal is already done, if the votes are enough and if the\r\n    /// current amount is enough. The require given for the votes part, handles also the special case of having only\r\n    /// 1 investor.\r\n    function withdraw(uint idx) public onlyOwner payable nonReentrant hasEnded {\r\n        WithdrawReq storage req = requests[idx];\r\n        require(req.isDone == false, \"Withdrawal already done!\");\r\n        require(req.votes >= sumOfInvestors / 2 && !(req.votes != 1 && sumOfInvestors == 1), \"Not enough votes!\");\r\n        currentAmount = currentAmount.sub(req.withdrawAmount);\r\n        require(currentAmount >= 0, \"Not enough amount!!!\");\r\n        (bool success,) = req.receiver.call{value : req.withdrawAmount}(\"\");\r\n        require(success, \"Withdrawn has failed!\");\r\n        req.isDone = true;\r\n        if (currentAmount == 0) state = State.PAID;\r\n        emit WithdrawnSuccess(req.receiver, req.withdrawAmount);\r\n    }\r\n\r\n    // @notice Get vision data\r\n    function getVision() public view returns\r\n    (\r\n        address _owner,\r\n        string memory _type,\r\n        string memory _description,\r\n        State _currentState,\r\n        uint256 _goal,\r\n        uint256 _currentAmount,\r\n        uint256 _deadline,\r\n        uint _sumOfInvestors,\r\n        uint _idxReq\r\n    ) {\r\n        _owner = owner;\r\n        _type = visionType;\r\n        _currentState = state;\r\n        _description = visionDescr;\r\n        _goal = amountGoal;\r\n        _currentAmount = currentAmount;\r\n        _deadline = deadline;\r\n        _sumOfInvestors = sumOfInvestors;\r\n        _idxReq = idxReq;\r\n    }\r\n\r\n    receive() external payable {\r\n        revert();\r\n    }\r\n\r\n    fallback() external payable {\r\n        revert();\r\n    }\r\n}\r\n",
  "sourcePath": "/mnt/c/Users/kwnst/WebstormProjects/blockchain-developer-bootcamp-final-project_v2/contracts/Etherpreneur.sol",
  "compiler": {
    "name": "solc",
    "version": "0.8.0+commit.c7dfd78e.Emscripten.clang"
  },
  "schemaVersion": "3.4.3",
  "updatedAt": "2021-11-20T14:12:32.214Z",
  "devdoc": {
    "kind": "dev",
    "methods": {
      "createWithdrawRequest(uint256,string)": {
        "details": "Before adding the new request checks if there is enough amount to request for",
        "params": {
          "_withdrawAmount": "the amount to be withdrawn",
          "_withdrawalReason": "the reason of the withdrawal"
        }
      },
      "getInvestorAmount(address)": {
        "params": {
          "investor": "the investor's address"
        }
      },
      "getRoleAdmin(bytes32)": {
        "details": "Returns the admin role that controls `role`. See {grantRole} and {revokeRole}. To change a role's admin, use {_setRoleAdmin}."
      },
      "grantRole(bytes32,address)": {
        "details": "Grants `role` to `account`. If `account` had not been already granted `role`, emits a {RoleGranted} event. Requirements: - the caller must have ``role``'s admin role."
      },
      "hasRole(bytes32,address)": {
        "details": "Returns `true` if `account` has been granted `role`."
      },
      "renounceRole(bytes32,address)": {
        "details": "Revokes `role` from the calling account. Roles are often managed via {grantRole} and {revokeRole}: this function's purpose is to provide a mechanism for accounts to lose their privileges if they are compromised (such as when a trusted device is misplaced). If the calling account had been granted `role`, emits a {RoleRevoked} event. Requirements: - the caller must be `account`."
      },
      "revokeRole(bytes32,address)": {
        "details": "Revokes `role` from `account`. If `account` had been granted `role`, emits a {RoleRevoked} event. Requirements: - the caller must have ``role``'s admin role."
      },
      "supportsInterface(bytes4)": {
        "details": "See {IERC165-supportsInterface}."
      },
      "vote(uint256)": {
        "details": "Before adding the vote, checks if the request is already done and if the investor has already voted",
        "params": {
          "idx": "the index of the request"
        }
      },
      "withdraw(uint256)": {
        "details": "Before transferring the amount checks if the withdrawal is already done, if the votes are enough and if the current amount is enough. The require given for the votes part, handles also the special case of having only 1 investor.",
        "params": {
          "idx": "the index of the request"
        }
      }
    },
    "title": "A Contract that depicts a Vision with its info and functions for investments, payments, votes etc",
    "version": 1
  },
  "userdoc": {
    "kind": "user",
    "methods": {
      "createWithdrawRequest(uint256,string)": {
        "notice": "Creates a withdraw request"
      },
      "getInvestorAmount(address)": {
        "notice": "Returns the amount invested from the given address"
      },
      "invest()": {
        "notice": "Invest amount to a Vision"
      },
      "vote(uint256)": {
        "notice": "Vote for a withdrawal request"
      },
      "withdraw(uint256)": {
        "notice": "Send the amount requested to the receiver"
      },
      "withdrawInvestedAmount()": {
        "notice": "Investors can withdraw invested amount if the Vision is expired"
      }
    },
    "version": 1
  }
}